:020000040800F2
:100000005809002045010008BB220008991E00087D
:10001000B92200085F080008192A00080000000043
:10002000000000000000000000000000DF220008C7
:100030006108000800000000DD220008E12200083D
:100040005F0100085F0100085F0100085F01000810
:100050005F0100085F0100085F0100085F01000800
:100060005F0100085F0100085F0100085F010008F0
:100070005F0100085F0100085F0100085F010008E0
:100080005F0100085F0100085F0100085F010008D0
:100090005F0100085F0100085F0100085F010008C0
:1000A0005F0100085F0100085F0100085F010008B0
:1000B0005F010008A1230008AD2300085F010008CC
:1000C0005F0100085F0100085F0100085F01000890
:1000D0005F010008012A00080D2A00085F010008DE
:1000E0005F0100085F0100085F0100085F01000870
:1000F0005F0100085F0100085F0100085F01000860
:100100005F0100085F010008B92300085F010008D3
:100110005F0100085F010008C52300085F010008B7
:100120005F0100085F0100085F0100085F0100082F
:10013000DFF80CD000F060FB0048004709330008EE
:10014000580900200648804706480047FEE7FEE7BA
:10015000FEE7FEE7FEE7FEE7FEE7FEE7FEE7FEE777
:100160005923000831010008202A04DB203A21FA33
:1001700002F00021704721FA02F3D040C2F12002C0
:10018000914008431946704780EA010210B502F019
:100190000043400022D04A001FD0010E01EB126143
:1001A000C0F35600C2F3560240F4000042F40002CD
:1001B000A0FB022000047F39140400D0401C50EA48
:1001C000124001D44000491EC2B20C0604EBD0100C
:1001D000401C4008802A02D003E0002010BD20F01F
:1001E0000100002900DA0020184310BD30B480EA75
:1001F000010202F0004530F0004221F0004013D02F
:1002000090B1C30DD40DC2F31601C0F31600E41A69
:1002100041F4000140F400027D34914201D3641C9A
:1002200000E04900002C02DA30BC002070474FF497
:1002300000000023914201D3891A034340084FEA8A
:100240004101F7D151B1914202D14FF0004105E097
:1002500002D24FF0010101E06FF0010103EBC45045
:10026000284430BC00F05CB92DE9FE4F81EA03045C
:1002700004F0004421F0004100944FF0000B23F003
:10028000004350EA01045ED052EA03045BD0C3F39A
:100290000A54C1F30A552C44A4F2F3340194A0FB90
:1002A0000254C1F3130141F48011C3F3130343F467
:1002B000801301FB024400FB034E840A970A44EAC0
:1002C000815447EA8357A4FB076802958D0A05FB12
:1002D00007854FEA932C04FB0C542705029D4FEA37
:1002E000065847EA1637B5EB08056EEB070C870E84
:1002F000920E47EA811742EA8312A7FB0201B6EB8E
:100300000B0164EB00042B0D43EA0C335E1844EB45
:100310001C50DA465146E7FB0201C5F313044FEACD
:100320000B3343EA14534FEA0432019C43EA0603B9
:10033000A4F10C040294009CCDE900B400F036F95D
:1003400003B0BDE8F08F00200146F9E72DE9F04D3C
:1003500081EA030404F0004B21F0004514464FF0FD
:10036000000A23F0004150EA050220D054EA0102BD
:100370001DD0C5F30A570246C5F31303C1F313009A
:10038000C1F30A5640F4801543F48013A7EB060826
:10039000101BD64608F2FD3873EB050002D308F1B6
:1003A000010801E092185B41B8F1000F03DA002068
:1003B0000146BDE8F08D00204FF4801106468446CA
:1003C0000EE0171B73EB050705D3121B63EB050348
:1003D00006434CEA010C49084FEA300092185B4191
:1003E00050EA0107EDD152EA030012D082EA04007C
:1003F00083EA0501084305D0101BAB4106D2012258
:10040000002306E000224FF0004302E06FF00102FB
:1004100053101AEB06004CEB085110EB0A0041EBAD
:100420000B01BDE8F04D00F0B2B896230022114652
:1004300000F07FB800F0004230F000400AD0C10D5B
:1004400001F56071C0F3160042EA0151C20840078D
:100450001143704700200146704701F0004330B45B
:1004600021F0004150EA010206D00A0DA2F56072A7
:10047000C1F31301002A02DC30BC00207047440F96
:1004800044EAC104C100E01830BC00EBC25000F0E7
:1004900047B830B50B46014600202022012409E070
:1004A00021FA02F59D4205D303FA02F5491B04FA2D
:1004B00002F52844151EA2F10102F1DC30BD2DE940
:1004C000F05F0546002092469B46884606468146D8
:1004D00040241BE02846414647462246FFF744FE9B
:1004E00053465A46C01A914110D311461846224627
:1004F00000F094F92D1A67EB01084F4622460120BF
:10050000002100F08BF917EB00094E41201EA4F1E9
:100510000104DFDC484631462A464346BDE8F09FE9
:100520000029A8BF7047401C490008BF20F0010007
:10053000704710B4B0FA80FC00FA0CF050EA0104E5
:1005400004BF10BC704749B1CCF1200421FA04F477
:1005500011FA0CF118BF012121430843A3EB0C0150
:10056000CB1D4FEA00614FEA102042BF002010BCB3
:10057000704700EBC35010440029A4BF10BC704763
:10058000401C490008BF20F0010010BC704710B5A6
:10059000141E73F1000408DA401C41F100019218A6
:1005A0005B411A4301D120F0010010BD2DE9F04D4F
:1005B00092469B4611B1B1FA81F202E0B0FA80F2A4
:1005C0002032904600F02AF904460F4640EA0A001D
:1005D00041EA0B0153465A46084313D0114653EAE9
:1005E000010019D0C8F140025046FFF7BDFD054695
:1005F0000E4650465946424600F010F9084305D0D1
:10060000012004E020463946BDE8F08D0020054376
:1006100046EAE0762C4337430A986305E40AA0EBE8
:1006200008000022FD0A44EA47540A3002D500209F
:100630000146E9E7010510196941DDE9084500199E
:100640006941BDE8F04DA2E72DE9FE4F804681EA01
:100650000300C00F0C46009021F0004123F000453C
:10066000B8EB0200A94105D24046214690461C46FF
:100670000B46024623F00040104347D0270DC7F336
:100680000A00C3F30A510290401A019040286BDA25
:10069000C3F3130040F4801B0098924620B100235E
:1006A000D2EB030A63EB0B0B01985946C0F14002F1
:1006B000504600F0B3F806460D4650465946019A9A
:1006C00000F0BBF810EB08006141002487EA1152EA
:1006D00084EAE7731A4340D0009A62B3019A012A70
:1006E0004FEA075215DC001B61EB02014FF000429C
:1006F00002EA0752CDE90042001C41F58011324662
:100700002B46FFF753FF03B0BDE8F08F404621466C
:10071000F9E7001B61EB0201001C41F58013001892
:100720005B412018A2F5001747EB030140EAD570A2
:10073000B6196D4111E06D084FEA360645EAC075FD
:100740004FEA0752001B61EB0201001C41F58011CA
:1007500049084FEA30000019514132462B4603B098
:10076000BDE8F04FFFF713BF0098012240000023BF
:10077000D0EB020263EBE073009821464FEAE0748D
:10078000B8EB000061EB0401E9E783F000435BE7AD
:1007900081F0004158E7C1F30A52C1F3130140F25E
:1007A000FF3341F480119A4202DA0020014670477B
:1007B00040F233439A42A2F2334202DC5242FFF744
:1007C000D3BC00F02BB8000030B5041E71F100045A
:1007D00004DB4FF00044404264EB0101141E73F14E
:1007E000000405DB1C464FF00043524263EB040358
:1007F000994208BF904230BD064C074D06E0E068C4
:1008000040F0010394E8070098471034AC42F6D357
:10081000FFF792FCD0340008F0340008202A04DBF3
:10082000203A00FA02F1002070479140C2F1200303
:1008300020FA03F3194390407047202A06DBCB17B8
:10084000203A41FA02F043EAE07306E041FA02F38B
:10085000D040C2F120029140084319467047FEE79C
:10086000704700002DE9F05F90F821100024022964
:1008700003D004218163012485E001680A6822F025
:100880000E020A6001680A6822F001020A603F4E07
:100890003E4FB215DFF8F4C0DFF8F090DFF8ECA0BF
:1008A000DFF8E8B0DFF8E4E00168783F13011502F3
:1008B000ACF1640CA9F15009AAF13C0AABF1280B88
:1008C000AEF1140E4FF48018B14227D9B9420ED0C0
:1008D000614512D049451DD0514518D0594518D011
:1008E000714501D1424615E0294EB14201D10122A4
:1008F00010E0274E1436B14201D110220AE0244EF6
:100900002836B14206D0224A3C32914201D11A46E1
:1009100000E02A461E49091F0A602BE0B94213D0A5
:10092000614517D0494522D051451DD059451DD0AC
:10093000714501D142461AE0B14202D14FF08072B6
:1009400015E0134EB14201D1012210E0104E1436D1
:10095000B14201D110220AE00D4E2836B14206D034
:100960000B4A3C32914201D11A4600E02A4607491F
:1009700080394A60012180F82110002180F8201080
:10098000416B01B188472046BDE8F09F80000240DE
:100990000804024070B5044600F00CF90546601CDE
:1009A00002D004480078044400F004F9401BA0423F
:1009B000FAD370BD240000202DE9F84FDFF8B8A16C
:1009C00000220AF1040B144601274FF00F090BF126
:1009D000040E00BF0B6807FA04F52B40AB4274D13C
:1009E000DFF898C14E68A6EB0C0866452BD00DDCED
:1009F000032E34D005DC36B3012E19D0022E2FD1B0
:100A00001BE0112E16D0122E2AD119E0B8F5881F3E
:100A100019D006DCB8F5803F15D0B8F5801F1FD17E
:100A200011E0B8F5001F0ED0B8F5041F18D10AE088
:100A3000CA6815E0CA68121D12E0CA6808320FE0E1
:100A4000CA680C320CE08A682AB1012A4FF0080209
:100A500003D0456104E0042202E0056100E00022C9
:100A6000FF2B01D8064601E000F104064FEA840599
:100A700001D9A5F12005D6F800C009FA05F82CEA3D
:100A8000080C02FA05F54CEA050CC6F800C04D68E2
:100A9000ED006AD53A4DAE6946F00106AE61AD692A
:100AA00024F0030605F001050095364D06EB050C14
:100AB000DCF80850A6074FEA167809FA08F6B5439D
:100AC000314EB04202D100261AE04EE02F4EB04225
:100AD00001D1012614E02E4EB04201D102260FE0D2
:100AE0002C4EB04201D103260AE02B4EB04201D178
:100AF000042605E0294EB04201D1052600E0062675
:100B000006FA08F62E43CCF808604D68DAF8006063
:100B1000ED03554601D51E4300E09E432E604D680F
:100B2000AD0305D5DBF800601E43CBF8006004E0A0
:100B3000DBF800509D43CBF800504D68DEF80060B4
:100B4000ED02754601D51E4300E09E432E604D68C0
:100B5000AD0205D5084D0C352E681E432E6004E00D
:100B6000054E0C3635689D433560641C102CFFF42F
:100B700031AFBDE8F88F0000000401400000111003
:100B8000001002400000014000080140000C01403C
:100B9000001001400014014000180140001C0140F9
:100BA000C2684A40C26070470AB1016170470904D7
:100BB000FBE7000001488068704700002400002027
:100BC0000248816802781144816070472400002047
:100BD000074810B5016841F010010160032000F0E2
:100BE0009DF8002000F006F800F024F8002010BD69
:100BF0000020024070B50D4D04464FF47A712878FC
:100C0000B1FBF0F00A490968B1FBF0F000F02DFBF0
:100C100048B9102C07D200222146501E00F05EF881
:100C200000206C6070BD012070BD00002400002019
:100C300030000020214808B5816941F0010181613F
:100C4000816901F001010091C16941F08051C161E8
:100C5000C06900F080500090032000F05FF800228F
:100C600011466FF00B0000F039F8002211466FF0CA
:100C70000A0000F033F8002211466FF0090000F07E
:100C80002DF800221146501F00F028F800221146CE
:100C9000101F00F023F800221146901E00F01EF8ED
:100CA00000221146501E00F019F80548416821F055
:100CB000E06141F08061416008BD00000010024029
:100CC0000000014000F01F02012191404009800016
:100CD00000F1E020C0F8001170470000F0B40E4BA6
:100CE0001B680C46C3F30223C3F10705042D00D98A
:100CF0000425191D072901D2002300E0DB1E01266F
:100D000006FA05F1491E214099409E40761E164084
:100D10003143F0BC01F0D2BA0CED00E0064900F01E
:100D2000070208684FF6FF03184040EA0220034A12
:100D300010430860704700000CED00E00000FA0569
:100D40002DE9F047DFF83C8105460E46D8F8000053
:100D500000F00700B0420CD2D8F8001021F00701D3
:100D60003143C8F80010D8F8000000F00700B04286
:100D700063D12878444C800705D56068A96820F0C5
:100D8000F000084360602878C00745D068680128F3
:100D900016D02168022816D0890700294DDA61682B
:100DA00021F0030101436160FFF704FF6968074612
:100DB00041F2883001290FD00229814619D027E05D
:100DC00021688903E9E78901E7E700BFFFF7F2FE41
:100DD000C11B494501D918E081466068C0F3810014
:100DE0000128F3D118E000BFFFF7E4FEC11B49451D
:100DF0000BD86068C0F381000228F5D10CE000BF79
:100E0000FFF7D8FEC11B494502D90320BDE8F08792
:100E1000606810F00C0FF3D1D8F80010404601F0D4
:100E20000701B1420BD9016821F00701314301608C
:100E3000006800F00700B04201D00120E6E7287802
:100E4000400705D56068E96820F4E0600843606009
:100E50002878000706D56068296920F4605040EAC8
:100E6000C100606000F03CF86168084AC1F30311FA
:100E7000515CC840064908600020FFF7BBFE002017
:100E8000C4E700000020024000100240B83400080F
:100E9000300000200148006870470000300000204A
:100EA0000448054900684968044AC1F30221515CBD
:100EB000C84070473000002000100240C8340008CD
:100EC0000448054900684968044AC1F3C221515CDD
:100ED000C84070473000002000100240C8340008AD
:100EE00012A185B00FC98DE80F0014A0144A006844
:100EF00004905168134801F00C03042B10D0082B08
:100F00000ED1C1F38343C9031DF803000AD551680C
:100F100004AAC1F34041515C0A4A5043B0FBF1F0CE
:100F200005B0704708494843FAE70000020304058A
:100F3000060708090A0B0C0D0E0F10100102000025
:100F40000010024000127A0000093D002DE9F84F20
:100F500004460078B94DC00748D06868C0F38100E6
:100F6000012807D06868C0F38100022809D16868A9
:100F7000C00306D52868800338D5606800286FD084
:100F800034E06068B0F5803F0BD010B1B0F5A02F11
:100F900011D0286820F480302860286820F4802050
:100FA00002E0286840F480302860606888B1FFF76C
:100FB00001FE064609E0286840F480202860F0E73A
:100FC000FFF7F8FD801B642875D828688003F7D5E3
:100FD0000CE0FFF7EFFD064605E000BFFFF7EAFD76
:100FE000801B6428F0D828688003F7D42078944EBA
:100FF00080074FF001094FF000083BD5686810F0FA
:101000000C0F07D06868C0F38100022809D1686816
:10101000C00306D42868800714D5206901281FD191
:1010200010E02069B0B1C6F80090FFF7C3FD074695
:1010300005E000BFFFF7BEFDC01B0228C4D828682A
:101040008007F7D52868616920F0F80040EAC10000
:1010500028600FE0C6F80080FFF7ACFD074606E009
:10106000E9E000BFFFF7A6FDC01B022823D82868CF
:101070008007F7D4207800072CD57248A169D9B130
:10108000C0F80090FFF796FD074604E0FFF792FDD9
:10109000C01B02280FD8686A8007F7D56A484FF44A
:1010A000FA510068B0FBF1F0009000BF0098411EBB
:1010B0000091FAD20EE080E0C0F80080FFF77AFDE0
:1010C000074604E0FFF776FDC01B022875D8686A62
:1010D0008007F7D42078400760D5E8690027C00072
:1010E00008D4E86940F08050E861E869012700F021
:1010F0008050009055480168C90513D401688346A3
:1011000041F480710160FFF755FD824606E000BFA3
:10111000FFF750FDA0EB0A0064284ED8DBF8000072
:10112000C005F5D5E06801280AD008B1052813D01C
:10113000286A20F001002862286A20F0040002E0FA
:10114000286A40F001002862E06841F2883B98B1CB
:10115000FFF730FD82460BE0286A40F00400286269
:10116000EEE700BFFFF726FDA0EB0A0159455AD86C
:10117000286A8007F6D50CE0FFF71CFD824605E0E3
:10118000FFF718FDA0EB0A0159454CD8286A8007E3
:10119000F6D41FB1E86920F08050E861E06988B3B7
:1011A0006968C1F38101022945D00228C6F8608030
:1011B00004D0FFF7FFFC044638E034E0FFF7FAFC08
:1011C000074604E0FFF7F6FCC01B02282BD828686E
:1011D0008001F7D4206AB0F5803F05D16868A16826
:1011E00020F4003008436860D4E9080108436968C6
:1011F00021F4741108436860C6F86090FFF7DAFCC8
:10120000044606E015E000BFFFF7D4FC001B0228EF
:1012100009D828688001F7D50BE000BFFFF7CAFCAA
:10122000001B022802D90320BDE8F88F286880013E
:10123000F4D40020F8E70120F6E700000010024097
:101240000000424280044242300000200070004012
:101250004FF0E0210428086903D020F00400086161
:10126000704740F00400FAE7704710B5401EB0F137
:10127000807F01D3012010BD4FF0E02460610F2179
:10128000601701F01BF80020A061072020610020FA
:1012900010BD10B5FFF7E8FF10BD7047704730B5BF
:1012A00090F83C20012A20D0012280F83C20022323
:1012B00080F83D3003685C6824F070045C6003686B
:1012C0005C680D682C435C6003689C6824F08004B3
:1012D0009C6003689C6849680C439C6080F83D20D2
:1012E000002180F83C10084630BD022030BD10B50A
:1012F000040003D094F83D0010B107E0012010BDB8
:10130000002084F83C00204600F00CF8022084F80D
:101310003D00211D206801F05BF8012084F83D00AC
:10132000002010BD00B536490268364885B08A42B3
:1013300009D1816941F400618161806900F4006034
:10134000049005B000BD0021B2F1804F19D02E4BA2
:101350009A4227D1C26942F00402C261C069029177
:1013600000F0040004904020CDE9000169462748C0
:10137000FFF722FB002211461E20FFF7AFFC1E20C4
:1013800029E0C26942F00102C261C069029100F025
:10139000010004900120CDE9000169461C48FFF7D7
:1013A0000BFBCEE71B498A4218D1C16941F0080105
:1013B000C161C069002200F008000490114632208B
:1013C000FFF78CFC3220FFF77DFC00221146322013
:1013D000FFF784FC3220FFF775FCB2E70E498A4222
:1013E000AFD1C16941F01001C161C069002200F0B4
:1013F0001000049011463620FFF770FC3620EAE713
:10140000002C01400010024000080040000C014088
:1014100000080140000C004000100040022180F84C
:101420003D1001680A6842F001020A60012180F85B
:101430003D10002070470168CA6842F00102CA608E
:101440000068016841F0010101600020704702213D
:1014500080F83D1001680A6A41F211131A4207D15F
:101460000A6A9B101A4203D10A6822F001020A603C
:10147000012180F83D100020704770B5044690F8B7
:101480003C00012817D0012584F83C50022084F844
:101490003D002068826822F0770222F47F42826059
:1014A0000868502837D00DDC202859D005DC88B3D7
:1014B000102841D151E0022070BD302853D040287F
:1014C0003AD13FE060282ED070280BD0B0F5805F75
:1014D00003D0B0F5005F2FD110E02068816821F0C3
:1014E000070115E0CB68D1E90121206800F0C1FFB8
:1014F0002168886840F0770088601DE0CB68D1E9FA
:101500000121206800F0B5FF2068816841F4804126
:10151000816011E01EE0CA684968206801F07EF829
:101520005021206806E0CA684968206801F0BEF8CA
:101530006021206800F0A7FF84F83D50002084F867
:101540003C0070BDCA684968206801F067F8402116
:101550002068EFE700212068ECE710212068E9E728
:1015600020212068E6E730212068E3E72DE9F041FB
:10157000224C607878BB207840063CD5204E8020F5
:1015800020703068416A1F4A60791F4F42F820106E
:101590003A68526A1D4B002543F82020E369401C3D
:1015A0001944E161216AC0B211442162607164286A
:1015B00007D165710120A07025700021144800F04A
:1015C000F8F80F48FFF743FF0F48FFF740FF306878
:1015D000456238684562607801280CD120780006A1
:1015E00009D5402020700648FFF718FFBDE8F041FC
:1015F0000548FFF713BFBDE8F081000000000020A0
:10160000580300203800002098030020C801002063
:10161000180400202DE9F041044690F83C000D46E6
:1016200001283BD0012684F83C60022084F83D006C
:101630009AB3042A44D02068082A53D0D5E9002759
:10164000E968036A23F480530362D0F81CC0036A7C
:101650002CF4407C4CEA07274FF6FF7C27F47047B8
:101660000CEA01313943770323F4005307EA0232CD
:101670001A43C16102622068C16921F44061C161FD
:101680002068C169AA6841EA0221C16184F83D600D
:10169000002084F83C00BDE8F08101E00220FAE778
:1016A000D5E90012EB68206800F0CAFF2068816964
:1016B00021F00C01816120688169AA6811430FE063
:1016C000D5E90012EB68206801F002F82068816912
:1016D00021F44061816120688169AA6841EA0221A0
:1016E0008161D3E7D5E9002C2F7B016A21F4807159
:1016F0000162C169036A21F0030141EA0C0121F092
:10170000F00C39074FF420674CEA116123F4206391
:1017100007EA02221A43C16102622068C16921F00E
:101720000C01C1612068C169AA681143ADE710B519
:10173000040003D094F83D0010B107E0012010BD73
:10174000002084F83C00204600F00CF8022084F8C9
:101750003D00211D206800F03BFE012084F83D0083
:10176000002010BD704710B50268044631B104294D
:1017700008D0082915D00C2908D116E0D06840F00F
:10178000020002E0D06840F00400D060012220682E
:1017900000F064FE2068016841F001010160002052
:1017A00010BDD06840F00800EFE7D06840F01000AE
:1017B000EBE710B50268044631B1042908D00829C6
:1017C0001ED00C2908D11FE0D06820F0020002E0F2
:1017D000D06820F00400D0600022206800F03EFEB7
:1017E0002068016A41F21112114207D1016A921078
:1017F000114203D1016821F001010160002010BDF8
:10180000D06820F00800E6E7D06820F01000E2E79A
:1018100070B50446006801694FF00005C9438907A7
:1018200015D4C168C943890711D4E91E016101209B
:101830002077206880698007204602D0FFF796FE57
:1018400004E000F0ADF8204600F04CF92577206860
:101850000169C943490717D4C168C943490713D46B
:101860006FF004010161022020772068806910F484
:10187000407F204602D0FFF779FE04E000F090F8A8
:10188000204600F02FF9257720680169C943090730
:1018900016D4C168C943090712D46FF00801016169
:1018A000042020772068C0698007204602D0FFF717
:1018B0005DFE04E000F074F8204600F013F925778F
:1018C00020680169C943C90617D4C168C943C9065C
:1018D00013D46FF010010161082020772068C069DF
:1018E00010F4407F204602D0FFF740FE04E000F0F5
:1018F00057F8204600F0F6F8257720680169C943BB
:10190000C90708D1C168C943C90704D1891E01614B
:10191000204600F005F920680169C943090609D489
:10192000C168C943090605D46FF0800101612046F2
:10193000FFF7B3FC20680169C943490609D4C168AF
:10194000C943490605D46FF040010161204600F00B
:1019500007F920680169C94389060BD4C168C943E6
:10196000890607D46FF0200101612046BDE8704070
:10197000FFF794BC70BD00001FB50068064988429F
:1019800008D103200090022001900390694603488B
:10199000FFF712F81FBD000000040040000C0140DA
:1019A000704770B5044690F83C000D4601280DD0F4
:1019B000012684F83C60022084F83D0042B1042AEC
:1019C00018D0082A2AD00C2A4DD139E0022070BD47
:1019D000206800F061FD2068816941F008018161A3
:1019E0002068816921F004018161206881692A6988
:1019F000114311E0206800F07FFD2068816941F407
:101A0000006181612068816921F4806181612068C1
:101A100081692A6941EA0221816124E0206800F09D
:101A2000A1FD2068C16941F00801C1612068C16958
:101A300021F00401C1612068C1692A69114311E0E4
:101A4000206800F0C3FD2068C16941F40061C161F4
:101A50002068C16921F48061C1612068C1692A6977
:101A600041EA0221C16184F83D60002084F83C0015
:101A700070BD10B5040003D094F83D0010B107E02C
:101A8000012010BD002084F83C00204600F00CF836
:101A9000022084F83D00211D206800F099FC0120FF
:101AA00084F83D00002010BD08B500680B4988424D
:101AB00012D10B48C16941F00201C161C069002225
:101AC00000F00200009011461D20FFF707F9BDE865
:101AD00008401D20FFF7F6B808BD000000040040D4
:101AE000001002407047000010B504460068012253
:101AF00000F0B4FC08492068884202D007498842B7
:101B000003D1416C41F4004141642068016841F017
:101B100001010160002010BD002C01400034014093
:101B20000C4B016800220C48994205D143780BB157
:101B3000427001E001234370084B994209D181684A
:101B4000491C8160B1F57A7F03D1C168491CC0E9A5
:101B500002217047000C00400000002000100040EF
:101B60007047704770B5026804461068D1685369C1
:101B700010F00F0F51D003F0010501F490763543BA
:101B80005DD0C20705D0CA0503D5E26B42F0010261
:101B9000E263420705D5DA0703D0E26B42F00202A6
:101BA000E263820705D5DA0703D0E26B42F0040254
:101BB000E263020705D5DA0703D0E26B42F00802C0
:101BC000E263E26B002A34D0800604D5880602D591
:101BD000204600F0AEFD20684069E16BC0F3801044
:101BE00001F008010143204624D000F094FD206854
:101BF000416949061AD5416921F040014161606B94
:101C0000A0B11B494163606BFEF72CFE002810D089
:101C1000606B416BBDE87040084783060FD58B06AB
:101C20000DD52046BDE8704000F083BD2046FFF78B
:101C300098FF70BDFFF795FF0020E06370BD0306BD
:101C400006D50B0604D52046BDE8704000F074BEF2
:101C50004006F3D54806F1D5D168204621F0400171
:101C6000D160202184F8391000F015F970BD000012
:101C70000727000870B5040004D094F83900002547
:101C800010B106E0012070BD84F83850204600F005
:101C900023F8242084F839002068C16821F4005119
:101CA000C160204600F090FD2068016921F4904158
:101CB00001612068416921F02A0141612068C16801
:101CC00041F40051C160E563202084F8390084F8B4
:101CD0003A00002070BD000070B5274E0368002454
:101CE000264902200322264D86B0B3421ED18B69BD
:101CF00043F480438B618969039201F4804104912C
:101D00000102CDE9001069462846FEF755FE281568
:101D1000CDE90004694628460294FEF74DFE0022F4
:101D200011462520FEF7DAFF252020E0154EB342AC
:101D30001FD1CB6943F40033CB61C969039201F42D
:101D4000003104910421CDE9001069462846FEF7D0
:101D500033FE0820CDE90004694628460294FEF7C8
:101D60002BFE002211462620FEF7B8FF2620FEF7A4
:101D7000A9FF06B070BD000000380140001002400D
:101D8000000801400044004090F83A30202B22D156
:101D9000F9B1F2B190F83830012B1CD08162828504
:101DA000C2850021C163222280F83A2080F83810D1
:101DB0000168CA6842F48072CA6001684A6942F0E8
:101DC00001024A610068C16841F02001C160002041
:101DD0007047012070470220704770472DE9F84393
:101DE000044690F839001F4616460D46202850D16B
:101DF000A5B19EB194F8380001284AD0012084F89A
:101E000038004FF00008C4F83C80212084F83900E5
:101E1000FEF7D0FEA6848146E68426E00120BDE8D8
:101E2000F883E08C401EE084A0684B46B0F5805FEC
:101E30004FF000024FF080012046009703D000F0E1
:101E4000ACFDE8B90DE000F0A8FDC8B9288821680C
:101E5000C0F308004860206908B16D1C05E0AD1CA6
:101E600003E0216815F8010B4860E08C0028D8D108
:101E70004B46002240212046009700F08EFD08B11D
:101E80000320CCE7202084F8390084F83880002033
:101E9000C5E70220C3E77047FEE700002DE9F041E7
:101EA0001E4886B0816941F040018161816901F07D
:101EB00040010491816941F004018161816901F06F
:101EC00004010491816941F0080181618069144F26
:101ED00000F008000490012220213846FEF764FE3D
:101EE000DFF84080012220214046FEF75DFE0124FC
:101EF00020250326CDE90054CDE90246694638463F
:101F0000FEF75AFDCDE90054CDE902466946404648
:101F1000FEF752FD06B0BDE8F0810000001002405F
:101F200000180140000C014010B5184886B0164951
:101F300001601B210024C0E901144FF6FF71C0E9C4
:101F4000031444618461FFF7D2F918B1472110A04E
:101F500000F063FD4FF48050009069460B48FFF796
:101F60008CFA18B14D210AA000F057FD049404A981
:101F700006480594FFF793F9002803D0542104A0E4
:101F800000F04BFD06B010BD002C014058030020AE
:101F90002E2E2F5372632F74696D2E630000000084
:101FA00010B5184886B04FF080410024C0E90014F5
:101FB0004FF6FF71C0E9024104618461FFF797F9B0
:101FC00018B1662110A000F028FD4FF40050CDE9B3
:101FD0000004029469460B480394FFF74EFA18B1C7
:101FE0006F2109A000F019FD049404A90548059487
:101FF000FFF755F9002803D0762103A000F00DFD6E
:1020000006B010BD980300202E2E2F5372632F743C
:10201000696D2E630000000010B51F488AB01D498D
:10202000016047210024C0E901146321C0E90314C1
:102030008461FFF71EFD18B1882118A000F0EDFCA7
:10204000079407A914480894FFF729F918B18F21BC
:1020500012A000F0E2FC602000903120CDE90104E4
:10206000082269460C480494FFF79BFC18B198219C
:102070000AA000F0D2FC0C2269460748FFF791FC49
:1020800018B19D2105A000F0C8FC0348FFF774FCBF
:102090000AB010BD00040040D80300202E2E2F539C
:1020A00072632F74696D2E630000000010B5224822
:1020B0008AB02049016053210024C0E90114C460A2
:1020C00004618461FFF713F918B1B2211BA000F07D
:1020D000A4FC4FF48050049004A91748FFF7CDF9F1
:1020E00018B1B82115A000F098FC1348FFF71FFBAA
:1020F00018B1BD2111A000F090FC089408A90E4869
:102100000994FFF7CCF818B1C4210CA000F085FCAD
:102110000120CDE90040029400226946064803945C
:10212000FFF778FA002803D0CD2104A000F075FC59
:102130000AB010BD00080040180400202E2E2F53B6
:1021400072632F74696D2E630000000010B518488B
:1021500086B01649016040F247310024C0E90114FD
:102160006321C0E903148461FFF7C1F818B1DF21CE
:1021700010A000F052FC4FF48050009069460C48CB
:10218000FFF77BF918B1E5210AA000F046FC0494A2
:1021900004A907480594FFF782F8002803D0EC2132
:1021A00004A000F03AFC06B010BD0000000C004096
:1021B000580400202E2E2F5372632F74696D2E63E6
:1021C000000000001CB511480F49002401604721A0
:1021D000C0E9011440F2E7318461C160FFF787F87C
:1021E00018B1FC210AA000F018FC009469460748C9
:1021F0000194FFF754F8002804D040F2031104A022
:1022000000F00BFC1CBD00000010004098040020F2
:102210002E2E2F5372632F74696D2E630000000001
:102220000D4810B50B4901604FF4E13141600021C8
:1022300081600C22C160C0E904128161C161FFF7B5
:1022400019FD002805D0BDE81040432103A000F08F
:10225000E4BB10BD00380140D80400202E2E2F53BF
:1022600072632F75736172742E6300000D4810B590
:102270000B4901604FF4E1314160002181600C2283
:10228000C160C0E904128161C161FFF7F3FC00285D
:1022900005D0BDE81040562103A000F0BEBB10BD24
:1022A00000440040180500202E2E2F5372632F7516
:1022B000736172742E630000FEE770470907090E10
:1022C000002806DA00F00F0000F1E02080F8141D6D
:1022D000704700F1E02080F80014704770477047A5
:1022E00010B5FEF76DFCBDE81040FEF7D2BF30B56B
:1022F0008FB001210804CDE90010002402940225CA
:102300000491CDE907504FF4E01009906846FEF7BC
:102310001DFE00B1FEE70F20CDE90A054FF48060F5
:10232000CDE90C4002210AA80E94FEF709FD00B188
:10233000FEE7FEF7AFFD4FF47A71B0FBF1F0FEF768
:1023400094FF0420FEF784FF00221146501EFEF782
:10235000C5FC0FB030BD00000D48016841F001011F
:10236000016041680B4A1140416001680A4A11400E
:102370000160016821F480210160416821F4FE01BF
:1023800041604FF41F0181600449C0030860704739
:10239000001002400000FFF8FFFFF6FE08ED00E02D
:1023A0000148FFF735BA0000D80300200148FFF7C5
:1023B0002FBA0000180400200148FFF729BA0000D6
:1023C000580400200148FFF723BA000098040020B9
:1023D000F0B502681C4B1D4D1D4E1E4F1E4C4FF09C
:1023E000804C984209D0A04207D0604505D0A84251
:1023F00003D0B04201D0B84204D122F0700E4A6836
:1024000042EA0E02984209D0A04207D0604505D0AA
:10241000A84203D0B04201D0B84203D122F44075A3
:10242000CA682A4322F080054A692A4302608A6802
:10243000C2620A688262984201D0A04201D1096951
:10244000016301214161F0BD002C01400004004006
:1024500000080040000C00400034014010B501238A
:10246000046A8B409C430462036A8A4013430362FC
:1024700010BD10B5846842EA032224F47F440A4365
:102480002243826010BD826822F070020A4342F04B
:102490000701816070470000F0B5026A22F0010276
:1024A0000262036A42688469124E24F073050C6864
:1024B0002C4323F002058B682B430D4DA84201D01D
:1024C000B04205D123F00807CB683B4323F0040357
:1024D000A84201D0B04205D14D6922F440721543A3
:1024E0008A692A4342608461496841630362F0BD9E
:1024F000002C014000340140F0B5026A22F01002C5
:102500000262026A436884690D6824F4E64444EA7E
:1025100005248D6822F0200242EA05120F4D104E6C
:10252000A84201D0B04206D1CF6822F0800242EA30
:10253000071222F04002A84201D0B04207D14D69F3
:1025400023F4406343EA85038D6943EA85034360CE
:102550008461496881630262F0BD0000002C014083
:1025600000340140F0B5026A22F480720262026A0D
:102570004368C46922F4007224F073050C68124E9B
:102580002C438D6842EA05220E4DA84201D0B0428C
:1025900006D1CF6822F4006242EA072222F4806268
:1025A000A84201D0B04207D14D6923F4405343EA19
:1025B00005138D6943EA05134360C4614968C1632B
:1025C0000262F0BD002C01400034014030B5026AC7
:1025D00022F480520262046A4268C3690D6823F4DF
:1025E000E64343EA05238D6824F4005444EA0534A5
:1025F000084DA84202D0084DA84204D14D6922F4EA
:10260000804242EA85124260C36149680164046203
:1026100030BD0000002C01400034014010B5036AB9
:10262000046A24F001040462846924F0F00444EA9A
:10263000021423F00A020A438461026210BD000002
:1026400070B5046A24F0010404628469056A124EBC
:10265000B0420ED0114EB0420BD0B0F1804F08D036
:102660000F4EB04205D00F4EB04202D00E4EB042D7
:1026700003D124F00304144301E044F001041A07D9
:1026800024F0F00444EA126225F00A0301F00A0182
:1026900019438261016270BD002C01400034014089
:1026A0000004004000080040000C004010B5036A20
:1026B00023F0100303628369046A23F4704343EA3E
:1026C000023224F0A00343EA01118261016210BDCD
:1026D00030B5046A24F0100404628469056A24F4A5
:1026E000407444EA022222F470444FF6FF7202EA78
:1026F00003322243A02425F0A00304EA0111194368
:102700008261016230BD10B5406A0021C185C1847B
:10271000FFF727FA10BD0168CA6822F49072CA60F8
:1027200001684A6922F001024A61202180F83A10CA
:10273000704710B590F83A10222901D0022010BD40
:102740008168B1F5805F11D00169002901681FD04F
:10275000496801F07F03816A4A1C82620B70C18D57
:10276000491E0904090CC18518D02BE00269816A51
:10277000002A0268526805D0D2B20A80816A491CD8
:102780008162ECE7C2F308020A80816A891CF7E7DC
:102790004A68816A4B1C83620A70E0E70168CA6874
:1027A00022F02002CA600168CA6822F48072CA60FE
:1027B00001684A6922F001024A61202180F83A103A
:1027C000FFF70BFB002010BD2DE9F0410446006827
:1027D0000169E26821F44051114301612169A06857
:1027E0000843616908432168CA6841F20C639A434F
:1027F0000243CA6020684169A26921F44071114313
:1028000041614C4920686425322688423CD1FEF75C
:1028100057FB00EBC00101EB001061688900B0FBC1
:10282000F1F7FEF74DFB00EBC00101EB0010616812
:10283000B0468900B0FBF1F0B0FBF5F06FF0180185
:10284000484307EB800106EB0110B0FBF5F000F008
:10285000F006FEF735FB00EBC00101EB00106168EC
:102860008900B0FBF1F0B0FBF5F006EB0016FEF7C7
:1028700027FB00EBC00101EB001061688900B0FB91
:10288000F1F7FEF71DFB3BE0FEF70AFB00EBC00192
:1028900001EB001061688900B0FBF1F7FEF700FB67
:1028A00000EBC00101EB00106168B0468900B0FB8D
:1028B000F1F0B0FBF5F06FF01801484307EB800131
:1028C00006EB0110B0FBF5F000F0F006FEF7E8FAB9
:1028D00000EBC00101EB001061688900B0FBF1F072
:1028E000B0FBF5F006EB0016FEF7DAFA00EBC001DC
:1028F00001EB001061688900B0FBF1F7FEF7D0FA38
:1029000000EBC00101EB001061688900B0FBF1F041
:10291000B0FBF5F06FF01801484307EB800108EBBE
:102920000110B0FBF5F0216800F00F003044886022
:10293000BDE8F0810038014090F83910212901D01C
:10294000022070478168B1F5805F016A0BD04A1C94
:102950000262026809785160C18C491E0904090CA1
:10296000C1840ED017E009880268C1F308015160E4
:1029700001690029016A02D0491C0162ECE7891C47
:10298000FBE70168CA6822F08002CA600068C1687B
:1029900041F04001C160002070472DE9F0419846A8
:1029A00017460E460446069D1DE0681C1BD02DB13F
:1029B000FEF700F9A0EB0800A84214D92068C1680E
:1029C00021F4D071C1602068416921F001014161A9
:1029D000202084F8390084F83A00002084F8380078
:1029E0000320BDE8F0812068006836EA000004D0CA
:1029F0000020B842D9D00020F3E70120F9E7000019
:102A00000148FFF7AFB80000D80400200148FFF7E5
:102A1000A9B8000018050020FEE7FEE70FB4054B3B
:102A200010B503A9044A029800F0CAF810BC5DF87A
:102A300014FB0000F13200083400002002E008C856
:102A4000121F08C1002AFAD170477047002001E028
:102A500001C1121F002AFBD1704700002DE9FF5F62
:102A6000DDE90220010DDDF838B0024318D044F64C
:102A70001050A1F2FF3141430D140F98012820D0CE
:102A8000A5EB0B00401C5FEA000A4FF00004474E24
:102A9000DFF81C91A046504616D5CAF1000728E081
:102AA0000F98012443A2012808D0002100980F9B11
:102AB000C0E90021C0E90243BDE8FF9F6FEA0B01B6
:102AC000F4E7CBF10000DEE7074612E0F80707D095
:102AD0002246334640464946FDF7C6FB80468946B6
:102AE0002246334610461946FDF7BEFB04460E4605
:102AF0007F10002FEAD1DDE90201BAF1000F424652
:102B00004B4602DAFDF7B0FB01E0FDF71FFC04467F
:102B10000E460022284BFDF757FE03D84FF0FF303A
:102B2000014607E00022254B20463146FDF78CFD8B
:102B3000FDF731FE102409E0002C0ADB0A220023F5
:102B4000FDF7BDFC019B30321A55641E50EA0102AC
:102B5000F2D1641C019AC4F1110314440F9A012AA2
:102B600003D0012208430DD10AE0084304D000201D
:102B70004FF0110B0F9080E7A3EB0B056D1E0DE0DE
:102B80005B4504DD4FF0000205F1010504E003DAC6
:102B90004FF00002A5F10105002AECD000980F9932
:102BA000C0E90231C0E9004586E70000000024408A
:102BB0000000F03F300000000000F0430000E03F64
:102BC0002DE9FF4F95B09B468946064600250FE24A
:102BD000252877D100242746F84A0121059400E0F2
:102BE000044316F8013F203B01FA03F01042F7D1ED
:102BF00030782A2811D06FF02F033078A0F13002FE
:102C0000092A16D8059A44F0020402EB820203EB6B
:102C100042021044761C0590EFE759F8042B059208
:102C2000002A03DA504244F40054059044F00204B0
:102C3000761C30782E2816D116F8010F44F00404C3
:102C40002A280DD06FF02F023078A0F13003092B25
:102C500009D807EB870302EB4303C718761CF3E799
:102C600059F8047B761C30786C280FD006DC4C2891
:102C700017D068280DD06A2814D104E0742810D029
:102C80007A280FD10DE044F400140AE044F48014D3
:102C900001E044F440147278824202D104F58014B9
:102CA000761C761C307866280BD013DC582877D039
:102CB00009DC002875D04528F6D04628F4D04728EE
:102CC0001AD19DE118E0632835D0642879D06528B1
:102CD00012D195E1702873D008DC6728F1D06928FB
:102CE0006FD06E280DD06F2806D1B5E073282CD098
:102CF000752875D0782874D05A46179990476D1C5E
:102D000075E1C4F30250022809D003280DD0D9F888
:102D1000001004280DD00D6009F1040967E1D9F80D
:102D20000010EA17C1E90052F6E7D9F800100D804B
:102D3000F2E70D70F0E719F8041B8DF80010002081
:102D40008DF80100EA46012003E059F804AB4FF08A
:102D5000FF3061074FF0000102D40DE008F10101DE
:102D60008846B9420FDA8045F8DB1AF808100029C6
:102D7000F4D108E008F1010188468142FADB1AF833
:102D800008100029F6D105985B46A0EB08072146FC
:102D90003846179A00F094FA284400EB080507E03B
:102DA0004DE029E10DE01AF8010B5A4617999047BA
:102DB000B8F10108F7D25B4621463846179A13E16D
:102DC00042E00A220092C4F302524FF0000A022AA3
:102DD00008D059F804CB032A4FEAEC710AD00DE071
:102DE00029E02AE009F1070121F00702F2E802C117
:102DF000914609E00FFA8CFC4FEAEC71042A03D1EA
:102E00004FFA8CFC4FEAEC71002907DA0A460021E0
:102E1000DCF1000C61EB02012D2202E0220504D559
:102E20002B228DF80420012203E0E20701D02022AA
:102E3000F7E7904659E00A2102E010220DE0102148
:102E40004FF0000A00910BE010224FF0000A44F00E
:102E500004040827009203E008224FF0000A0092C1
:102E6000C4F30252022A05D059F804CB0021032AE8
:102E700008D009E009F1070121F00702F2E802C1D8
:102E8000914605E01FFA8CFC042A01D10CF0FF0CDE
:102E90004FF00008220728D5702806D0009B83F049
:102EA000100353EA0A0305D00EE040228DF80420F7
:102EB000012208E05CEA010206D030228DF80420ED
:102EC0008DF8050002229046009B83F0080353EA28
:102ED0000A030AD15CEA010201D1620705D530225A
:102EE0008DF804204FF001087F1E582804D034A02C
:102EF00003900EA802900DE036A0F9E75346604615
:102F0000009AFDF7DCFA84460398825C0298401E22
:102F1000029002705CEA0100F0D1029806A9081A3A
:102F200000F1200A600702D524F4803400E0012774
:102F3000574502DDA7EB0A0000E0002000EB0A0184
:102F4000009005984144401A0590E00306D45B4682
:102F50002146179A059800F0B3F90544002706E0CA
:102F600001A85A46C05D179990476D1C7F1C4745C4
:102F7000F6DBE0030CD55B462146179A059800F076
:102F80009FF9054404E030205A46179990476D1C7C
:102F90000099481E00900029F5DC08E0029802998B
:102FA0005A460078491C0291179990476D1CBAF156
:102FB0000001AAF1010AF1DC65E100000928010025
:102FC000303132333435363738396162636465669F
:102FD0000000000030313233343536373839414261
:102FE000434445460000000000F058F90544761CB3
:102FF000307800287FF4ECAD19B02846BDE8F08F9A
:10300000620700D4062709F1070222F0070CFCE84A
:103010000223E14603F000485FEA080C02D00FF2F9
:10302000702C0DE05FEA045C02D50FF2682C07E01B
:103030005FEAC47C02D00FF2602C01E0AFF2700CAA
:103040004FF0FF3823F00043CDF850C065280CD076
:1030500006DC452809D046281DD047283DD13DE053
:10306000662818D067287ED138E00021112F01DBB7
:10307000112000E0781CCDE9000106A90EA8FFF799
:10308000EDFCDDE90F010E9A03910021009207F19A
:10309000010A04914DE04FF000400097CDE9011086
:1030A00006A90EA8FFF7DAFCDDE90F0203920E9BDA
:1030B00011990022DDF80CA00093049211B9791C3B
:1030C00000EB010AB7EB0A0004D4C0F1FF3007F1AE
:1030D000010A0490AAEB0700019044E0012F00DAF6
:1030E00001270021112F01DD112000E03846CDE934
:1030F000000106A90EA8FFF7B1FCDDE90F010E9A49
:103100000391002104910092BA4621070CD403993F
:10311000514500DA8A46BAF1010F05DD009AAAF19D
:103120000101515C302908D0B84202DA10F1040FD5
:1031300006DA0121CDE9011015E0AAF10101E9E764
:10314000002805DC049901440491AAEB000102E087
:10315000411C514500DD8A460499401A401C0190EB
:103160004FF000400290200704D40198504501DB45
:10317000CDF8048000208DF84F0002980DF14F0724
:10318000B0F1004F25D02B200E9002984FF002088E
:1031900000280CDA404202902D200E9007E00A2110
:1031A0000298FDF776F93031029007F8011DB8F169
:1031B0000001A8F10108F2DC02980028EFD1791E85
:1031C0000E980870307800F0200040F0450007F8B5
:1031D000020D12A8C01B00F107081498007800B176
:1031E000012000EB0A01019801EBE07105984144D0
:1031F000401A401E0590E00306D45B462146179A0C
:10320000059800F05DF805441498007818B15A4606
:10321000179990476D1CE00324D55B462146179A09
:10322000059800F04DF805441CE00498002807DBE1
:10323000DDE90301884203DD0098405C179901E055
:10324000179930205A469047049805F10105401C13
:1032500004900198401E019004D12E205A461799DF
:1032600090476D1CBAF10001AAF1010ADDDC05E00E
:1032700017F8010B5A46179990476D1CB8F10001D9
:10328000A8F10108F4DC5B462146179A0598ABE6E5
:103290002D0000002B000000200000002DE9F0416F
:1032A000044600251E461746880404D405E0394626
:1032B0002020B0476D1C641EF9D52846BDE8F0817A
:1032C0002DE9F041044600251E469046C80301D56D
:1032D000302700E02027880404D505E04146384621
:1032E000B0476D1C641EF9D52846BDE8F08100008A
:1032F00013B54FF6FF73012269460248FEF76EFDD3
:1033000000981CBDD8040020FDF762FCFEF7EFFF1B
:10331000FEF7C4FDFEF708FEFEF742FEFEF77CFE58
:10332000FEF7C4FEFEF712FFFEF74CFFFEF778FF34
:10333000FEF79CFF012245494548FEF725FD43491C
:103340000122491C4248FEF71FFD0C214148FEF7AF
:10335000CBFB08213F48FEF7C7FB00213E48FEF7A4
:1033600002FA3D480068C168C1603C48FEF763F856
:103370003B48FEF760F83B494FF000080968C1F888
:10338000248039490968C1F82480304C0120E41EAA
:10339000607036A0FFF742FBDFF8E090A0780028CD
:1033A0004CD0E069FDF741F83549FCF7EDFE354EAC
:1033B0003146FCF71BFF05462061206AFDF735F812
:1033C0003149FCF7E1FE3146FCF710FF074660612A
:1033D0002846FDF72FF805460E463846FDF72AF831
:1033E00000222A4BFCF740FF2A463346FCF7AEFF8B
:1033F000FDF733F8A0612A46334625A0FFF70EFB00
:103400006069FDF717F802460B4624A0FFF706FB9C
:10341000A069FDF70FF802460B4623A0FFF7FEFA5E
:10342000C4F81C80C4F8208084F802802078002131
:1034300040F0800020700848FEF795F920214846AA
:10344000FDF7AEFBC820FDF7A5FAA7E703000020B3
:10345000D8040020D80300201804002058040020BD
:1034600098040020580300209803002053797374B7
:10347000656D206973204F6B210A0000000C01402C
:10348000000028430000C842000090420070B7408E
:1034900054494D313A252E32660D0A0054494D32B9
:1034A0003A252E32660D0A00465245513A252E32F3
:1034B000664B485A0D0A00000000000000000000A2
:1034C00001020304060708090000000001020304CA
:1034D000F034000800000020380000003C2A0008FA
:1034E0002835000838000020200900004C2A000878
:1034F000800000000000000000000000000000004C
:1035000000000000000000000000000000000000BB
:10351000000000000100000010000000000000009A
:0835200000A24A0400000000B3
:0400000508000131BD
:00000001FF
