:020000040800F2
:10000000B80B0020450100088B2200081D1E0008C7
:100010008922000823060008F529000800000000D6
:10002000000000000000000000000000AF220008F7
:100030002506000800000000AD220008B1220008DB
:100040005F0100085F0100085F0100085F01000810
:100050005F0100085F0100085F0100085F01000800
:100060005F0100085F0100085F0100085F010008F0
:100070005F0100085F0100085F0100085F010008E0
:100080005F0100085F0100085F0100085F010008D0
:100090005F0100085F0100085F0100085F010008C0
:1000A0005F0100085F0100085F0100085F010008B0
:1000B0005F010008712300087D2300085F0100082C
:1000C0005F0100085F0100085F0100085F01000890
:1000D0005F010008D1290008DD290008E92900088E
:1000E0005F0100085F0100085F0100085F01000870
:1000F0005F0100085F0100085F0100085F01000860
:100100005F0100085F010008892300085F01000803
:100110005F0100085F010008952300085F010008E7
:100120005F0100085F0100085F0100085F0100082F
:10013000DFF80CD000F054FA00480047612A0008AC
:10014000B80B00200648804706480047FEE7FEE758
:10015000FEE7FEE7FEE7FEE7FEE7FEE7FEE7FEE777
:100160002923000831010008202A04DB203A21FA63
:1001700002F00021704721FA02F3D040C2F12002C0
:100180009140084319467047D2B201E000F8012BB4
:10019000491EFBD270470022F6E710B513460A4607
:1001A00004461946FFF7F0FF204610BD80EA010221
:1001B00010B502F00043400022D04A001FD0010ECB
:1001C00001EB1261C0F35600C2F3560240F4000086
:1001D00042F40002A0FB022000047F39140400D086
:1001E000401C50EA124001D44000491EC2B20C0625
:1001F00004EBD010401C4008802A02D003E000200D
:1002000010BD20F00100002900DA0020184310BDC5
:1002100030B480EA010202F0004530F0004221F0E3
:10022000004013D090B1C30DD40DC2F31601C0F33A
:100230001600E41A41F4000140F400027D349142BA
:1002400001D3641C00E04900002C02DA30BC00201D
:1002500070474FF400000023914201D3891A0343F1
:1002600040084FEA4101F7D151B1914202D14FF01C
:10027000004105E002D24FF0010101E06FF0010101
:1002800003EBC450284430BC00F015B92DE9FE4FF3
:1002900081EA030404F0004421F0004100944FF08F
:1002A000000B23F0004350EA01045ED052EA03043D
:1002B0005BD0C3F30A54C1F30A552C44A4F2F334BF
:1002C0000194A0FB0254C1F3130141F48011C3F364
:1002D000130343F4801301FB024400FB034E840A22
:1002E000970A44EA815447EA8357A4FB07680295BA
:1002F0008D0A05FB07854FEA932C04FB0C54270558
:10030000029D4FEA065847EA1637B5EB08056EEB33
:10031000070C870E920E47EA811742EA8312A7FB69
:100320000201B6EB0B0164EB00042B0D43EA0C3326
:100330005E1844EB1C50DA465146E7FB0201C5F358
:1003400013044FEA0B3343EA14534FEA0432019C7F
:1003500043EA0603A4F10C040294009CCDE900B426
:1003600000F0EFF803B0BDE8F08F00200146F9E798
:100370002DE9F04D81EA030404F0004B21F0004523
:1003800014464FF0000A23F0004150EA050220D045
:1003900054EA01021DD0C5F30A570246C5F3130300
:1003A000C1F31300C1F30A5640F4801543F48013DF
:1003B000A7EB0608101BD64608F2FD3873EB0500C4
:1003C00002D308F1010801E092185B41B8F1000F77
:1003D00003DA00200146BDE8F08D00204FF48011C3
:1003E000064684460EE0171B73EB050705D3121B68
:1003F00063EB050306434CEA010C49084FEA300061
:1004000092185B4150EA0107EDD152EA030012D085
:1004100082EA040083EA0501084305D0101BAB41C2
:1004200006D20122002306E000224FF0004302E042
:100430006FF0010253101AEB06004CEB085110EB61
:100440000A0041EB0B01BDE8F04D00F06BB89623BC
:100450000022114600F038B800F0004230F00040B1
:100460000AD0C10D01F56071C0F3160042EA0151D6
:10047000C20840071143704700200146704701F051
:10048000004330B421F0004150EA010206D00A0DC9
:10049000A2F56072C1F31301002A02DC30BC002017
:1004A0007047440F44EAC104C100E01830BC00EBBF
:1004B000C250AFF300800029A8BF7047401C49001C
:1004C00008BF20F00100704710B4B0FA80FC00FAB9
:1004D0000CF050EA010404BF10BC704749B1CCF1E4
:1004E000200421FA04F411FA0CF118BF0121214370
:1004F0000843A3EB0C01CB1D4FEA00614FEA10202B
:1005000042BF002010BC704700EBC35010440029CC
:10051000A4BF10BC7047401C490008BF20F0010078
:1005200010BC704710B5141E73F1000408DA401CAB
:1005300041F1000192185B411A4301D120F0010002
:1005400010BD2DE9F04D92469B4611B1B1FA81F2F2
:1005500002E0B0FA80F22032904600F053F80446F0
:100560000F4640EA0A0041EA0B0153465A46084347
:1005700013D0114653EA010019D0C8F14002504689
:10058000FFF7F2FD05460E4650465946424600F03A
:1005900039F8084305D0012004E020463946BDE87B
:1005A000F08D0020054346EAE0762C4337430A9855
:1005B0006305E40AA0EB08000022FD0A44EA475460
:1005C0000A3002D500200146E9E70105101969410A
:1005D000DDE9084500196941BDE8F04DA2E70000DA
:1005E000064C074D06E0E06840F0010394E8070080
:1005F00098471034AC42F6D3FFF79EFDEC2B000871
:100600000C2C0008202A04DB203A00FA02F100201A
:1006100070479140C2F1200320FA03F31943904040
:100620007047FEE7704700002DE9F05F90F8211059
:100630000024022903D004218163012485E001689C
:100640000A6822F00E020A6001680A6822F00102BC
:100650000A603F4E3E4FB215DFF8F4C0DFF8F0906D
:10066000DFF8ECA0DFF8E8B0DFF8E4E00168783FFD
:1006700013011502ACF1640CA9F15009AAF13C0A6E
:10068000ABF1280BAEF1140E4FF48018B14227D90C
:10069000B9420ED0614512D049451DD0514518D000
:1006A000594518D0714501D1424615E0294EB14255
:1006B00001D1012210E0274E1436B14201D110229F
:1006C0000AE0244E2836B14206D0224A3C329142FA
:1006D00001D11A4600E02A461E49091F0A602BE094
:1006E000B94213D0614517D0494522D051451DD09C
:1006F00059451DD0714501D142461AE0B14202D19F
:100700004FF0807215E0134EB14201D1012210E08A
:10071000104E1436B14201D110220AE00D4E283697
:10072000B14206D00B4A3C32914201D11A4600E058
:100730002A46074980394A60012180F821100021AA
:1007400080F82010416B01B188472046BDE8F09F3A
:10075000800002400804024070B5044600F00CF925
:100760000546601C02D004480078044400F004F9F7
:10077000401BA042FAD370BD400000202DE9F84F85
:10078000DFF8B8A100220AF1040B144601274FF04C
:100790000F090BF1040E00BF0B6807FA04F52B409C
:1007A000AB4274D1DFF898C14E68A6EB0C086645E1
:1007B0002BD00DDC032E34D005DC36B3012E19D03E
:1007C000022E2FD11BE0112E16D0122E2AD119E0A5
:1007D000B8F5881F19D006DCB8F5803F15D0B8F5FC
:1007E000801F1FD111E0B8F5001F0ED0B8F5041F0F
:1007F00018D10AE0CA6815E0CA68121D12E0CA687A
:1008000008320FE0CA680C320CE08A682AB1012A6B
:100810004FF0080203D0456104E0042202E00561C4
:1008200000E00022FF2B01D8064601E000F104069B
:100830004FEA840501D9A5F12005D6F800C009FAD0
:1008400005F82CEA080C02FA05F54CEA050CC6F886
:1008500000C04D68ED006AD53A4DAE6946F001061C
:10086000AE61AD6924F0030605F001050095364D33
:1008700006EB050CDCF80850A6074FEA167809FAD3
:1008800008F6B543314EB04202D100261AE04EE0E0
:100890002F4EB04201D1012614E02E4EB04201D1BC
:1008A00002260FE02C4EB04201D103260AE02B4E67
:1008B000B04201D1042605E0294EB04201D10526FF
:1008C00000E0062606FA08F62E43CCF808604D68CC
:1008D000DAF80060ED03554601D51E4300E09E4363
:1008E0002E604D68AD0305D5DBF800601E43CBF8E4
:1008F000006004E0DBF800509D43CBF800504D68E9
:10090000DEF80060ED02754601D51E4300E09E430F
:100910002E604D68AD0205D5084D0C352E681E437E
:100920002E6004E0054E0C3635689D433560641C2E
:10093000102CFFF431AFBDE8F88F00000004014037
:1009400000001110001002400000014000080140AA
:10095000000C01400010014000140140001801404B
:10096000001C0140C2684A40C26070470AB1016180
:1009700070470904FBE700000148806870470000E9
:10098000400000200248816802781144816070476D
:1009900040000020074810B5016841F010010160D7
:1009A000032000F09DF8002000F006F800F024F885
:1009B000002010BD0020024070B50D4D04464FF4DC
:1009C0007A712878B1FBF0F00A490968B1FBF0F0C0
:1009D00000F02DFB48B9102C07D200222146501EF2
:1009E00000F05EF800206C6070BD012070BD00005A
:1009F000400000204C000020214808B5816941F0EA
:100A000001018161816901F001010091C16941F039
:100A10008051C161C06900F080500090032000F057
:100A20005FF8002211466FF00B0000F039F8002249
:100A300011466FF00A0000F033F8002211466FF003
:100A4000090000F02DF800221146501F00F028F890
:100A500000221146101F00F023F800221146901EBC
:100A600000F01EF800221146501E00F019F805484B
:100A7000416821F0E06141F08061416008BD000003
:100A8000001002400000014000F01F0201219140CF
:100A90004009800000F1E020C0F80011704700001C
:100AA000F0B40E4B1B680C46C3F30223C3F10705D9
:100AB000042D00D90425191D072901D2002300E0C7
:100AC000DB1E012606FA05F1491E214099409E4091
:100AD000761E16403143F0BC01F0D8BB0CED00E0AF
:100AE000064900F0070208684FF6FF03184040EA85
:100AF0000220034A10430860704700000CED00E03C
:100B00000000FA052DE9F047DFF83C8105460E4666
:100B1000D8F8000000F00700B0420CD2D8F800105E
:100B200021F007013143C8F80010D8F8000000F0A8
:100B30000700B04263D12878444C800705D560682F
:100B4000A96820F0F000084360602878C00745D00D
:100B50006868012816D02168022816D08907002964
:100B60004DDA616821F0030101436160FFF704FF82
:100B70006968074641F2883001290FD00229814671
:100B800019D027E021688903E9E78901E7E700BF79
:100B9000FFF7F2FEC11B494501D918E081466068A4
:100BA000C0F381000128F3D118E000BFFFF7E4FE95
:100BB000C11B49450BD86068C0F381000228F5D1FC
:100BC0000CE000BFFFF7D8FEC11B494502D9032046
:100BD000BDE8F087606810F00C0FF3D1D8F8001072
:100BE000404601F00701B1420BD9016821F007012D
:100BF00031430160006800F00700B04201D00120DD
:100C0000E6E72878400705D56068E96820F4E060E9
:100C1000084360602878000706D56068296920F4D9
:100C2000605040EAC100606000F03CF86168084A2A
:100C3000C1F30311515CC840064908600020FFF76A
:100C4000BBFE0020C4E7000000200240001002406C
:100C5000D42B00084C0000200148006870470000B9
:100C60004C0000200448054900684968044AC1F363
:100C70000221515CC84070474C0000200010024027
:100C8000E42B00080448054900684968044AC1F398
:100C9000C221515CC84070474C0000200010024047
:100CA000E42B000812A185B00FC98DE80F0014A035
:100CB000144A006804905168134801F00C03042B97
:100CC00010D0082B0ED1C1F38343C9031DF80300D4
:100CD0000AD5516804AAC1F34041515C0A4A504305
:100CE000B0FBF1F005B0704708494843FAE700004F
:100CF00002030405060708090A0B0C0D0E0F10105D
:100D0000010200000010024000127A0000093D00BC
:100D10002DE9F84F04460078B94DC00748D06868FF
:100D2000C0F38100012807D06868C0F38100022861
:100D300009D16868C00306D52868800338D5606883
:100D400000286FD034E06068B0F5803F0BD010B160
:100D5000B0F5A02F11D0286820F4803028602868D2
:100D600020F4802002E0286840F480302860606829
:100D700088B1FFF701FE064609E0286840F48020AC
:100D80002860F0E7FFF7F8FD801B642875D8286815
:100D90008003F7D50CE0FFF7EFFD064605E000BF46
:100DA000FFF7EAFD801B6428F0D828688003F7D499
:100DB0002078944E80074FF001094FF000083BD592
:100DC000686810F00C0F07D06868C0F38100022833
:100DD00009D16868C00306D42868800714D5206943
:100DE00001281FD110E02069B0B1C6F80090FFF7CC
:100DF000C3FD074605E000BFFFF7BEFDC01B02288C
:100E0000C4D828688007F7D52868616920F0F80001
:100E100040EAC10028600FE0C6F80080FFF7ACFD93
:100E2000074606E0E9E000BFFFF7A6FDC01B022869
:100E300023D828688007F7D4207800072CD572487B
:100E4000A169D9B1C0F80090FFF796FD074604E00C
:100E5000FFF792FDC01B02280FD8686A8007F7D5FC
:100E60006A484FF4FA510068B0FBF1F0009000BFFF
:100E70000098411E0091FAD20EE080E0C0F8008098
:100E8000FFF77AFD074604E0FFF776FDC01B022856
:100E900075D8686A8007F7D42078400760D5E8697C
:100EA0000027C00008D4E86940F08050E861E86994
:100EB000012700F08050009055480168C90513D4FF
:100EC0000168834641F480710160FFF755FD824659
:100ED00006E000BFFFF750FDA0EB0A0064284ED8E3
:100EE000DBF80000C005F5D5E06801280AD008B19C
:100EF000052813D0286A20F001002862286A20F013
:100F0000040002E0286A40F001002862E06841F233
:100F1000883B98B1FFF730FD82460BE0286A40F02D
:100F200004002862EEE700BFFFF726FDA0EB0A01F0
:100F300059455AD8286A8007F6D50CE0FFF71CFD02
:100F4000824605E0FFF718FDA0EB0A0159454CD891
:100F5000286A8007F6D41FB1E86920F08050E86164
:100F6000E06988B36968C1F38101022945D002288C
:100F7000C6F8608004D0FFF7FFFC044638E034E098
:100F8000FFF7FAFC074604E0FFF7F6FCC01B022857
:100F90002BD828688001F7D4206AB0F5803F05D1AE
:100FA0006868A16820F4003008436860D4E908014B
:100FB0000843696821F4741108436860C6F86090BA
:100FC000FFF7DAFC044606E015E000BFFFF7D4FCAB
:100FD000001B022809D828688001F7D50BE000BF64
:100FE000FFF7CAFC001B022802D90320BDE8F88FD6
:100FF00028688001F4D40020F8E70120F6E700001B
:101000000010024000004242800442424C00002096
:10101000007000404FF0E0210428086903D020F060
:1010200004000861704740F00400FAE7704710B50B
:10103000401EB0F1807F01D3012010BD4FF0E024AD
:1010400060610F21601701F021F90020A0610720E5
:101050002061002010BD10B5FFF7E8FF10BD7047FC
:10106000704730B590F83C20012A20D0012280F84A
:101070003C20022380F83D3003685C6824F0700453
:101080005C6003685C680D682C435C6003689C6866
:1010900024F080049C6003689C6849680C439C6051
:1010A00080F83D20002180F83C10084630BD022029
:1010B00030BD10B5040003D094F83D0010B107E036
:1010C000012010BD002084F83C00204600F00CF800
:1010D000022084F83D00211D206801F061F9012003
:1010E00084F83D00002010BD00B53649026836483E
:1010F00085B08A4209D1816941F4006181618069CA
:1011000000F40060049005B000BD0021B2F1804FF2
:1011100019D02E4B9A4227D1C26942F00402C26113
:10112000C069029100F0040004904020CDE9000164
:1011300069462748FFF722FB002211461E20FFF7D1
:10114000AFFC1E2029E0C26942F00102C261C06901
:10115000029100F0010004900120CDE900016946F0
:101160001C48FFF70BFBCEE71B498A4218D1C16927
:1011700041F00801C161C069002200F0080004903C
:1011800011463220FFF78CFC3220FFF77DFC002255
:1011900011463220FFF784FC3220FFF775FCB2E7DE
:1011A0000E498A42AFD1C16941F01001C161C069E5
:1011B000002200F01000049011463620FFF770FC6A
:1011C0003620EAE7002C01400010024000080040F1
:1011D000000C014000080140000C004000100040DD
:1011E000022180F83D1001680A6842F001020A609D
:1011F000012180F83D10002070470168CA6842F064
:101200000102CA600068016841F00101016000202C
:101210007047022180F83D1001680A6A41F21113FB
:101220001A4207D10A6A9B101A4203D10A6822F0B7
:1012300001020A60012180F83D100020704770B55E
:10124000044690F83C00012817D0012584F83C5052
:10125000022084F83D002068826822F0770222F4A0
:101260007F4282600868502837D00DDC202859D092
:1012700005DC88B3102841D151E0022070BD302830
:1012800053D040283AD13FE060282ED070280BD0B0
:10129000B0F5805F03D0B0F5005F2FD110E020687B
:1012A000816821F0070115E0CB68D1E901212068B0
:1012B00001F0C7F82168886840F0770088601DE079
:1012C000CB68D1E90121206801F0BBF82068816872
:1012D00041F48041816011E01EE0CA6849682068DD
:1012E00001F084F95021206806E0CA684968206846
:1012F00001F0C4F96021206801F0ADF884F83D5098
:10130000002084F83C0070BDCA684968206801F07C
:101310006DF940212068EFE700212068ECE71021FB
:101320002068E9E720212068E6E730212068E3E72C
:101330002DE9F041224C607878BB207840063CD5FE
:10134000204E802020703068416A1F4AA0791F4FCC
:1013500042F820103A68526A1D4B002543F82020BD
:10136000E369401C1944E161216AC0B21144216261
:10137000A071642807D1A5710120A07025700021FB
:10138000144800F0F8F80F48FFF743FF0F48FFF745
:1013900040FF3068456238684562607801280CD1AA
:1013A0002078000609D5402020700648FFF718FF76
:1013B000BDE8F0410548FFF713BFBDE8F08100002C
:1013C000040000207405002054020020B405002011
:1013D000E4030020340600202DE9F041044690F893
:1013E0003C000D4601283BD0012684F83C600220D9
:1013F00084F83D009AB3042A44D02068082A53D0C8
:10140000D5E90027E968036A23F480530362D0F822
:101410001CC0036A2CF4407C4CEA07274FF6FF7C83
:1014200027F470470CEA01313943770323F4005362
:1014300007EA02321A43C16102622068C16921F4DD
:101440004061C1612068C169AA6841EA0221C161A5
:1014500084F83D60002084F83C00BDE8F08101E0A4
:101460000220FAE7D5E90012EB68206801F0D0F815
:101470002068816921F00C01816120688169AA6876
:1014800011430FE0D5E90012EB68206801F008F97C
:101490002068816921F44061816120688169AA68BE
:1014A00041EA02218161D3E7D5E9002C2F7B016A53
:1014B00021F480710162C169036A21F0030141EAEC
:1014C0000C0121F0F00C39074FF420674CEA116150
:1014D00023F4206307EA02221A43C16102622068F2
:1014E000C16921F00C01C1612068C169AA6811437A
:1014F000ADE710B5040003D094F83D0010B107E04B
:10150000012010BD002084F83C00204600F00CF8BB
:10151000022084F83D00211D206800F041FF0120D9
:1015200084F83D00002010BD704710B502680446E5
:1015300031B1042908D0082915D00C2908D116E0AA
:10154000D06840F0020002E0D06840F00400D060B3
:101550000122206800F06AFF2068016841F0010163
:101560000160002010BDD06840F00800EFE7D068AF
:1015700040F01000EBE710B50268044631B10429D1
:1015800008D008291ED00C2908D11FE0D06820F00F
:10159000020002E0D06820F00400D0600022206841
:1015A00000F044FF2068016A41F21112114207D194
:1015B000016A9210114203D1016821F0010101601A
:1015C000002010BDD06820F00800E6E7D06820F0C9
:1015D0001000E2E770B50446006801694FF00005AD
:1015E000C943890715D4C168C943890711D4E91EC5
:1015F000016101202077206880698007204602D0A1
:10160000FFF796FE04E000F0ADF8204600F04CF93C
:10161000257720680169C943490717D4C168C943C0
:10162000490713D46FF0040101610220207720687C
:10163000806910F4407F204602D0FFF779FE04E075
:1016400000F090F8204600F02FF925772068016916
:10165000C943090716D4C168C943090712D46FF0FA
:1016600008010161042020772068C06980072046B6
:1016700002D0FFF75DFE04E000F074F8204600F0B1
:1016800013F9257720680169C943C90617D4C168D1
:10169000C943C90613D46FF01001016108202077F7
:1016A0002068C06910F4407F204602D0FFF740FE5A
:1016B00004E000F057F8204600F0F6F8257720689F
:1016C0000169C943C90708D1C168C943C90704D121
:1016D000891E0161204600F005F920680169C943AF
:1016E000090609D4C168C943090605D46FF0800111
:1016F00001612046FFF7B3FC20680169C943490630
:1017000009D4C168C943490605D46FF0400101619D
:10171000204600F007F920680169C94389060BD407
:10172000C168C943890607D46FF0200101612046D2
:10173000BDE87040FFF794BC70BD00001FB50068A5
:101740000649884208D103200090022001900390AE
:1017500069460348FFF712F81FBD0000000400406F
:10176000000C0140704770B5044690F83C000D46EF
:1017700001280DD0012684F83C60022084F83D0049
:1017800042B1042A18D0082A2AD00C2A4DD139E0B7
:10179000022070BD206800F067FE2068816941F07A
:1017A000080181612068816921F00401816120685C
:1017B00081692A69114311E0206800F085FE2068E4
:1017C000816941F4006181612068816921F480614F
:1017D0008161206881692A6941EA0221816124E0EE
:1017E000206800F0A7FE2068C16941F00801C161CE
:1017F0002068C16921F00401C1612068C1692A69BA
:10180000114311E0206800F0C9FE2068C16941F46D
:101810000061C1612068C16921F48061C1612068F3
:10182000C1692A6941EA0221C16184F83D60002052
:1018300084F83C0070BD10B5040003D094F83D005E
:1018400010B107E0012010BD002084F83C002046C4
:1018500000F00CF8022084F83D00211D206800F003
:101860009FFD012084F83D00002010BD08B50068F0
:101870000B49884212D10B48C16941F00201C16194
:10188000C069002200F00200009011461D20FFF701
:1018900007F9BDE808401D20FFF7F6B808BD0000B5
:1018A00000040040001002407047000010B50446DC
:1018B0000068012200F0BAFD08492068884202D081
:1018C0000749884203D1416C41F4004141642068DA
:1018D000016841F001010160002010BD002C0140B1
:1018E000003401400C4B016800220C48994205D19C
:1018F00043780BB1427001E001234370084B9942D9
:1019000009D18168491C8160B1F57A7F03D1C16832
:10191000491CC0E902217047000C0040040000206F
:10192000001000407047704770B5026804461068A8
:10193000D168536910F00F0F51D003F0010501F485
:10194000907635435DD0C20705D0CA0503D5E26B5A
:1019500042F00102E263420705D5DA0703D0E26BE9
:1019600042F00202E263820705D5DA0703D0E26B98
:1019700042F00402E263020705D5DA0703D0E26B06
:1019800042F00802E263E26B002A34D0800604D5FC
:10199000880602D5204600F0B4FE20684069E16B5D
:1019A000C0F3801001F008010143204624D000F06C
:1019B0009AFE2068416949061AD5416921F0400123
:1019C0004161606BA0B11B494163606BFEF72CFE67
:1019D000002810D0606B416BBDE87040084783065B
:1019E0000FD58B060DD52046BDE8704000F089BEAE
:1019F0002046FFF798FF70BDFFF795FF0020E063DA
:101A000070BD030606D50B0604D52046BDE8704020
:101A100000F07ABF4006F3D54806F1D5D1682046DC
:101A200021F04001D160202184F8391000F0F5F94F
:101A300070BD0000D726000870B5040004D094F8EB
:101A40003900002510B106E0012070BD84F838503F
:101A5000204600F023F8242084F839002068C1686B
:101A600021F40051C160204600F096FE2068016913
:101A700021F4904101612068416921F02A0141610E
:101A80002068C16841F40051C160E563202084F8FA
:101A9000390084F83A00002070BD0000F0B50368FA
:101AA000374F0220002437490322374D460285B0C4
:101AB000BB421DD18B6943F480438B6189690392DA
:101AC00001F4804104910102CDE9001069462846E5
:101AD000FEF754FECDE90064694628460294FEF7FD
:101AE0004DFE002211462520FEF7DAFF252020E0DA
:101AF000264FBB4221D1CB6943F40033CB61C96986
:101B0000039201F4003104910421CDE900106946EB
:101B10002846FEF733FE0820CDE900046946284632
:101B20000294FEF72BFE002211462620FEF7B8FF96
:101B30002620FEF7A9FF05B0F0BD154DAB42FAD146
:101B4000CB6943F48023CB61C969124D01F4802134
:101B5000CDE90321CDE9006069462846FEF70EFE77
:101B6000E814CDE90004694628460294FEF706FE13
:101B7000002211462720FEF793FF2720D9E7000017
:101B800000380140001002400008014000440040BD
:101B900000480040000C014090F83A30202B22D140
:101BA000F9B1F2B190F83830012B1CD081628285F6
:101BB000C2850021C163222280F83A2080F83810C3
:101BC0000168CA6842F48072CA6001684A6942F0DA
:101BD00001024A610068C16841F02001C160002033
:101BE0007047012070470220704700002DE9F04740
:101BF0004848C18CC18D90F8391090F83A10C06BEC
:101C000044484038C18CC18D90F8391090F83A1092
:101C1000C06B41A000F0F0FE424C0025424E2078FF
:101C20004FF480794FF6FF78FF280CD32570494692
:101C30003E48FEF7B0FA374843461422B11C4038FC
:101C400000F08EF825E03A49384F09783954401CA5
:101C5000C0B22070395C662900D13070384410F869
:101C6000010CFE2815D12CA000F0C6FE3078385C9F
:101C7000662802D12FA000F0BFFE264843462278F6
:101C80002A49403800F06CF8257049462748FEF78D
:101C900082FA2048012226494038FFF77DFF294C6F
:101CA0002078FF280CD3257049462748FEF773FAA1
:101CB0001D4943461422891C164800F051F821E0C2
:101CC00022490A7820490A54401CC0B220700A5C9C
:101CD000662A00D17070084410F8010CFE2811D15A
:101CE0007078085C662802D119A000F085FE434692
:101CF00022781549074800F033F825704946124804
:101D0000FEF749FABDE8F047012210490148FFF704
:101D100043BF0000740700200D0A353435353535D2
:101D200035350A0000000020280000205400002063
:101D3000080000200D0ACED2CAC7B4AEBFDAD2BBAB
:101D400036360A000100002054010020090000205E
:101D50000D0ACED2CAC7B4AEBFDAC8FD36360A0005
:101D60002DE9F843044690F839001F4616460D4603
:101D7000202850D1A5B19EB194F8380001284AD04E
:101D8000012084F838004FF00008C4F83C8021207E
:101D900084F83900FEF7F0FDA6848146E68426E04B
:101DA0000120BDE8F883E08C401EE084A0684B462B
:101DB000B0F5805F4FF000024FF0800120460097A1
:101DC00003D000F0D2FDE8B90DE000F0CEFDC8B9B7
:101DD00028882168C0F308004860206908B16D1C9C
:101DE00005E0AD1C03E0216815F8010B4860E08CAC
:101DF0000028D8D14B46002240212046009700F011
:101E0000B4FD08B10320CCE7202084F8390084F821
:101E100038800020C5E70220C3E77047FEE70000D6
:101E20002DE9F0411E4886B0816941F04001816191
:101E3000816901F040010491816941F004018161EF
:101E4000816901F004010491816941F00801816117
:101E50008069144F00F008000490012220213846C8
:101E6000FEF784FDDFF84080012220214046FEF786
:101E70007DFD012420250326CDE90054CDE902464D
:101E800069463846FEF77AFCCDE90054CDE90246B2
:101E900069464046FEF772FC06B0BDE8F0810000DE
:101EA0000010024000180140000C014010B5184815
:101EB00086B0164901601B210024C0E901144FF6C9
:101EC000FF71C0E9031444618461FFF7F2F818B1AF
:101ED000472110A000F08FFD4FF48050009069461C
:101EE0000B48FFF7ACF918B14D210AA000F083FDB3
:101EF000049404A906480594FFF7B3F8002803D01A
:101F0000542104A000F077FD06B010BD002C014064
:101F1000740500202E2E2F5372632F74696D2E636B
:101F20000000000010B5184886B04FF08041002432
:101F3000C0E900144FF6FF71C0E9024104618461F9
:101F4000FFF7B7F818B1662110A000F054FD4FF468
:101F50000050CDE90004029469460B480394FFF752
:101F60006EF918B16F2109A000F045FD049404A991
:101F700005480594FFF775F8002803D0762103A0E3
:101F800000F039FD06B010BDB40500202E2E2F53F1
:101F900072632F74696D2E630000000010B51F4836
:101FA0008AB01D49016047210024C0E90114632162
:101FB000C0E903148461FFF73EFC18B1882118A022
:101FC00000F019FD079407A914480894FFF749F891
:101FD00018B18F2112A000F00EFD6020009031207A
:101FE000CDE90104082269460C480494FFF7BBFBC5
:101FF00018B198210AA000F0FEFC0C22694607489F
:10200000FFF7B1FB18B19D2105A000F0F4FC0348D7
:10201000FFF794FB0AB010BD00040040F405002057
:102020002E2E2F5372632F74696D2E6300000000F3
:1020300010B522488AB02049016053210024C0E92C
:102040000114C46004618461FFF733F818B1B22150
:102050001BA000F0D0FC4FF48050049004A9174856
:10206000FFF7EDF818B1B82115A000F0C4FC134833
:10207000FFF73FFA18B1BD2111A000F0BCFC089495
:1020800008A90E480994FEF7ECFF18B1C4210CA072
:1020900000F0B1FC0120CDE9004002940022694625
:1020A00006480394FFF798F9002803D0CD2104A037
:1020B00000F0A1FC0AB010BD00080040340600206A
:1020C0002E2E2F5372632F74696D2E630000000053
:1020D00010B5184886B01649016040F24731002417
:1020E000C0E901146321C0E903148461FEF7E1FF34
:1020F00018B1DF2110A000F07EFC4FF4805000905A
:1021000069460C48FFF79BF818B1E5210AA000F0DA
:1021100072FC049404A907480594FEF7A2FF002866
:1021200003D0EC2104A000F066FC06B010BD000056
:10213000000C0040740600202E2E2F5372632F7463
:10214000696D2E63000000001CB511480F49002482
:1021500001604721C0E9011440F2E7318461C160A8
:10216000FEF7A7FF18B1FC210AA000F044FC009480
:10217000694607480194FEF774FF002804D040F236
:10218000031104A000F037FC1CBD0000001000404B
:10219000B40600202E2E2F5372632F74696D2E63A8
:1021A000000000000D4810B50B4901604FF4E1310B
:1021B0004160002181600C22C160C0E9041281618C
:1021C000C161FFF739FC002805D0BDE8104044216B
:1021D00003A000F010BC10BD00380140F406002040
:1021E0002E2E2F5372632F75736172742E6300004D
:1021F0000D4810B50B4901604FF4E13141600021F9
:1022000081600C22C160C0E904128161C161FFF7E5
:1022100013FC002805D0BDE81040572103A000F0B2
:10222000EABB10BD00440040340700202E2E2F537F
:1022300072632F75736172742E6300000D4810B5C0
:102240000B4901604FF4E1314160002181600C22B3
:10225000C160C0E904128161C161FFF7EDFB002894
:1022600005D0BDE810406A2103A000F0C4BB10BD3A
:1022700000480040740700202E2E2F5372632F75E4
:10228000736172742E630000FEE770470907090E40
:10229000002806DA00F00F0000F1E02080F8141D9D
:1022A000704700F1E02080F80014704770477047D5
:1022B00010B5FEF767FBBDE81040FEF7CCBE30B5A9
:1022C0008FB001210804CDE90010002402940225FA
:1022D0000491CDE907504FF4E01009906846FEF7ED
:1022E00017FD00B1FEE70F20CDE90A054FF480602D
:1022F000CDE90C4002210AA80E94FEF703FC00B1C0
:10230000FEE7FEF7A9FC4FF47A71B0FBF1F0FEF79F
:102310008EFE0420FEF77EFE00221146501EFEF7C0
:10232000BFFB0FB030BD00000D48016841F0010156
:10233000016041680B4A1140416001680A4A11403E
:102340000160016821F480210160416821F4FE01EF
:1023500041604FF41F0181600449C0030860704769
:10236000001002400000FFF8FFFFF6FE08ED00E05D
:102370000148FFF72FB90000F40500200148FFF7DE
:1023800029B90000340600200148FFF723B90000F6
:10239000740600200148FFF71DB90000B4060020B4
:1023A000F0B502681C4B1D4D1D4E1E4F1E4C4FF0CC
:1023B000804C984209D0A04207D0604505D0A84281
:1023C00003D0B04201D0B84204D122F0700E4A6866
:1023D00042EA0E02984209D0A04207D0604505D0DB
:1023E000A84203D0B04201D0B84203D122F44075D4
:1023F000CA682A4322F080054A692A4302608A6833
:10240000C2620A688262984201D0A04201D1096981
:10241000016301214161F0BD002C01400004004036
:1024200000080040000C00400034014010B50123BA
:10243000046A8B409C430462036A8A40134303622C
:1024400010BD10B5846842EA032224F47F440A4395
:102450002243826010BD826822F070020A4342F07B
:102460000701816070470000F0B5026A22F00102A6
:102470000262036A42688469124E24F073050C6894
:102480002C4323F002058B682B430D4DA84201D04D
:10249000B04205D123F00807CB683B4323F0040387
:1024A000A84201D0B04205D14D6922F440721543D3
:1024B0008A692A4342608461496841630362F0BDCE
:1024C000002C014000340140F0B5026A22F01002F5
:1024D0000262026A436884690D6824F4E64444EAAF
:1024E00005248D6822F0200242EA05120F4D104E9D
:1024F000A84201D0B04206D1CF6822F0800242EA61
:10250000071222F04002A84201D0B04207D14D6923
:1025100023F4406343EA85038D6943EA85034360FE
:102520008461496881630262F0BD0000002C0140B3
:1025300000340140F0B5026A22F480720262026A3D
:102540004368C46922F4007224F073050C68124ECB
:102550002C438D6842EA05220E4DA84201D0B042BC
:1025600006D1CF6822F4006242EA072222F4806298
:10257000A84201D0B04207D14D6923F4405343EA49
:1025800005138D6943EA05134360C4614968C1635B
:102590000262F0BD002C01400034014030B5026AF7
:1025A00022F480520262046A4268C3690D6823F40F
:1025B000E64343EA05238D6824F4005444EA0534D5
:1025C000084DA84202D0084DA84204D14D6922F41A
:1025D000804242EA85124260C36149680164046234
:1025E00030BD0000002C01400034014010B5036AEA
:1025F000046A24F001040462846924F0F00444EACB
:10260000021423F00A020A438461026210BD000032
:1026100070B5046A24F0010404628469056A124EEC
:10262000B0420ED0114EB0420BD0B0F1804F08D066
:102630000F4EB04205D00F4EB04202D00E4EB04207
:1026400003D124F00304144301E044F001041A0709
:1026500024F0F00444EA126225F00A0301F00A01B2
:1026600019438261016270BD002C014000340140B9
:102670000004004000080040000C004010B5036A50
:1026800023F0100303628369046A23F4704343EA6E
:10269000023224F0A00343EA01118261016210BDFD
:1026A00030B5046A24F0100404628469056A24F4D5
:1026B000407444EA022222F470444FF6FF7202EAA8
:1026C00003322243A02425F0A00304EA0111194398
:1026D0008261016230BD10B5406A0021C185C184AC
:1026E000FFF721F910BD0168CA6822F49072CA6030
:1026F00001684A6922F001024A61202180F83A10FB
:10270000704710B590F83A10222901D0022010BD70
:102710008168B1F5805F11D00169002901681FD07F
:10272000496801F07F03816A4A1C82620B70C18D87
:10273000491E0904090CC18518D02BE00269816A81
:10274000002A0268526805D0D2B20A80816A491C08
:102750008162ECE7C2F308020A80816A891CF7E70C
:102760004A68816A4B1C83620A70E0E70168CA68A4
:1027700022F02002CA600168CA6822F48072CA602E
:1027800001684A6922F001024A61202180F83A106A
:10279000FFF72CFA002010BD2DE9F0410446006837
:1027A0000169E26821F44051114301612169A06887
:1027B0000843616908432168CA6841F20C639A437F
:1027C0000243CA6020684169A26921F44071114343
:1027D00041614C4920686425322688423CD1FEF78D
:1027E00051FA00EBC00101EB001061688900B0FBF9
:1027F000F1F7FEF747FA00EBC00101EB001061684A
:10280000B0468900B0FBF1F0B0FBF5F06FF01801B5
:10281000484307EB800106EB0110B0FBF5F000F038
:10282000F006FEF72FFA00EBC00101EB0010616823
:102830008900B0FBF1F0B0FBF5F006EB0016FEF7F7
:1028400021FA00EBC00101EB001061688900B0FBC8
:10285000F1F7FEF717FA3BE0FEF704FA00EBC001D0
:1028600001EB001061688900B0FBF1F7FEF7FAF99F
:1028700000EBC00101EB00106168B0468900B0FBBD
:10288000F1F0B0FBF5F06FF01801484307EB800161
:1028900006EB0110B0FBF5F000F0F006FEF7E2F9F0
:1028A00000EBC00101EB001061688900B0FBF1F0A2
:1028B000B0FBF5F006EB0016FEF7D4F900EBC00113
:1028C00001EB001061688900B0FBF1F7FEF7CAF96F
:1028D00000EBC00101EB001061688900B0FBF1F072
:1028E000B0FBF5F06FF01801484307EB800108EBEF
:1028F0000110B0FBF5F0216800F00F003044886053
:10290000BDE8F0810038014090F83910212901D04C
:10291000022070478168B1F5805F016A0BD04A1CC4
:102920000262026809785160C18C491E0904090CD1
:10293000C1840ED017E009880268C1F30801516014
:1029400001690029016A02D0491C0162ECE7891C77
:10295000FBE70168CA6822F08002CA600068C168AB
:1029600041F04001C160002070472DE9F0419846D8
:1029700017460E460446069D1DE0681C1BD02DB16F
:10298000FDF7FAFFA0EB0800A84214D92068C1683F
:1029900021F4D071C1602068416921F001014161D9
:1029A000202084F8390084F83A00002084F83800A8
:1029B0000320BDE8F0812068006836EA000004D0FA
:1029C0000020B842D9D00020F3E70120F9E7000049
:1029D0000148FEF7A9BF0000F40600200148FEF7F9
:1029E000A3BF0000340700200148FEF79DBF000090
:1029F00074070020FEE7FEE7014A024900F013B821
:102A0000492A00085000002002E008C8121F08C12F
:102A1000002AFAD170477047002001E001C1121F5F
:102A2000002AFBD170472DE9F04116460F460446B7
:102A3000002503E03946B047641C6D1C207800284F
:102A4000F8D12846BDE8F08113B54FF6FF73012297
:102A500069460248FFF784F900981CBD74070020FE
:102A6000FDF798FFFFF72BFCFFF7DAF9FFF71EFAE7
:102A7000FFF758FAFFF792FAFFF7DAFAFFF728FBA9
:102A8000FFF762FBFFF78EFBFFF7B2FBFFF7D6FB0A
:102A900001223D493D48FFF77FF83B490122491C8F
:102AA0003B48FFF779F838490122891C3948FFF77C
:102AB00073F80C213848FEF7F9FE08213648FEF776
:102AC000F5FE00213548FEF730FD34480068C16846
:102AD000C1603348FEF791FB3248FEF78EFB324966
:102AE0004FF000080968C1F8248030490968C1F82E
:102AF0002480254C0120E41E60702DA0FFF77CFF90
:102B0000DFF8BC90A078B0B3E069FDF7A0FC2D49D8
:102B1000FDF74CFB2C4E3146FDF77AFB0546206154
:102B2000206AFDF794FC2949FDF740FB3146FDF78B
:102B30006FFB074660612846FDF78EFC05460E4692
:102B40003846FDF789FC0022214BFDF79FFB2A4602
:102B50003346FDF70DFCFDF792FCC4E90608C4F806
:102B6000208084F802802078002140F080002070CE
:102B70000A48FEF7DAFC20214846FDF7F3FEC8209C
:102B8000FDF7EAFDBEE7000007000020F406002084
:102B90003407002074070020F405002034060020CC
:102BA00074060020B406002074050020B40500203F
:102BB00053797374656D206973204F6B210A00008F
:102BC000000C0140000028430000C8420000904271
:102BD0000070B74000000000000000000102030484
:102BE0000607080900000000010203040C2C00087D
:102BF0000000002054000000082A0008602C000893
:102C000054000020640B0000182A00080000000097
:102C10008000000000000000000000000000000034
:102C200000000000000000000000000000000000A4
:102C3000000000000000CAFDBEDDD2E7B3F628B4F4
:102C4000F3D3DA323536290D0A0000000100000006
:102C5000100000000000000000A24A040000000074
:0400000508000131BD
:00000001FF
