:020000040800F2
:10000000000900204501000837220008451F0008AC
:10001000352200080509000801280008000000003A
:100020000000000000000000000000005B2200084B
:100030000709000800000000592200085D2200089E
:100040005F0100085F0100085F0100085F01000810
:100050005F0100085F0100085F0100085F01000800
:100060005F0100085F0100085F0100085F010008F0
:100070005F0100085F0100085F0100085F010008E0
:100080005F0100085F0100085F0100085F010008D0
:100090005F0100085F0100085F0100085F010008C0
:1000A0005F0100085F0100085F0100085F010008B0
:1000B0005F0100085F0100085F0100085F010008A0
:1000C0005F0100085F0100085F0100085F01000890
:1000D0005F010008DD270008E9270008F527000870
:1000E0005F0100085F0100085F0100085F01000870
:1000F0005F0100085F0100085F0100085F01000860
:100100005F0100085F0100081D2300085F0100086F
:100110005F0100085F010008292300085F01000853
:100120005F0100085F0100085F0100085F0100082F
:10013000DFF80CD000F0D4FB00480047AD320008D7
:10014000000900200648804706480047FEE7FEE712
:10015000FEE7FEE7FEE7FEE7FEE7FEE7FEE7FEE777
:10016000D522000831010008202A04DB203A21FAB8
:1001700002F00021704721FA02F3D040C2F12002C0
:100180009140084319467047D2B201E000F8012BB4
:10019000491EFBD270470022F6E710B513460A4607
:1001A00004461946FFF7F0FF204610BDF0B480EA80
:1001B0000102D40F4200B2EB410F02D202460846C0
:1001C00011464A0042D0C30DDDB2C1F3C752AD1A89
:1001D000202D35DAC1F3160141F4000204B1524278
:1001E000C5F1200602FA06F12A411044B3EBD05FB4
:1001F00023D0C4B1012DA0EBC35009DCF0BC4FF0FB
:10020000004202EAC352DBB200F5000000F03BBA44
:10021000400000F1807000EBC350A0F1807040EA14
:10022000D170490009E0490841EAC071A0EBC35010
:1002300000F50000400800EBC350F0BC00F01ABA13
:100240006142012202EB4101001BF6E7F0BC70475E
:1002500081F00041AAE780F00040A7E730B480EACF
:10026000010202F0004530F0004221F0004013D0BE
:1002700090B1C30DD40DC2F31601C0F31600E41AF9
:1002800041F4000140F400027D34914201D3641C2A
:1002900000E04900002C02DA30BC002070474FF427
:1002A00000000023914201D3891A034340084FEA1A
:1002B0004101F7D151B1914202D14FF0004105E027
:1002C00002D24FF0010101E06FF0010103EBC450D5
:1002D000284430BC00F0CEB92DE9FE4F804681EABB
:1002E0000300C00F0C46009021F0004123F00045B0
:1002F000B8EB0200A94105D24046214690461C4673
:100300000B46024623F00040104347D0270DC7F3A9
:100310000A00C3F30A510290401A019040286BDA98
:10032000C3F3130040F4801B0098924620B10023D1
:10033000D2EB030A63EB0B0B01985946C0F1400264
:10034000504600F076F906460D4650465946019A49
:1003500000F07EF910EB08006141002487EA115299
:1003600084EAE7731A4340D0009A62B3019A012AE3
:100370004FEA075215DC001B61EB02014FF000420F
:1003800002EA0752CDE90042001C41F580113246D5
:100390002B4600F0B5F903B0BDE8F08F404621468A
:1003A000F9E7001B61EB0201001C41F58013001806
:1003B0005B412018A2F5001747EB030140EAD57016
:1003C000B6196D4111E06D084FEA360645EAC07571
:1003D0004FEA0752001B61EB0201001C41F580113E
:1003E00049084FEA30000019514132462B4603B00C
:1003F000BDE8F04F00F075B90098012240000023DD
:10040000D0EB020263EBE073009821464FEAE07400
:10041000B8EB000061EB0401E9E783F000435BE720
:1004200081F0004158E72DE9F04D81EA030404F022
:10043000004B21F0004514464FF0000A23F0004124
:1004400050EA050220D054EA01021DD0C5F30A5734
:100450000246C5F31303C1F31300C1F30A5640F477
:10046000801543F48013A7EB0608101BD64608F24C
:10047000FD3873EB050002D308F1010801E0921882
:100480005B41B8F1000F03DA00200146BDE8F08DB2
:1004900000204FF48011064684460EE0171B73EBD4
:1004A000050705D3121B63EB050306434CEA010C59
:1004B00049084FEA300092185B4150EA0107EDD13C
:1004C00052EA030012D082EA040083EA05010843DD
:1004D00005D0101BAB4106D20122002306E000220A
:1004E0004FF0004302E06FF0010253101AEB0600D8
:1004F0004CEB085110EB0A0041EB0B01BDE8F04D4D
:1005000000F0EFB80EB540F2334102910021CDE981
:1005100000110A460B4600F0F3F803B000BD20F0CE
:100520000040C10DC0F3160040F400007F2901DA3D
:1005300000207047962903DCC1F19601C84070473E
:1005400096398840704700F0004230F000400AD0F1
:10055000C10D01F56071C0F3160042EA0151C208F5
:1005600040071143704700200146704701F00043E7
:1005700030B421F0004150EA010206D00A0DA2F584
:100580006072C1F31301002A02DC30BC0020704706
:10059000440F44EAC104C100E01830BC00EBC25073
:1005A00000F068B830B50B46014600202022012437
:1005B00009E021FA02F59D4205D303FA02F5491B31
:1005C00004FA02F52844151EA2F10102F1DC30BD47
:1005D0002DE9F05F0546002092469B468846064678
:1005E000814640241BE02846414647462246FFF705
:1005F000BBFD53465A46C01A914110D311461846C6
:10060000224600F016F82D1A67EB01084F462246E5
:100610000120002100F00DF817EB00094E41201ECB
:10062000A4F10104DFDC484631462A464346BDE8D2
:10063000F09F202A04DB203A00FA02F100207047E4
:100640009140C2F1200320FA03F319439040704710
:10065000202A06DBCB17203A41FA02F043EAE07386
:1006600006E041FA02F3D040C2F120029140084373
:10067000194670470029A8BF7047401C490008BFB1
:1006800020F00100704710B4B0FA80FC00FA0CF0C2
:1006900050EA010404BF10BC704749B1CCF12004FA
:1006A00021FA04F411FA0CF118BF01212143084387
:1006B000A3EB0C01CB1D4FEA00614FEA102042BFB3
:1006C000002010BC704700EBC35010440029A4BFA9
:1006D00010BC7047401C490008BF20F0010010BC4E
:1006E000704710B5141E73F1000408DA401C41F184
:1006F000000192185B411A4301D120F0010010BDA6
:100700002DE9F04D92469B4611B1B1FA81F202E01B
:10071000B0FA80F220329046FFF78BFF04460F4676
:1007200040EA0A0041EA0B0153465A46084313D0F7
:10073000114653EA010019D0C8F140025046FFF7B4
:1007400013FD05460E46504659464246FFF771FFD7
:10075000084305D0012004E020463946BDE8F08D6D
:100760000020054346EAE0762C4337430A986305A8
:10077000E40AA0EB08000022FD0A44EA47540A30CC
:1007800002D500200146E9E7010510196941DDE9BC
:10079000084500196941BDE8F04DA2E72DE9FE4F7B
:1007A00081EA030404F0004421F0004100944FF07A
:1007B000000B23F0004350EA01045ED052EA030428
:1007C0005BD0C3F30A54C1F30A552C44A4F2F334AA
:1007D0000194A0FB0254C1F3130141F48011C3F34F
:1007E000130343F4801301FB024400FB034E840A0D
:1007F000970A44EA815447EA8357A4FB07680295A5
:100800008D0A05FB07854FEA932C04FB0C54270542
:10081000029D4FEA065847EA1637B5EB08056EEB1E
:10082000070C870E920E47EA811742EA8312A7FB54
:100830000201B6EB0B0164EB00042B0D43EA0C3311
:100840005E1844EB1C50DA465146E7FB0201C5F343
:1008500013044FEA0B3343EA14534FEA0432019C6A
:1008600043EA0603A4F10C040294009CCDE900B411
:10087000FFF746FF03B0BDE8F08F00200146F9E71F
:10088000C1F30A52C1F3130140F2FF3341F4801166
:100890009A4202DA00200146704740F233439A42FE
:1008A000A2F2334202DC5242FFF75EBCFFF7C1BE48
:1008B00030B5041E71F1000404DB4FF000444042E7
:1008C00064EB0101141E73F1000405DB1C464FF0BC
:1008D0000043524263EB0403994208BF904230BD8B
:1008E000064C074D06E0E06840F0010394E807007D
:1008F00098471034AC42F6D3FFF71EFCC03800080E
:10090000E0380008FEE770472DE9F05F90F821100D
:100910000024022903D004218163012485E00168B9
:100920000A6822F00E020A6001680A6822F00102D9
:100930000A603F4E3E4FB215DFF8F4C0DFF8F0908A
:10094000DFF8ECA0DFF8E8B0DFF8E4E00168783F1A
:1009500013011502ACF1640CA9F15009AAF13C0A8B
:10096000ABF1280BAEF1140E4FF48018B14227D929
:10097000B9420ED0614512D049451DD0514518D01D
:10098000594518D0714501D1424615E0294EB14272
:1009900001D1012210E0274E1436B14201D11022BC
:1009A0000AE0244E2836B14206D0224A3C32914217
:1009B00001D11A4600E02A461E49091F0A602BE0B1
:1009C000B94213D0614517D0494522D051451DD0B9
:1009D00059451DD0714501D142461AE0B14202D1BC
:1009E0004FF0807215E0134EB14201D1012210E0A8
:1009F000104E1436B14201D110220AE00D4E2836B5
:100A0000B14206D00B4A3C32914201D11A4600E075
:100A10002A46074980394A60012180F821100021C7
:100A200080F82010416B01B188472046BDE8F09F57
:100A3000800002400804024070B5044600F010F93E
:100A40000546601C02D004480078044400F008F910
:100A5000401BA042FAD370BD480000202DE9F84F9A
:100A6000DFF8B8A100220AF1040B144601274FF069
:100A70000F090BF1040E00BF0B6807FA04F52B40B9
:100A8000AB4274D1DFF898C14E68A6EB0C086645FE
:100A90002BD00DDC032E34D005DC36B3012E19D05B
:100AA000022E2FD11BE0112E16D0122E2AD119E0C2
:100AB000B8F5881F19D006DCB8F5803F15D0B8F519
:100AC000801F1FD111E0B8F5001F0ED0B8F5041F2C
:100AD00018D10AE0CA6815E0CA68121D12E0CA6897
:100AE00008320FE0CA680C320CE08A682AB1012A89
:100AF0004FF0080203D0456104E0042202E00561E2
:100B000000E00022FF2B01D8064601E000F10406B8
:100B10004FEA840501D9A5F12005D6F800C009FAED
:100B200005F82CEA080C02FA05F54CEA050CC6F8A3
:100B300000C04D68ED006AD53A4DAE6946F0010639
:100B4000AE61AD6924F0030605F001050095364D50
:100B500006EB050CDCF80850A6074FEA167809FAF0
:100B600008F6B543314EB04202D100261AE04EE0FD
:100B70002F4EB04201D1012614E02E4EB04201D1D9
:100B800002260FE02C4EB04201D103260AE02B4E84
:100B9000B04201D1042605E0294EB04201D105261C
:100BA00000E0062606FA08F62E43CCF808604D68E9
:100BB000DAF80060ED03554601D51E4300E09E4380
:100BC0002E604D68AD0305D5DBF800601E43CBF801
:100BD000006004E0DBF800509D43CBF800504D6806
:100BE000DEF80060ED02754601D51E4300E09E432D
:100BF0002E604D68AD0205D5084D0C352E681E439C
:100C00002E6004E0054E0C3635689D433560641C4B
:100C1000102CFFF431AFBDE8F88F00000004014054
:100C200000001110001002400000014000080140C7
:100C3000000C014000100140001401400018014068
:100C4000001C01408068084000D001207047C26845
:100C50004A40C26070470AB1016170470904FBE76E
:100C60000148806870470000480000200248816801
:100C7000027811448160704748000020074810B591
:100C8000016841F010010160032000F09DF8002090
:100C900000F006F800F024F8002010BD002002400B
:100CA00070B50D4D04464FF47A712878B1FBF0F021
:100CB0000A490968B1FBF0F000F02DFB48B9102C8F
:100CC00007D200222146501E00F05EF800206C6022
:100CD00070BD012070BD00004800002054000020BD
:100CE000214808B5816941F001018161816901F004
:100CF00001010091C16941F08051C161C06900F0FA
:100D000080500090032000F05FF8002211466FF041
:100D10000B0000F039F8002211466FF00A0000F0D5
:100D200033F8002211466FF0090000F02DF8002280
:100D30001146501F00F028F800221146101F00F045
:100D400023F800221146901E00F01EF800221146E2
:100D5000501E00F019F80548416821F0E06141F0AB
:100D60008061416008BD00000010024000000140A9
:100D700000F01F02012191404009800000F1E020B5
:100D8000C0F8001170470000F0B40E4B1B680C4611
:100D9000C3F30223C3F10705042D00D90425191D4F
:100DA000072901D2002300E0DB1E012606FA05F127
:100DB000491E214099409E40761E16403143F0BCAA
:100DC00001F03ABA0CED00E0064900F007020868AD
:100DD0004FF6FF03184040EA0220034A1043086020
:100DE000704700000CED00E00000FA052DE9F04727
:100DF000DFF83C8105460E46D8F8000000F00700F9
:100E0000B0420CD2D8F8001021F007013143C8F8E5
:100E10000010D8F8000000F00700B04263D1287835
:100E2000444C800705D56068A96820F0F0000843AD
:100E300060602878C00745D06868012816D021680E
:100E4000022816D0890700294DDA616821F00301D4
:100E500001436160FFF704FF6968074641F288308B
:100E600001290FD00229814619D027E02168890382
:100E7000E9E78901E7E700BFFFF7F2FEC11B49453B
:100E800001D918E081466068C0F381000128F3D1E0
:100E900018E000BFFFF7E4FEC11B49450BD86068AE
:100EA000C0F381000228F5D10CE000BFFFF7D8FEA7
:100EB000C11B494502D90320BDE8F087606810F0E6
:100EC0000C0FF3D1D8F80010404601F00701B142F1
:100ED0000BD9016821F0070131430160006800F07F
:100EE0000700B04201D00120E6E72878400705D589
:100EF0006068E96820F4E0600843606028780007D3
:100F000006D56068296920F4605040EAC10060603D
:100F100000F03CF86168084AC1F30311515CC84015
:100F2000064908600020FFF7BBFE0020C4E7000070
:100F30000020024000100240A838000854000020A1
:100F4000014800687047000054000020044805492B
:100F500000684968044AC1F30221515CC8407047E7
:100F60005400002000100240B83800080448054929
:100F700000684968044AC1F3C221515CC840704707
:100F80005400002000100240B838000812A185B0BB
:100F90000FC98DE80F0014A0144A0068049051682E
:100FA000134801F00C03042B10D0082B0ED1C1F311
:100FB0008343C9031DF803000AD5516804AAC1F38D
:100FC0004041515C0A4A5043B0FBF1F005B0704714
:100FD00008494843FAE70000020304050607080928
:100FE0000A0B0C0D0E0F1010010200000010024041
:100FF00000127A0000093D002DE9F84F0446007800
:10100000B94DC00748D06868C0F38100012807D0F7
:101010006868C0F38100022809D16868C00306D55A
:101020002868800338D5606800286FD034E0606895
:10103000B0F5803F0BD010B1B0F5A02F11D02868CB
:1010400020F480302860286820F4802002E028689E
:1010500040F480302860606888B1FFF701FE0646E2
:1010600009E0286840F480202860F0E7FFF7F8FDE9
:10107000801B642875D828688003F7D50CE0FFF73B
:10108000EFFD064605E000BFFFF7EAFD801B642880
:10109000F0D828688003F7D42078944E80074FF06A
:1010A00001094FF000083BD5686810F00C0F07D01D
:1010B0006868C0F38100022809D16868C00306D4BB
:1010C0002868800714D5206901281FD110E0206905
:1010D000B0B1C6F80090FFF7C3FD074605E000BFBA
:1010E000FFF7BEFDC01B0228C4D828688007F7D5CB
:1010F0002868616920F0F80040EAC10028600FE02C
:10110000C6F80080FFF7ACFD074606E0E9E000BF47
:10111000FFF7A6FDC01B022823D828688007F7D454
:10112000207800072CD57248A169D9B1C0F8009089
:10113000FFF796FD074604E0FFF792FDC01B02286B
:101140000FD8686A8007F7D56A484FF4FA510068EB
:10115000B0FBF1F0009000BF0098411E0091FAD260
:101160000EE080E0C0F80080FFF77AFD074604E05B
:10117000FFF776FDC01B022875D8686A8007F7D490
:101180002078400760D5E8690027C00008D4E869E6
:1011900040F08050E861E869012700F0805000903D
:1011A00055480168C90513D40168834641F480712C
:1011B0000160FFF755FD824606E000BFFFF750FDD6
:1011C000A0EB0A0064284ED8DBF80000C005F5D576
:1011D000E06801280AD008B1052813D0286A20F059
:1011E00001002862286A20F0040002E0286A40F02A
:1011F00001002862E06841F2883B98B1FFF730FDBA
:1012000082460BE0286A40F004002862EEE700BF47
:10121000FFF726FDA0EB0A0159455AD8286A800736
:10122000F6D50CE0FFF71CFD824605E0FFF718FD40
:10123000A0EB0A0159454CD8286A8007F6D41FB1A3
:10124000E86920F08050E861E06988B36968C1F31B
:101250008101022945D00228C6F8608004D0FFF73A
:10126000FFFC044638E034E0FFF7FAFC074604E0F0
:10127000FFF7F6FCC01B02282BD828688001F7D4A2
:10128000206AB0F5803F05D16868A16820F400307D
:1012900008436860D4E908010843696821F47411BF
:1012A00008436860C6F86090FFF7DAFC044606E081
:1012B00015E000BFFFF7D4FC001B022809D82868FE
:1012C0008001F7D50BE000BFFFF7CAFC001B022826
:1012D00002D90320BDE8F88F28688001F4D40020EB
:1012E000F8E70120F6E7000000100240000042424B
:1012F0008004424254000020007000404FF0E02182
:101300000428086903D020F004000861704740F009
:101310000400FAE7704710B5401EB0F1807F01D39A
:10132000012010BD4FF0E02460610F21601700F034
:1013300083FF0020A06107202061002010BD10B5B0
:10134000FFF7E8FF10BD7047704730B590F83C20BC
:10135000012A20D0012280F83C20022380F83D3071
:1013600003685C6824F070045C6003685C680D6866
:101370002C435C6003689C6824F080049C600368D4
:101380009C6849680C439C6080F83D20002180F8EF
:101390003C10084630BD022030BD10B5040003D01B
:1013A00094F83D0010B107E0012010BD002084F842
:1013B0003C00204600F00CF8022084F83D00211D7E
:1013C000206800F0B7FF012084F83D00002010BD28
:1013D00000B51A4A01681A4885B0914218D1C1690E
:1013E00041F00801C161C069694600F0080004903D
:1013F0000120009000200190022002901148FFF788
:101400002DFB002211463220FFF7BEFC322010E0F7
:101410000D4A91420FD1C16941F01001C161C0690B
:10142000002200F01000049011463620FFF7ACFCBB
:101430003620FFF79DFC05B000BD0000000C004009
:101440000010024000080140001000400168CA6816
:1014500042F00102CA600068016841F001010160C8
:101460000020704770B5044690F83C00012817D062
:10147000012584F83C50022084F83D0020688268F1
:1014800022F0770222F47F4282600868502837D029
:101490000DDC202859D005DC88B3102841D151E05B
:1014A000022070BD302853D040283AD13FE0602858
:1014B0002ED070280BD0B0F5805F03D0B0F5005F60
:1014C0002FD110E02068816821F0070115E0CB687A
:1014D000D1E90121206800F07EFF2168886840F092
:1014E000770088601DE0CB68D1E90121206800F019
:1014F00072FF2068816841F48041816011E01EE044
:10150000CA684968206800F078FF5021206806E02A
:10151000CA684968206800F0B7FF6021206800F0C1
:1015200064FF84F83D50002084F83C0070BDCA6818
:101530004968206800F061FF40212068EFE7002142
:101540002068ECE710212068E9E720212068E6E721
:1015500030212068E3E700002DE9FF411B4D0746DD
:101560000024687801266FF00208C0B100211848F5
:1015700000F0EEF96880CDE9004602940022694649
:101580001348039400F026F83968C1F81080002150
:101590000F4800F0C8F86C702E70BDE8FF81386805
:1015A0004462AC806C80CDE900460294002269461A
:1015B0000748039400F00EF83968C1F81080002144
:1015C000034800F0B0F86E70E7E70000200000204C
:1015D000B40300202DE9F041044690F83C000D468C
:1015E00001283BD0012684F83C60022084F83D00AD
:1015F0009AB3042A44D02068082A53D0D5E900279A
:10160000E968036A23F480530362D0F81CC0036ABC
:101610002CF4407C4CEA07274FF6FF7C27F47047F8
:101620000CEA01313943770323F4005307EA02320D
:101630001A43C16102622068C16921F44061C1613D
:101640002068C169AA6841EA0221C16184F83D604D
:10165000002084F83C00BDE8F08101E00220FAE7B8
:10166000D5E90012EB68206800F0D8FE2068816997
:1016700021F00C01816120688169AA6811430FE0A3
:10168000D5E90012EB68206800F010FF206881693E
:1016900021F44061816120688169AA6841EA0221E0
:1016A0008161D3E7D5E9002C2F7B016A21F4807199
:1016B0000162C169036A21F0030141EA0C0121F0D2
:1016C000F00C39074FF420674CEA116123F42063D2
:1016D00007EA02221A43C16102622068C16921F04F
:1016E0000C01C1612068C169AA681143ADE710B55A
:1016F000040003D094F83D0010B107E0012010BDB4
:10170000002084F83C00204600F00CF8022084F809
:101710003D00211D206800F00DFE012084F83D00F1
:10172000002010BD704710B50268044631B104298D
:1017300008D0082915D00C2908D116E0D06840F04F
:10174000020002E0D06840F00400D060012220686E
:1017500000F036FE2068016841F0010101600020C0
:1017600010BDD06840F00800EFE7D06840F01000EE
:10177000EBE770B50446006801694FF00005C94306
:10178000890715D4C168C943890711D4E91E0161CD
:1017900001202077206880698007204602D0FFF76B
:1017A000DBFE04E000F098F8204600F096F825777C
:1017B00020680169C943490717D4C168C94349076B
:1017C00013D46FF004010161022020772068806942
:1017D00010F4407F204602D0FFF7BEFE04E000F088
:1017E0007BF8204600F079F8257720680169C94325
:1017F000090716D4C168C943090712D46FF008015C
:101800000161042020772068C0698007204602D04B
:10181000FFF7A2FE04E000F05FF8204600F05DF85C
:10182000257720680169C943C90617D4C168C9432F
:10183000C90613D46FF010010161082020772068D9
:10184000C06910F4407F204602D0FFF785FE04E017
:1018500000F042F8204600F040F825772068016942
:10186000C943C90708D1C168C943C90704D1891E42
:101870000161204600F032F820680169C943090679
:1018800009D4C168C943090605D46FF0800101611C
:101890002046FFF758FD20680169C943490609D46D
:1018A000C168C943490605D46FF040010161204673
:1018B00000F070F820680169C94389060BD4C1683B
:1018C000C943890607D46FF0200101612046BDE8B5
:1018D0007040FFF739BD70BD7047704710B5164AAC
:1018E0000168914203D1154A9188491C9180006892
:1018F000134988421ED1114C183C2078002819D079
:101900006068401C6060B0F57A7F13D1E16860695F
:10191000FEF74CFC6061A0680021401CA06010F143
:10192000060F00D9A1606160A168BDE8104005A064
:1019300000F068BF10BD0000000C00402000002037
:10194000001000400D0A54696D653D25640A0000D1
:1019500090F83C300022012B0AD0012380F83C3063
:1019600041B1042909D008290AD00C290DD10AE077
:101970000220704701684A6B07E001688A6B04E047
:101980000168CA6B01E001680A6C002180F83C1014
:10199000104670477047704770B50268044610687B
:1019A000D168536910F00F0F51D003F0010501F415
:1019B000907635435DD0C20705D0CA0503D5E26BEA
:1019C00042F00102E263420705D5DA0703D0E26B79
:1019D00042F00202E263820705D5DA0703D0E26B28
:1019E00042F00402E263020705D5DA0703D0E26B96
:1019F00042F00802E263E26B002A34D0800604D58C
:101A0000880602D5204600F082FD20684069E16B1F
:101A1000C0F3801001F008010143204624D000F0FB
:101A200068FD2068416949061AD5416921F04001E5
:101A30004161606BA0B11B494163606BFEF764FFBD
:101A4000002810D0606B416BBDE8704008478306EA
:101A50000FD58B060DD52046BDE8704000F057BD70
:101A60002046FFF798FF70BDFFF795FF0020E06369
:101A700070BD030606D50B0604D52046BDE87040B0
:101A800000F048BE4006F3D54806F1D5D16820469F
:101A900021F04001D160202184F8391000F051FA82
:101AA00070BD0000E324000870B5040004D094F871
:101AB0003900002510B106E0012070BD84F83850CF
:101AC000204600F023F8242084F839002068C168FB
:101AD00021F40051C160204600F064FD20680169D6
:101AE00021F4904101612068416921F02A0141619E
:101AF0002068C16841F40051C160E563202084F88A
:101B0000390084F83A00002070BD0000F0B5036889
:101B1000374F0220002437490322374D460285B053
:101B2000BB421DD18B6943F480438B618969039269
:101B300001F4804104910102CDE900106946284674
:101B4000FEF78CFFCDE90064694628460294FEF753
:101B500085FF002211462520FFF716F9252020E0F9
:101B6000264FBB4221D1CB6943F40033CB61C96915
:101B7000039201F4003104910421CDE9001069467B
:101B80002846FEF76BFF0820CDE900046946284689
:101B90000294FEF763FF002211462620FFF7F4F8B7
:101BA0002620FFF7E5F805B0F0BD154DAB42FAD1A0
:101BB000CB6943F48023CB61C969124D01F48021C4
:101BC000CDE90321CDE9006069462846FEF746FFCE
:101BD000E814CDE90004694628460294FEF73EFF6A
:101BE000002211462720FFF7CFF82720D9E7000071
:101BF000003801400010024000080140004400404D
:101C000000480040000C014090F83A30202B22D1CF
:101C1000F9B1F2B190F83830012B1CD08162828585
:101C2000C2850021C163222280F83A2080F8381052
:101C30000168CA6842F48072CA6001684A6942F069
:101C400001024A610068C16841F02001C1600020C2
:101C50007047012070470220704700002DE9F05FB7
:101C600081466D48C18CC18D90F8391090F83A10BA
:101C7000C06B6A49D9F80000012600254FF6FF7BAA
:101C8000884264D1664C2078FF280BD325708915D3
:101C90006448FEF780FA5B46142263495E4800F010
:101CA000F3F84EE06149DFF87CA1614F0A780AF849
:101CB0000020401CC0B220705044DFF8788110F83A
:101CC000010C662805D13E7088F800605AA000F02B
:101CD00099FD21780AEB010010F8010C672806D164
:101CE0000220387088F8006057A000F08BFD217842
:101CF0000AEB010010F8010C682806D103203870A7
:101D000088F8005054A000F07DFD2178564A0AEB77
:101D1000010010F8011C5548702904D0712905D024
:101D2000722908D00DE0167005700AE0167001786F
:101D300039B1491E04E016700178092901D2491C05
:101D4000017025704FF480713648FEF724FA0122A5
:101D500036493148FFF758FF4549D9F80000884215
:101D600057D144480178FF290DD305704FF4807195
:101D70004148FEF710FA28485B4614222A494030B1
:101D800000F082F83DE03D48274C02782248A41F2D
:101D90008030592A02D1592101706670617842540D
:101DA000491C6170017842788678C3781144F21832
:101DB0001144027990F806C08F1841790F446744A6
:101DC00090F807C06744A780007AFFB2B84218D1E4
:101DD0002B4806EB0326068002EB012060800E48AC
:101DE000657009218030FEF7D6F92649207821F860
:101DF0001060401CC0B22070052802D9257001F087
:101E000013FABDE8F05F044801221C494030FFF797
:101E1000FBBEBDE8F09F00007404002000440040B9
:101E20000300002074000020320000200900002080
:101E300028000020080000200D0ACED2CAC7B4AE88
:101E4000BFDAB6FE36360A000D0ACED2CAC7B4AE25
:101E5000BFDAB6FE36370A000D0ACED2CAC7B4AE14
:101E6000BFDAB6FE36380A002A0000202B00002018
:101E70000048004004000020740100200A000020F7
:101E8000260000205C0000202DE9F843044690F86D
:101E900039001F4616460D46202850D1A5B19EB1E7
:101EA00094F8380001284AD0012084F838004FF017
:101EB0000008C4F83C80212084F83900FEF7D0FEE9
:101EC000A6848146E68426E00120BDE8F883E08C04
:101ED000401EE084A0684B46B0F5805F4FF00002E2
:101EE0004FF080012046009703D000F044FCE8B991
:101EF0000DE000F040FCC8B928882168C0F3080054
:101F00004860206908B16D1C05E0AD1C03E0216844
:101F100015F8010B4860E08C0028D8D14B46002210
:101F200040212046009700F026FC08B10320CCE7B2
:101F3000202084F8390084F838800020C5E702208A
:101F4000C3E77047FEE700002DE9F04F3C4885B03D
:101F5000816941F040018161816901F04001049192
:101F6000816941F004018161816901F004010491FA
:101F7000816941F008018161816901F008010491E2
:101F8000816941F0100181618069DFF8B88000F05B
:101F900010000490012220214046FEF75CFEDFF88D
:101FA000A8904FF47077012239464846FEF753FE59
:101FB000DFF898A001224FF488515046FEF74BFEFF
:101FC000DFF88CB0012220215846FEF744FE0124A0
:101FD0002026CDE90064032569464046CDE9024547
:101FE000FEF73CFDCDE9007469464846CDE902455F
:101FF000FEF734FD2002CDE9000469465046CDE9E4
:102000000245FEF72BFDE002009000200227CDE9FB
:10201000010769465046FEF721FD200303958DE830
:10202000910069465046FEF719FDCDE90064694606
:102030005846CDE90245FEF711FD05B0BDE8F08F29
:10204000001002400018014000100140000801404B
:10205000000C014010B523488AB021490160472196
:102060000024C0E901144FF6FF71C0E90314846134
:10207000FFF793F918B143211BA000F0C2FB4FF406
:102080008050049004A91748FFF7ECF918B14921D2
:1020900015A000F0B6FB1348FFF729FB18B14E213D
:1020A00011A000F0AEFB089408A90E480994FFF7B0
:1020B0004CF918B155210CA000F0A3FB0120CDE98B
:1020C000004002940022694606480394FFF782FA12
:1020D000002803D05E2104A000F093FB0AB010BDDD
:1020E000000C0040B40300202E2E2F5372632F7477
:1020F000696D2E63000000001CB510480E490024D5
:1021000001604721C0E9011440F2E7318461C160F8
:10211000FFF743F918B16E2109A000F072FB00949B
:10212000694606480194FFF710F9002803D075218D
:1021300003A000F066FB1CBD00100040F40300206B
:102140002E2E2F5372632F74696D2E6300000000D2
:102150000D4810B50B4901604FF4E1314160002199
:1021600081600C22C160C0E904128161C161FFF786
:102170009BFC002805D0BDE81040452103A000F0DD
:1021800040BB10BD00380140340400202E2E2F53D8
:1021900072632F75736172742E6300000D4810B561
:1021A0000B4901604FF4E1314160002181600C2254
:1021B000C160C0E904128161C161FFF775FC0028AC
:1021C00005D0BDE81040582103A000F01ABB10BD97
:1021D00000440040740400202E2E2F5372632F758C
:1021E000736172742E6300000D4810B50B490160D5
:1021F0004FF4E1314160002181600C22C160C0E9EF
:1022000004128161C161FFF74FFC002805D0BDE8D1
:1022100010406B2103A000F0F4BA10BD004800404C
:10222000B40400202E2E2F5372632F7573617274C5
:102230002E630000FEE770470907090E002806DA42
:1022400000F00F0000F1E02080F8141D704700F14D
:10225000E02080F8001470477047704710B5FEF713
:1022600005FDBDE81040FFF76AB830B58FB0012119
:102270000804CDE900100024029402250491CDE960
:1022800007504FF4E01009906846FEF7B5FE00B124
:10229000FEE70F20CDE90A054FF48060CDE90C4040
:1022A00002210AA80E94FEF7A1FD00B1FEE7FEF799
:1022B00047FE4FF47A71B0FBF1F0FFF72CF80420E1
:1022C000FFF71CF800221146501EFEF75DFD0FB00F
:1022D00030BD00000D48016841F001010160416816
:1022E0000B4A1140416001680A4A114001600168CF
:1022F00021F480210160416821F4FE0141604FF426
:102300001F0181600449C00308607047001002404B
:102310000000FFF8FFFFF6FE08ED00E00148FFF7C0
:1023200028BA0000B40300200148FFF722BA0000D9
:10233000F4030020F0B502681C4B1D4D1D4E1E4FCE
:102340001E4C4FF0804C984209D0A04207D0604507
:1023500005D0A84203D0B04201D0B84204D122F047
:10236000700E4A6842EA0E02984209D0A04207D095
:10237000604505D0A84203D0B04201D0B84203D195
:1023800022F44075CA682A4322F080054A692A432C
:1023900002608A68C2620A688262984201D0A042E2
:1023A00001D10969016301214161F0BD002C0140A7
:1023B0000004004000080040000C004000340140D0
:1023C00010B50123046A8B409C430462036A8A406F
:1023D0001343036210BD10B5846842EA032224F45B
:1023E0007F440A432243826010BD826822F070025B
:1023F0000A4342F007018160704710B5036A046A1E
:1024000024F001040462846924F0F00444EA021414
:1024100023F00A020A438461026210BD70B5046AA7
:1024200024F0010404628469056A124EB0420ED0A1
:10243000114EB0420BD0B0F1804F08D00F4EB042D9
:1024400005D00F4EB04202D00E4EB04203D124F060
:102450000304144301E044F001041A0724F0F004DB
:1024600044EA126225F00A0301F00A01194382616D
:10247000016270BD002C01400034014000040040A6
:1024800000080040000C004010B5036A23F0100360
:1024900003628369046A23F4704343EA023224F03E
:1024A000A00343EA01118261016210BD30B5046AE4
:1024B00024F0100404628469056A24F4407444EA38
:1024C000022222F470444FF6FF7202EA03322243E2
:1024D000A02425F0A00304EA0111194382610162DE
:1024E00030BD10B5406A0021C185C184FFF753FAA1
:1024F00010BD0168CA6822F49072CA6001684A6916
:1025000022F001024A61202180F83A10704710B58C
:1025100090F83A10222901D0022010BD8168B1F54F
:10252000805F11D00169002901681FD0496801F05E
:102530007F03816A4A1C82620B70C18D491E0904A7
:10254000090CC18518D02BE00269816A002A026853
:10255000526805D0D2B20A80816A491C8162ECE7D8
:10256000C2F308020A80816A891CF7E74A68816A17
:102570004B1C83620A70E0E70168CA6822F02002FF
:10258000CA600168CA6822F48072CA6001684A6938
:1025900022F001024A61202180F83A10FFF75EFB29
:1025A000002010BD2DE9F041044600680169E26891
:1025B00021F44051114301612169A0680843616918
:1025C00008432168CA6841F20C639A430243CA6017
:1025D00020684169A26921F44071114341614C496D
:1025E00020686425322688423CD1FEF7BFFC00EB10
:1025F000C00101EB001061688900B0FBF1F7FEF744
:10260000B5FC00EBC00101EB00106168B046890029
:10261000B0FBF1F0B0FBF5F06FF01801484307EBA9
:10262000800106EB0110B0FBF5F000F0F006FEF7BC
:102630009DFC00EBC00101EB001061688900B0FB5C
:10264000F1F0B0FBF5F006EB0016FEF78FFC00EBA7
:10265000C00101EB001061688900B0FBF1F7FEF7E3
:1026600085FC3BE0FEF772FC00EBC00101EB0010C3
:1026700061688900B0FBF1F7FEF768FC00EBC00170
:1026800001EB00106168B0468900B0FBF1F0B0FBCF
:10269000F5F06FF01801484307EB800106EB0110DD
:1026A000B0FBF5F000F0F006FEF750FC00EBC001C7
:1026B00001EB001061688900B0FBF1F0B0FBF5F0B0
:1026C00006EB0016FEF742FC00EBC00101EB001028
:1026D00061688900B0FBF1F7FEF738FC00EBC00140
:1026E00001EB001061688900B0FBF1F0B0FBF5F080
:1026F0006FF01801484307EB800108EB0110B0FBB5
:10270000F5F0216800F00F0030448860BDE8F081EA
:102710000038014090F83910212901D0022070477B
:102720008168B1F5805F016A0BD04A1C02620268C1
:1027300009785160C18C491E0904090CC1840ED06E
:1027400017E009880268C1F3080151600169002996
:10275000016A02D0491C0162ECE7891CFBE70168B1
:10276000CA6822F08002CA600068C16841F0400176
:10277000C160002070472DE9F041984617460E468B
:102780000446069D1DE0681C1BD02DB1FEF768FABB
:10279000A0EB0800A84214D92068C16821F4D071C8
:1027A000C1602068416921F001014161202084F865
:1027B000390084F83A00002084F838000320BDE88E
:1027C000F0812068006836EA000004D00020B8429A
:1027D000D9D00020F3E70120F9E700000148FFF716
:1027E000DBB80000340400200148FFF7D5B8000032
:1027F000740400200148FFF7CFB80000B4040020A3
:10280000FEE7FEE70FB4054B10B503A9044A029892
:1028100000F0CAF810BC5DF814FB0000113200088B
:102820005800002002E008C8121F08C1002AFAD18F
:1028300070477047002001E001C1121F002AFBD140
:10284000704700002DE9FF5FDDE90220010DDDF892
:1028500038B0024318D044F61050A1F2FF31414382
:102860000D140F98012820D0A5EB0B00401C5FEA47
:10287000000A4FF00004474EDFF81C91A046504676
:1028800016D5CAF1000728E00F98012443A20128B9
:1028900008D0002100980F9BC0E90021C0E9024345
:1028A000BDE8FF9F6FEA0B01F4E7CBF10000DEE724
:1028B000074612E0F80707D022463346404649460D
:1028C000FDF76CFF8046894622463346104619467E
:1028D000FDF764FF04460E467F10002FEAD1DDE9C4
:1028E0000201BAF1000F42464B4602DAFDF756FFED
:1028F00001E0FDF798FD04460E460022284BFDF747
:10290000D7FF03D84FF0FF30014607E00022254BE8
:1029100020463146FDF7E0FCFDF7B2FF102409E048
:10292000002C0ADB0A220023FDF752FE019B303205
:102930001A55641E50EA0102F2D1641C019AC4F1D6
:10294000110314440F9A012A03D0012208430DD128
:102950000AE0084304D000204FF0110B0F9080E7ED
:10296000A3EB0B056D1E0DE05B4504DD4FF000028F
:1029700005F1010504E003DA4FF00002A5F10105BD
:10298000002AECD000980F99C0E90231C0E9004557
:1029900086E70000000024400000F03F3000000007
:1029A0000000F0430000E03F2DE9FF4F95B09B464B
:1029B0008946064600250FE2252877D100242746C0
:1029C000F84A0121059400E0044316F8013F203B3A
:1029D00001FA03F01042F7D130782A2811D06FF0B5
:1029E0002F033078A0F13002092A16D8059A44F056
:1029F000020402EB820203EB42021044761C0590B3
:102A0000EFE759F8042B0592002A03DA504244F408
:102A10000054059044F00204761C30782E2816D11C
:102A200016F8010F44F004042A280DD06FF02F028D
:102A30003078A0F13003092B09D807EB870302EBAC
:102A40004303C718761CF3E759F8047B761C3078EB
:102A50006C280FD006DC4C2817D068280DD06A28C7
:102A600014D104E0742810D07A280FD10DE044F47A
:102A700000140AE044F4801401E044F44014727835
:102A8000824202D104F58014761C761C30786628C8
:102A90000BD013DC582877D009DC002875D04528E6
:102AA000F6D04628F4D047281AD19DE118E06328D3
:102AB00035D0642879D0652812D195E1702873D07B
:102AC00008DC6728F1D069286FD06E280DD06F28F8
:102AD00006D1B5E073282CD0752875D0782874D02D
:102AE0005A46179990476D1C75E1C4F302500228AD
:102AF00009D003280DD0D9F8001004280DD00D609E
:102B000009F1040967E1D9F80010EA17C1E9005298
:102B1000F6E7D9F800100D80F2E70D70F0E719F82C
:102B2000041B8DF8001000208DF80100EA460120FA
:102B300003E059F804AB4FF0FF3061074FF000019C
:102B400002D40DE008F101018846B9420FDA804550
:102B5000F8DB1AF808100029F4D108E008F10101A7
:102B600088468142FADB1AF808100029F6D1059848
:102B70005B46A0EB080721463846179A00F094FA06
:102B8000284400EB080507E04DE029E10DE01AF8C4
:102B9000010B5A4617999047B8F10108F7D25B46E6
:102BA00021463846179A13E142E00A220092C4F304
:102BB00002524FF0000A022A08D059F804CB032A27
:102BC0004FEAEC710AD00DE029E02AE009F1070193
:102BD00021F00702F2E802C1914609E00FFA8CFCED
:102BE0004FEAEC71042A03D14FFA8CFC4FEAEC71E6
:102BF000002907DA0A460021DCF1000C61EB020132
:102C00002D2202E0220504D52B228DF8042001227A
:102C100003E0E20701D02022F7E7904659E00A21BD
:102C200002E010220DE010214FF0000A00910BE0AD
:102C300010224FF0000A44F004040827009203E039
:102C400008224FF0000A0092C4F30252022A05D073
:102C500059F804CB0021032A08D009E009F1070143
:102C600021F00702F2E802C1914605E01FFA8CFC50
:102C7000042A01D10CF0FF0C4FF00008220728D5E0
:102C8000702806D0009B83F0100353EA0A0305D096
:102C90000EE040228DF80420012208E05CEA0102E7
:102CA00006D030228DF804208DF8050002229046CF
:102CB000009B83F0080353EA0A030AD15CEA01028D
:102CC00001D1620705D530228DF804204FF00108AC
:102CD0007F1E582804D034A003900EA802900DE067
:102CE00036A0F9E753466046009AFDF771FC84462A
:102CF0000398825C0298401E029002705CEA010018
:102D0000F0D1029806A9081A00F1200A600702D53E
:102D100024F4803400E00127574502DDA7EB0A00C8
:102D200000E0002000EB0A01009005984144401AA1
:102D30000590E00306D45B462146179A059800F0FB
:102D4000B3F90544002706E001A85A46C05D17996B
:102D500090476D1C7F1C4745F6DBE0030CD55B46B6
:102D60002146179A059800F09FF9054404E03020A9
:102D70005A46179990476D1C0099481E00900029EB
:102D8000F5DC08E0029802995A460078491C029145
:102D9000179990476D1CBAF10001AAF1010AF1DC04
:102DA00065E100000928010030313233343536370F
:102DB0003839616263646566000000003031323387
:102DC0003435363738394142434445460000000027
:102DD00000F058F90544761C307800287FF4ECADFB
:102DE00019B02846BDE8F08F620700D4062709F124
:102DF000070222F0070CFCE80223E14603F000483A
:102E00005FEA080C02D00FF2702C0DE05FEA045C60
:102E100002D50FF2682C07E05FEAC47C02D00FF203
:102E2000602C01E0AFF2700C4FF0FF3823F000434C
:102E3000CDF850C065280CD006DC452809D04628BE
:102E40001DD047283DD13DE0662818D067287ED1A7
:102E500038E00021112F01DB112000E0781CCDE9C2
:102E6000000106A90EA8FFF7EDFCDDE90F010E9A9F
:102E700003910021009207F1010A04914DE04FF007
:102E800000400097CDE9011006A90EA8FFF7DAFC73
:102E9000DDE90F0203920E9B11990022DDF80CA0D0
:102EA0000093049211B9791C00EB010AB7EB0A00F8
:102EB00004D4C0F1FF3007F1010A0490AAEB070027
:102EC000019044E0012F00DA01270021112F01DDDC
:102ED000112000E03846CDE9000106A90EA8FFF751
:102EE000B1FCDDE90F010E9A0391002104910092DB
:102EF000BA4621070CD40399514500DA8A46BAF143
:102F0000010F05DD009AAAF10101515C302908D0BA
:102F1000B84202DA10F1040F06DA0121CDE90110FE
:102F200015E0AAF10101E9E7002805DC0499014454
:102F30000491AAEB000102E0411C514500DD8A46E4
:102F40000499401A401C01904FF000400290200765
:102F500004D40198504501DBCDF8048000208DF8A1
:102F60004F0002980DF14F07B0F1004F25D02B20F4
:102F70000E9002984FF0020800280CDA40420290AE
:102F80002D200E9007E00A210298FDF70BFB30314F
:102F9000029007F8011DB8F10001A8F10108F2DC68
:102FA00002980028EFD1791E0E980870307800F052
:102FB000200040F0450007F8020D12A8C01B00F1E8
:102FC00007081498007800B1012000EB0A0101986D
:102FD00001EBE07105984144401A401E0590E00362
:102FE00006D45B462146179A059800F05DF8054423
:102FF0001498007818B15A46179990476D1CE00351
:1030000024D55B462146179A059800F04DF80544F3
:103010001CE00498002807DBDDE90301884203DD9A
:103020000098405C179901E0179930205A46904764
:10303000049805F10105401C04900198401E019080
:1030400004D12E205A46179990476D1CBAF1000101
:10305000AAF1010ADDDC05E017F8010B5A461799C1
:1030600090476D1CB8F10001A8F10108F4DC5B4643
:103070002146179A0598ABE62D0000002B000000B2
:10308000200000002DE9F041044600251E461746A9
:10309000880404D405E039462020B0476D1C641E26
:1030A000F9D52846BDE8F0812DE9F0410446002518
:1030B0001E469046C80301D5302700E0202788042B
:1030C00004D505E041463846B0476D1C641EF9D56D
:1030D0002846BDE8F08100002DE9F0412D4F4FF466
:1030E000006631463846FDF7ADFD2B4C2B4D4FF4B5
:1030F0008078002834D01420FDF79EFC31463846F5
:10310000FDF7A0FD20B301202070002240212846B9
:10311000FDF7A1FD002241463846FDF79CFD00F079
:103120009BF91FA0FFF76EFB00F096F920A0FFF7B8
:1031300069FB00F091F9224D2C78A02C06D2214891
:103140000068FDF7ECF9204921F81400641C2C708C
:1031500031463846FDF776FD0028F9D1BDE8F0810B
:1031600000F07AF919A0FFF74DFB00F075F91AA0ED
:10317000FFF748FB00F070F9002020700122402189
:103180002846FDF768FD41463846BDE8F04101227A
:10319000FDF761BD0008014029000020001001403A
:1031A00074352E70636F3D363334383800000000BC
:1031B00074352E7478743D22D3D0D5CFB0AD2200B3
:1031C000000000201C0000207402002074352E70C6
:1031D000636F3D323031360074352E7478743D2281
:1031E000CEDED5CFB0AD2200084B10B500210A4687
:1031F0009970D2B230F81240521CD2B221449A7067
:10320000052AF6D30520B1FBF0F010BD0000002028
:1032100013B54FF6FF73012269460248FEF734FEEC
:1032200000981CBD3404002010B51548FFF7DCFFE2
:1032300082B21448144C4FF48051C82A0AD9012292
:10324000FDF709FD11A0FFF7DDFA6078012816D01F
:10325000012009E00022FDF7FEFC0FA0FFF7D2FAE3
:10326000607802280BD00220607000F0F5F86178D9
:103270000CA0FFF7C7FABDE8104000F0EDB810BD94
:103280005C00002000080140000000200D0ACBED8A
:10329000B5C0CDE2000000000D0ACBEDB5C0C4DA28
:1032A00000000000706167652025640008B5FDF727
:1032B000E5FCFEF7DAFFFEF747FEFEF71DFFFEF71F
:1032C00047FFFEF76BFFFEF78FFFFEF7C3FE0122FD
:1032D00045494648FEF798FC43490122491C4448A9
:1032E000FEF792FC4348FEF7B1F8FDF729FE4721AF
:1032F000B0FBF1F54048FEF7A9F800213E48FEF783
:1033000012FA3EA0FFF77EFA00F0A6F83FA0FFF702
:1033100079FA00F0A1F8DFF8D080DFF8F8B008F112
:1033200017084FF0804AA8F1180998F80010404695
:1033300001294CD18188B8F80200C1EB01410C1879
:10334000B4FBF5F0B4FBF5F105FB104232A0FFF73A
:1033500059FAB4FBF5F005FB1040FDF7D3F8002255
:10336000354BFDF760F80646B4FBF5F00F46FDF768
:10337000C9F832463B46FCF7AFFF02460B46002039
:103380002E49FDF750F8FDF7F1F84C462C49FCF7B3
:1033900065FFE060216906460091FCF759FF57463A
:1033A000B84207DC31460098FCF752FFB84201DC16
:1033B000E06801E00098E0602061FDF7C4F8024693
:1033C0000B4620A0FFF71EFA002188F80010FFF737
:1033D00083FE00F053F820215846FDF738FCC82042
:1033E000FDF72AFBA1E7000009000020740400207B
:1033F000B4040020F4030020B40300205379737454
:10340000656D206973204F6B210A0000706167654C
:1034100020300000000C01403E3EB2E2B5C3B8DFF0
:10342000B5E7C6BDC2F6BFEDCAB1BCE4A3BA256418
:103430002E256420730A000080842E410000344051
:103440000000C8423E3EB2E2B5C3D0A1B3B5CBD96D
:10345000B6C8A3BA25660A0010B5FF2106A0FFF77B
:10346000D1F9FF2104A0FFF7CDF9BDE81040FF21FD
:1034700001A0FFF7C7B900002563000070B5FFF792
:10348000EBFF8B4801688BA0FFF7BCF9FFF7E4FF67
:103490008C4801888CA0FFF7B5F9FFF7DDFF8E4857
:1034A0000068FDF750F802460B468CA0FFF7AAF91A
:1034B000FFF7D2FF8D480068FDF745F802460B463E
:1034C0008BA0FFF79FF9FFF7C7FF8D4C207830B92D
:1034D000FFF7C2FF8BA0FFF795F9FFF7BDFF20783C
:1034E0008C4C4FF40076A515012804D0022810D08A
:1034F000032821D036E0FFF7AFFF87A0FFF782F95E
:10350000FFF7AAFF012231462046FDF7A4FB002267
:103510001FE0FFF7A1FF84A0FFF774F9FFF79CFFFE
:10352000012231462046FDF796FB012280212046EC
:10353000FDF791FB002211E0FFF78EFF7EA0FFF761
:1035400061F9FFF789FF002231462046FDF783FB32
:10355000012280212046FDF77EFB012229462046DC
:10356000FDF779FB7848017801297DD100210170B0
:10357000FFF772FF754C76A02178FFF743F9FFF74C
:103580006BFF784D207805EB4010018876A0FFF79F
:1035900039F9FFF761FF207805EB4010418877A0EB
:1035A000FFF730F9FFF758FF207805EB40108188CE
:1035B00077A0FFF727F9FFF74FFF207805EB4010C2
:1035C000C18878A0FFF71EF9FFF746FF207805EBCA
:1035D0004010018978A0FFF715F9FFF73DFF20782B
:1035E00005EB4010418979A0FFF70CF9FFF734FF94
:1035F000207805EB4010818979A0FFF703F9FFF7E8
:103600002BFF207805EB4010C1897AA0FFF7FAF86C
:10361000FFF722FF207805EB4010018A7AA0FFF720
:10362000F1F8FFF719FF207805EB4010418A7BA0E5
:10363000FFF7E8F8FFF710FF207805EB4010818ACC
:103640007BA0FFF7DFF8FFF707FF207805EB4010BE
:10365000C18A7CA0FFF7D6F8FFF7FEFE207805EBC5
:103660004010018B7CA000E020E0FFF7CBF8FFF7D3
:10367000F3FE207805EB4010418B7CA0FFF7C2F8E9
:10368000FFF7EAFE207805EB4010818B7CA0FFF766
:10369000B9F8FFF7E1FE207805EB4010C18B7DA063
:1036A000FFF7B0F8BDE87040FFF7D6BE70BD000070
:1036B000100000207431372E7478743D2225642266
:1036C00000000000260000207431342E7478743D10
:1036D00022256422000000001400002074372E749C
:1036E00078743D22252E3266220000001C00002046
:1036F00074392E7478743D22252E32662200000023
:103700002800002074322E7478743D22CDA3D6B9DF
:10371000220000000010014074322E7478743D22A3
:10372000C7B0BDF82200000074322E7478743D22B8
:10373000BAF3CDCB2200000074322E7478743D228F
:10374000C9B2B3B5220000002A0000202B000020DF
:10375000743330302E7478743D2225642F3130223A
:103760000000000074020020743230302E7478742F
:103770003D22313A202564220000000074323031AD
:103780002E7478743D22323A202564220000000015
:10379000743230322E7478743D22333A20256422FC
:1037A00000000000743230332E7478743D22343AB5
:1037B0002025642200000000743230342E747874A6
:1037C0003D22353A20256422000000007432303555
:1037D0002E7478743D22363A2025642200000000C1
:1037E000743230362E7478743D22373A20256422A4
:1037F00000000000743230372E7478743D22383A5D
:103800002025642200000000743230382E74787451
:103810003D22393A202564220000000074323039FC
:103820002E7478743D2231303A2025642200000045
:10383000743231302E7478743D2231313A2025644F
:1038400022000000743231312E7478743D223132FE
:103850003A20256422000000743231322E747874CC
:103860003D2231333A202564220000007432313386
:103870002E7478743D2231343A20256422000000F1
:10388000743231342E7478743D2231353A202564F7
:1038900022000000743231352E7478743D223136A6
:1038A0003A20256422000000000000000000000013
:1038B00001020304060708090000000001020304D6
:1038C000E0380008000000205C0000002428000808
:1038D0003C3900085C000020A408000034280008DF
:1038E00000000000000000000000000000000000D8
:1038F00000000000000000000000000000000000C8
:1039000000000000000000000000000000000000B7
:103910000000CAFDBEDDD2E7B3F628B4F3D3DA3235
:103920003536290D0A0000000100000010000000DB
:0C3930000000000000A24A04000000009B
:0400000508000131BD
:00000001FF
