:020000040800F2
:100000008889002045010008272A0008ED260008FD
:10001000252A00085D090008B93B0008000000001F
:10002000000000000000000000000000153600087D
:100030005F09000800000000492A00081736000880
:100040005F0100085F0100085F0100085F01000810
:100050005F0100085F0100085F0100085F01000800
:100060005F0100085F0100085F0100085F010008F0
:100070005F0100085F0100085F0100085F010008E0
:100080005F0100085F0100085F0100085F010008D0
:100090005F0100085F0100085F0100085F010008C0
:1000A0005F0100085F0100085F0100085F010008B0
:1000B0005F0100085F0100085F0100085F010008A0
:1000C0005F0100085F0100085F0100085F01000890
:1000D0005F010008953B0008A13B0008AD3B00080C
:1000E0005F0100085F0100085F0100085F01000870
:1000F0005F0100085F0100085F0100085F01000860
:100100005F0100085F010008D53600085F010008A4
:100110005F0100085F010008E13600085F01000888
:100120005F0100085F0100085F0100085F0100082F
:10013000DFF80CD000F0D4FB0048004775460008FB
:10014000888900200648804706480047FEE7FEE70A
:10015000FEE7FEE7FEE7FEE7FEE7FEE7FEE7FEE777
:100160008D36000831010008202A04DB203A21FAEC
:1001700002F00021704721FA02F3D040C2F12002C0
:100180009140084319467047D2B201E000F8012BB4
:10019000491EFBD270470022F6E710B513460A4607
:1001A00004461946FFF7F0FF204610BDF0B480EA80
:1001B0000102D40F4200B2EB410F02D202460846C0
:1001C00011464A0042D0C30DDDB2C1F3C752AD1A89
:1001D000202D35DAC1F3160141F4000204B1524278
:1001E000C5F1200602FA06F12A411044B3EBD05FB4
:1001F00023D0C4B1012DA0EBC35009DCF0BC4FF0FB
:10020000004202EAC352DBB200F5000000F03BBA44
:10021000400000F1807000EBC350A0F1807040EA14
:10022000D170490009E0490841EAC071A0EBC35010
:1002300000F50000400800EBC350F0BC00F01ABA13
:100240006142012202EB4101001BF6E7F0BC70475E
:1002500081F00041AAE780F00040A7E730B480EACF
:10026000010202F0004530F0004221F0004013D0BE
:1002700090B1C30DD40DC2F31601C0F31600E41AF9
:1002800041F4000140F400027D34914201D3641C2A
:1002900000E04900002C02DA30BC002070474FF427
:1002A00000000023914201D3891A034340084FEA1A
:1002B0004101F7D151B1914202D14FF0004105E027
:1002C00002D24FF0010101E06FF0010103EBC450D5
:1002D000284430BC00F0CEB92DE9FE4F804681EABB
:1002E0000300C00F0C46009021F0004123F00045B0
:1002F000B8EB0200A94105D24046214690461C4673
:100300000B46024623F00040104347D0270DC7F3A9
:100310000A00C3F30A510290401A019040286BDA98
:10032000C3F3130040F4801B0098924620B10023D1
:10033000D2EB030A63EB0B0B01985946C0F1400264
:10034000504600F076F906460D4650465946019A49
:1003500000F07EF910EB08006141002487EA115299
:1003600084EAE7731A4340D0009A62B3019A012AE3
:100370004FEA075215DC001B61EB02014FF000420F
:1003800002EA0752CDE90042001C41F580113246D5
:100390002B4600F0B5F903B0BDE8F08F404621468A
:1003A000F9E7001B61EB0201001C41F58013001806
:1003B0005B412018A2F5001747EB030140EAD57016
:1003C000B6196D4111E06D084FEA360645EAC07571
:1003D0004FEA0752001B61EB0201001C41F580113E
:1003E00049084FEA30000019514132462B4603B00C
:1003F000BDE8F04F00F075B90098012240000023DD
:10040000D0EB020263EBE073009821464FEAE07400
:10041000B8EB000061EB0401E9E783F000435BE720
:1004200081F0004158E72DE9F04D81EA030404F022
:10043000004B21F0004514464FF0000A23F0004124
:1004400050EA050220D054EA01021DD0C5F30A5734
:100450000246C5F31303C1F31300C1F30A5640F477
:10046000801543F48013A7EB0608101BD64608F24C
:10047000FD3873EB050002D308F1010801E0921882
:100480005B41B8F1000F03DA00200146BDE8F08DB2
:1004900000204FF48011064684460EE0171B73EBD4
:1004A000050705D3121B63EB050306434CEA010C59
:1004B00049084FEA300092185B4150EA0107EDD13C
:1004C00052EA030012D082EA040083EA05010843DD
:1004D00005D0101BAB4106D20122002306E000220A
:1004E0004FF0004302E06FF0010253101AEB0600D8
:1004F0004CEB085110EB0A0041EB0B01BDE8F04D4D
:1005000000F0EFB80EB540F2334102910021CDE981
:1005100000110A460B4600F0F3F803B000BD20F0CE
:100520000040C10DC0F3160040F400007F2901DA3D
:1005300000207047962903DCC1F19601C84070473E
:1005400096398840704700F0004230F000400AD0F1
:10055000C10D01F56071C0F3160042EA0151C208F5
:1005600040071143704700200146704701F00043E7
:1005700030B421F0004150EA010206D00A0DA2F584
:100580006072C1F31301002A02DC30BC0020704706
:10059000440F44EAC104C100E01830BC00EBC25073
:1005A00000F068B830B50B46014600202022012437
:1005B00009E021FA02F59D4205D303FA02F5491B31
:1005C00004FA02F52844151EA2F10102F1DC30BD47
:1005D0002DE9F05F0546002092469B468846064678
:1005E000814640241BE02846414647462246FFF705
:1005F000BBFD53465A46C01A914110D311461846C6
:10060000224600F016F82D1A67EB01084F462246E5
:100610000120002100F00DF817EB00094E41201ECB
:10062000A4F10104DFDC484631462A464346BDE8D2
:10063000F09F202A04DB203A00FA02F100207047E4
:100640009140C2F1200320FA03F319439040704710
:10065000202A06DBCB17203A41FA02F043EAE07386
:1006600006E041FA02F3D040C2F120029140084373
:10067000194670470029A8BF7047401C490008BFB1
:1006800020F00100704710B4B0FA80FC00FA0CF0C2
:1006900050EA010404BF10BC704749B1CCF12004FA
:1006A00021FA04F411FA0CF118BF01212143084387
:1006B000A3EB0C01CB1D4FEA00614FEA102042BFB3
:1006C000002010BC704700EBC35010440029A4BFA9
:1006D00010BC7047401C490008BF20F0010010BC4E
:1006E000704710B5141E73F1000408DA401C41F184
:1006F000000192185B411A4301D120F0010010BDA6
:100700002DE9F04D92469B4611B1B1FA81F202E01B
:10071000B0FA80F220329046FFF78BFF04460F4676
:1007200040EA0A0041EA0B0153465A46084313D0F7
:10073000114653EA010019D0C8F140025046FFF7B4
:1007400013FD05460E46504659464246FFF771FFD7
:10075000084305D0012004E020463946BDE8F08D6D
:100760000020054346EAE0762C4337430A986305A8
:10077000E40AA0EB08000022FD0A44EA47540A30CC
:1007800002D500200146E9E7010510196941DDE9BC
:10079000084500196941BDE8F04DA2E72DE9FE4F7B
:1007A00081EA030404F0004421F0004100944FF07A
:1007B000000B23F0004350EA01045ED052EA030428
:1007C0005BD0C3F30A54C1F30A552C44A4F2F334AA
:1007D0000194A0FB0254C1F3130141F48011C3F34F
:1007E000130343F4801301FB024400FB034E840A0D
:1007F000970A44EA815447EA8357A4FB07680295A5
:100800008D0A05FB07854FEA932C04FB0C54270542
:10081000029D4FEA065847EA1637B5EB08056EEB1E
:10082000070C870E920E47EA811742EA8312A7FB54
:100830000201B6EB0B0164EB00042B0D43EA0C3311
:100840005E1844EB1C50DA465146E7FB0201C5F343
:1008500013044FEA0B3343EA14534FEA0432019C6A
:1008600043EA0603A4F10C040294009CCDE900B411
:10087000FFF746FF03B0BDE8F08F00200146F9E71F
:10088000C1F30A52C1F3130140F2FF3341F4801166
:100890009A4202DA00200146704740F233439A42FE
:1008A000A2F2334202DC5242FFF75EBCFFF7C1BE48
:1008B00030B5041E71F1000404DB4FF000444042E7
:1008C00064EB0101141E73F1000405DB1C464FF0BC
:1008D0000043524263EB0403994208BF904230BD8B
:1008E000064C074D06E0E06840F0010394E807007D
:1008F00098471034AC42F6D3FFF71EFC8C4C00082E
:10090000AC4C00082DE9F04114460D46064632274E
:1009100013E000BFB4FBF7F007FB104020B92A68D2
:1009200008A0316803F04AF930682968884202D08B
:100930000020BDE8F0812D1D361D641EEAD2012085
:10094000F7E700006275663A307825303858202D78
:10095000203078253038580D0A000000FEE7704737
:1009600010B5002303E09C1840F823405B1C8B4229
:10097000F9D310BD2DE9F05F90F821100024022971
:1009800003D004218163012485E001680A6822F014
:100990000E020A6001680A6822F001020A603F4EF6
:1009A0003E4FB215DFF8F4C0DFF8F090DFF8ECA0AE
:1009B000DFF8E8B0DFF8E4E00168783F13011502E2
:1009C000ACF1640CA9F15009AAF13C0AABF1280B77
:1009D000AEF1140E4FF48018B14227D9B9420ED0AF
:1009E000614512D049451DD0514518D0594518D000
:1009F000714501D1424615E0294EB14201D1012293
:100A000010E0274E1436B14201D110220AE0244EE4
:100A10002836B14206D0224A3C32914201D11A46D0
:100A200000E02A461E49091F0A602BE0B94213D094
:100A3000614517D0494522D051451DD059451DD09B
:100A4000714501D142461AE0B14202D14FF08072A5
:100A500015E0134EB14201D1012210E0104E1436C0
:100A6000B14201D110220AE00D4E2836B14206D023
:100A70000B4A3C32914201D11A4600E02A4607490E
:100A800080394A60012180F82110002180F820106F
:100A9000416B01B188472046BDE8F09F80000240CD
:100AA0000804024070B5044600F010F90546601CC9
:100AB00002D004480078044400F008F9401BA0422A
:100AC000FAD370BD4C0000202DE9F84FDFF8B8A133
:100AD00000220AF1040B144601274FF00F090BF115
:100AE000040E00BF0B6807FA04F52B40AB4274D12B
:100AF000DFF898C14E68A6EB0C0866452BD00DDCDC
:100B0000032E34D005DC36B3012E19D0022E2FD19E
:100B10001BE0112E16D0122E2AD119E0B8F5881F2D
:100B200019D006DCB8F5803F15D0B8F5801F1FD16D
:100B300011E0B8F5001F0ED0B8F5041F18D10AE077
:100B4000CA6815E0CA68121D12E0CA6808320FE0D0
:100B5000CA680C320CE08A682AB1012A4FF00802F8
:100B600003D0456104E0042202E0056100E00022B8
:100B7000FF2B01D8064601E000F104064FEA840588
:100B800001D9A5F12005D6F800C009FA05F82CEA2C
:100B9000080C02FA05F54CEA050CC6F800C04D68D1
:100BA000ED006AD53A4DAE6946F00106AE61AD6919
:100BB00024F0030605F001050095364D06EB050C03
:100BC000DCF80850A6074FEA167809FA08F6B5438C
:100BD000314EB04202D100261AE04EE02F4EB04214
:100BE00001D1012614E02E4EB04201D102260FE0C1
:100BF0002C4EB04201D103260AE02B4EB04201D167
:100C0000042605E0294EB04201D1052600E0062663
:100C100006FA08F62E43CCF808604D68DAF8006052
:100C2000ED03554601D51E4300E09E432E604D68FE
:100C3000AD0305D5DBF800601E43CBF8006004E08F
:100C4000DBF800509D43CBF800504D68DEF80060A3
:100C5000ED02754601D51E4300E09E432E604D68AF
:100C6000AD0205D5084D0C352E681E432E6004E0FC
:100C7000054E0C3635689D433560641C102CFFF41E
:100C800031AFBDE8F88F00000004014000001110F2
:100C9000001002400000014000080140000C01402B
:100CA000001001400014014000180140001C0140E8
:100CB0008068084000D001207047C2684A40C26086
:100CC00070470AB1016170470904FBE70148806879
:100CD000704700004C0000200248816802781144EF
:100CE000816070474C000020074810B5016841F052
:100CF00010010160032000F09DF8002000F006F8CC
:100D000000F024F8002010BD0020024070B50D4D09
:100D100004464FF47A712878B1FBF0F00A4909686B
:100D2000B1FBF0F000F0CAFE48B9102C07D2002247
:100D30002146501E00F05EF800206C6070BD01205E
:100D400070BD00004C00002058000020214808B56C
:100D5000816941F001018161816901F00101009126
:100D6000C16941F08051C161C06900F080500090BC
:100D7000032000F05FF8002211466FF00B0000F036
:100D800039F8002211466FF00A0000F033F8002213
:100D900011466FF0090000F02DF800221146501F97
:100DA00000F028F800221146101F00F023F800225E
:100DB0001146901E00F01EF800221146501E00F051
:100DC00019F80548416821F0E06141F08061416017
:100DD00008BD0000001002400000014000F01F02AA
:100DE000012191404009800000F1E020C0F800118D
:100DF00070470000F0B40E4B1B680C46C3F302238F
:100E0000C3F10705042D00D90425191D072901D2B6
:100E1000002300E0DB1E012606FA05F1491E2140F1
:100E200099409E40761E16403143F0BC01F0FCBD57
:100E30000CED00E0064900F0070208684FF6FF03DA
:100E4000184040EA0220034A10430860704700003F
:100E50000CED00E00000FA052DE9F047DFF83C81D9
:100E600005460E46D8F8000000F00700B0420CD24C
:100E7000D8F8001021F007013143C8F80010D8F865
:100E8000000000F00700B04263D12878444C80078E
:100E900005D56068A96820F0F000084360602878F4
:100EA000C00745D06868012816D02168022816D0EE
:100EB000890700294DDA616821F00301014361606F
:100EC000FFF704FF6968074641F2883001290FD017
:100ED0000229814619D027E021688903E9E78901C1
:100EE000E7E700BFFFF7F2FEC11B494501D918E053
:100EF00081466068C0F381000128F3D118E000BF8B
:100F0000FFF7E4FEC11B49450BD86068C0F38100C0
:100F10000228F5D10CE000BFFFF7D8FEC11B494500
:100F200002D90320BDE8F087606810F00C0FF3D100
:100F3000D8F80010404601F00701B1420BD9016812
:100F400021F0070131430160006800F00700B04262
:100F500001D00120E6E72878400705D56068E968F8
:100F600020F4E060084360602878000706D56068D8
:100F7000296920F4605040EAC100606000F03CF84C
:100F80006168084AC1F30311515CC8400649086012
:100F90000020FFF7BBFE0020C4E700000020024055
:100FA00000100240744C00085800002001480068FE
:100FB000704700005800002004480549006849684F
:100FC000044AC1F30221515CC84070475800002018
:100FD00000100240844C0008044805490068496834
:100FE000044AC1F3C221515CC84070475800002038
:100FF00000100240844C000812A185B00FC98DE892
:101000000F0014A0144A006804905168134801F0BE
:101010000C03042B10D0082B0ED1C1F38343C9035A
:101020001DF803000AD5516804AAC1F34041515C80
:101030000A4A5043B0FBF1F005B0704708494843F5
:10104000FAE7000002030405060708090A0B0C0D65
:101050000E0F1010010200000010024000127A0072
:1010600000093D002DE9F84F04460078B94DC0074E
:1010700048D06868C0F38100012807D06868C0F3D1
:101080008100022809D16868C00306D5286880035A
:1010900038D5606800286FD034E06068B0F5803FD4
:1010A0000BD010B1B0F5A02F11D0286820F48030FB
:1010B0002860286820F4802002E0286840F480300E
:1010C0002860606888B1FFF701FE064609E02868DD
:1010D00040F480202860F0E7FFF7F8FD801B6428CB
:1010E00075D828688003F7D50CE0FFF7EFFD0646BA
:1010F00005E000BFFFF7EAFD801B6428F0D82868F0
:101100008003F7D42078944E80074FF001094FF008
:1011100000083BD5686810F00C0F07D06868C0F372
:101120008100022809D16868C00306D428688007B6
:1011300014D5206901281FD110E02069B0B1C6F88C
:101140000090FFF7C3FD074605E000BFFFF7BEFDB7
:10115000C01B0228C4D828688007F7D528686169B1
:1011600020F0F80040EAC10028600FE0C6F80080D7
:10117000FFF7ACFD074606E0E9E000BFFFF7A6FD7C
:10118000C01B022823D828688007F7D420780007DE
:101190002CD57248A169D9B1C0F80090FFF796FD2F
:1011A000074604E0FFF792FDC01B02280FD8686ACB
:1011B0008007F7D56A484FF4FA510068B0FBF1F0A8
:1011C000009000BF0098411E0091FAD20EE080E02E
:1011D000C0F80080FFF77AFD074604E0FFF776FDD0
:1011E000C01B022875D8686A8007F7D420784007AA
:1011F00060D5E8690027C00008D4E86940F0805055
:10120000E861E869012700F08050009055480168C6
:10121000C90513D40168834641F480710160FFF76A
:1012200055FD824606E000BFFFF750FDA0EB0A0027
:1012300064284ED8DBF80000C005F5D5E068012829
:101240000AD008B1052813D0286A20F001002862CE
:10125000286A20F0040002E0286A40F001002862B9
:10126000E06841F2883B98B1FFF730FD82460BE021
:10127000286A40F004002862EEE700BFFFF726FD71
:10128000A0EB0A0159455AD8286A8007F6D50CE028
:10129000FFF71CFD824605E0FFF718FDA0EB0A01F1
:1012A00059454CD8286A8007F6D41FB1E86920F068
:1012B0008050E861E06988B36968C1F3810102295F
:1012C00045D00228C6F8608004D0FFF7FFFC044632
:1012D00038E034E0FFF7FAFC074604E0FFF7F6FCDD
:1012E000C01B02282BD828688001F7D4206AB0F5EB
:1012F000803F05D16868A16820F400300843686029
:10130000D4E908010843696821F47411084368604E
:10131000C6F86090FFF7DAFC044606E015E000BF6F
:10132000FFF7D4FC001B022809D828688001F7D5F4
:101330000BE000BFFFF7CAFC001B022802D9032004
:10134000BDE8F88F28688001F4D40020F8E7012078
:10135000F6E70000001002400000424280044242D2
:101360005800002000700040FEB5044603200D46E2
:1013700084F83400606C032820D0B5F5805F1DD060
:10138000B5F5006F05D045B1A06B40F00060A063DB
:1013900009E0204602F095F802E0204602F06AF8E3
:1013A000A16B0143A163A06B012658B1216840F2F3
:1013B000FF50886384F834600120FEBDA06B40F0CC
:1013C0008050E4E7211DD4E905700EC90095CDE9F0
:1013D0000170206801F055FB84F834600020FEBDE8
:1013E0002DE9F041044690F834001546884601285E
:1013F00002D00220BDE8F0810020A063454503D261
:10140000A06B40F0006005E0E06DA84204D2A06B44
:1014100040F00070A06339E0032084F8340094F8B1
:101420004C004FF001068006206840F2FF5704D4BC
:101430008763A06B40F0806009E0002101F01BFB96
:10144000800106D520688763A06B40F40060A0632C
:101450001AE0606C012804D06D024FEA4828032886
:1014600009D04146206801F05EFC40B92946206859
:1014700001F040FC18B9206801F096FB40B12168EA
:101480008F63A16B0143A16384F834600120B1E74D
:1014900084F834600020ADE7F0B5426E120E930977
:1014A0000B70C2F383034B7002F003028A70426E2A
:1014B000120CCA70B0F86420120A0A7190F8642005
:1014C0004A71826E4FF6FF73120E03EA0212CA804F
:1014D000826ECB88C2F3074243EA1213CB8002F03C
:1014E0000F020A72B0F86820C2F30722D3094B72C8
:1014F000C2F380138B72C2F34013CB72C2F300139A
:101500000B7300264E73446C4FF4007701236CB1CB
:10151000012C43D0026840F2FF519163816B41F08E
:101520008051816380F834300120F0BD9207120DA4
:101530000A6190F868200C6944EA82020A61C26E6E
:101540000C69120E44EA92140C61C2F3C2040C75C9
:1015500002F007024A75C26EC2F3074254098C7545
:10156000C2F38204CC759207520F0A76B0F86C2051
:10157000C2F307240A7E42EAD4120A760A69521C90
:1015800042650D7EAD1CAA4042650D7A03FA05F551
:1015900085656D0A6A43C0E917271CE090F868204A
:1015A0009206920A0A61C26E0C69120E44EA022285
:1015B0000A61C26E0C69C2F3074214430C61B0F8B1
:1015C0006C20C2F307240A69521C4FEA822242654A
:1015D000C0E916720766C4F3801201F8192F4FEAAA
:1015E00084624FEA52624A7010F86C2F4C7844EAD9
:1015F000D2144C7002F07F028A7042684FEA126285
:101600004FEAD214CC70C2F341140C71C2F38204BD
:101610004C714FEA82724FEA12728A7142688C7979
:10162000C2F3074244EA92148C71C2F34014CC71A5
:101630000E7202F001024A728288C2F307224FEA58
:10164000D2148C72C2F38014CC72C2F340140C73A7
:10165000C2F300144C73C2F381048C7302F00302D2
:10166000CA7300794FEA500008744B744FF00000C1
:10167000F0BD70B5040004D094F83400002510B11A
:1016800005E0012070BD2577204600F037F80320E3
:1016900084F83400204600F007F8A5632563012094
:1016A00084F83400002070BDFEB500250446C32038
:1016B0000095CDE901502B462A462946206801F0C5
:1016C000E0F90D4E46F8A05F206801F0ECF9012525
:1016D00035600220FFF7E6F9204601F07AFE20B9D6
:1016E000204601F003FE002805D084F83450A16B99
:1016F0000143A1630120FEBD0000304230B5006807
:10170000104985B088421BD10F48416941F480617E
:1017100041614069022400F4806004904FF4F85065
:10172000CDE900040325694603950848FFF7CCF985
:101730000420CDE90004694603950548FFF7C4F984
:1017400005B030BD00800140001002400010014093
:10175000001401402DE9F04F87B09A4617460E4617
:101760000446DDF840B0FFF7B1FA00903EB194F8BE
:101770003400012807D0A06B40F000500FE0A06BB0
:1017800040F000600BE04FF00008C4F83880E06DD6
:1017900007EB0A01814204D9A06B40F00070A063FE
:1017A0007DE0032084F834002068C0F82C80606C51
:1017B000012800D07F024FF40071206801F0C2F9C7
:1017C00040F2FF59012530B12268C2F83890A16B70
:1017D0000143A16361E04FF0FF3001904FEA4A20DE
:1017E0000290902003900220CDE90408069501A9FB
:1017F000206801F02AF9BAF1010F06D9022020630E
:101800003946206801F044FA04E02563394620682F
:1018100001F057FA0028D7D140F22A382068416BEE
:1018200011EA080F22D1406B000409D50027206877
:1018300001F03DF946F827007F1C082FF7D320362A
:10184000BBF1000F05D0FFF741FA0099411A594545
:10185000E4D32168C1F83890A06B40F00040A06349
:1018600084F83450032007B0BDE8F08F416BC90500
:1018700009D5BAF1010F06D9616C032903D001F033
:10188000E1FA0028A0D12068416B090709D5C0F80A
:101890003890A06B40F0080028E084F83450012014
:1018A000E1E7416B890705D5C0F83890A06B40F09F
:1018B00002001BE0416B89061AD5C0F83890A06B76
:1018C00040F0200012E000BF01F0F1F801C6BBF1CA
:1018D000000F05D0FFF7FAF90099411A594507D3CF
:1018E0002168C1F83890A06B40F00040A063D4E7B5
:1018F0002068416B8902E7D42168C1F8389084F8E8
:1019000034500020AFE700002DE9F04F87B09A4631
:1019100016460D460446FFF7D9F906903DB194F8F6
:101920003400012807D0A06B40F000500DE0A06B00
:1019300040F0006009E00020A063E26D06EB0A01C0
:10194000914204D9A06B40F00070A06390E00321A5
:1019500084F8341021688146C862606C012800D088
:1019600076024FF40071206801F0ECF840F2FF5865
:10197000012730B12268C2F83880A16B0143A1630E
:1019800017E0BAF1010F06D9202020633146206804
:1019900001F072FA05E0102020633146206801F062
:1019A00084FA060008D02168C1F83880A06B304363
:1019B000A06384F834705BE04FF0FF3000904FEA92
:1019C0004A200190902002904846CDE90407CDF8C6
:1019D0000C90B9466946206801F037F840F21A3B8E
:1019E00022E0406B40040AD55FF0000705EB870159
:1019F000206801F06FF87F1C082FF7D3203510986E
:101A000030B1FFF763F90699411A109881420BD360
:101A10002168C1F83880A06B3043A06384F834900B
:101A2000032007B0BDE8F08F2068416B11EA0B0F6F
:101A3000D7D0416BC9050FD5BAF1010F0CD9616C34
:101A4000032909D001F0FEF930B12268C2F83880CC
:101A5000A16B0143A16309E02068416B090709D527
:101A6000C0F83880A06B40F0080014E084F834908F
:101A70000120D6E7416B890705D5C0F83880A06BF7
:101A800040F0020007E0416BC0F83880C90604D579
:101A9000A06B40F01000A063E8E784F834900020C9
:101AA000BFE74FF0E0210428086903D020F00400CC
:101AB0000861704740F00400FAE7704710B5401E17
:101AC000B0F1807F01D3012010BD4FF0E0246061B0
:101AD0000F21601700F0A8FF0020A06107202061FF
:101AE000002010BD10B5FFF7E8FF10BD704770472C
:101AF00030B590F83C20012A20D0012280F83C200B
:101B0000022380F83D3003685C6824F070045C6058
:101B100003685C680D682C435C6003689C6824F073
:101B200080049C6003689C6849680C439C6080F852
:101B30003D20002180F83C10084630BD022030BD19
:101B400010B5040003D094F83D0010B107E0012067
:101B500010BD002084F83C00204600F00DF8022063
:101B600084F83D00211D206801F0C0FD012084F8AB
:101B70003D00002010BD000000B51A4A01681A4857
:101B800085B0914218D1C16941F00801C161C069B5
:101B9000694600F0080004900120009000200190A8
:101BA000022002901148FEF78FFF002211463220DA
:101BB000FFF720F9322010E00D4A91420FD1C169A0
:101BC00041F01001C161C069002200F010000490D2
:101BD00011463620FFF70EF93620FFF7FFF805B063
:101BE00000BD0000000C0040001002400008014051
:101BF000001000400168CA6842F00102CA60006833
:101C0000016841F0010101600020704770B5044691
:101C100090F83C00012817D0012584F83C500220A0
:101C200084F83D002068826822F0770222F47F4227
:101C300082600868502837D00DDC202859D005DC98
:101C400088B3102841D151E0022070BD302853D014
:101C500040283AD13FE060282ED070280BD0B0F554
:101C6000805F03D0B0F5005F2FD110E0206881685D
:101C700021F0070115E0CB68D1E90121206801F0CE
:101C800086FD2168886840F0770088601DE0CB6899
:101C9000D1E90121206801F07AFD2068816841F4D2
:101CA0008041816011E01EE0CA684968206801F047
:101CB00080FD5021206806E0CA684968206801F06C
:101CC000BFFD6021206801F06CFD84F83D500020CC
:101CD00084F83C0070BDCA684968206801F069FD5D
:101CE00040212068EFE700212068ECE71021206800
:101CF000E9E720212068E6E730212068E3E70000DB
:101D00002DE9FF411B4D07460024687801266FF03E
:101D10000208C0B10021184800F0EEF96880CDE952
:101D200000460294002269461348039400F026F806
:101D30003968C1F8108000210F4800F0C8F86C70B5
:101D40002E70BDE8FF8138684462AC806C80CDE9BC
:101D500000460294002269460748039400F00EF8FA
:101D60003968C1F810800021034800F0B0F86E70A7
:101D7000E7E70000240000203C8400202DE9F0412A
:101D8000044690F83C000D4601283BD0012684F81B
:101D90003C60022084F83D009AB3042A44D02068B5
:101DA000082A53D0D5E90027E968036A23F4805351
:101DB0000362D0F81CC0036A2CF4407C4CEA07276D
:101DC0004FF6FF7C27F470470CEA01313943770363
:101DD00023F4005307EA02321A43C1610262206809
:101DE000C16921F44061C1612068C169AA6841EA02
:101DF0000221C16184F83D60002084F83C00BDE808
:101E0000F08101E00220FAE7D5E90012EB682068D2
:101E100001F0E0FC2068816921F00C0181612068FB
:101E20008169AA6811430FE0D5E90012EB682068C8
:101E300001F018FD2068816921F44061816120680A
:101E40008169AA6841EA02218161D3E7D5E9002CC2
:101E50002F7B016A21F480710162C169036A21F05C
:101E6000030141EA0C0121F0F00C39074FF420671F
:101E70004CEA116123F4206307EA02221A43C1618C
:101E800002622068C16921F00C01C1612068C1694A
:101E9000AA681143ADE710B5040003D094F83D00E3
:101EA00010B107E0012010BD002084F83C0020465E
:101EB00000F00CF8022084F83D00211D206801F09C
:101EC00015FC012084F83D00002010BD704710B5BE
:101ED0000268044631B1042908D0082915D00C291C
:101EE00008D116E0D06840F0020002E0D06840F06F
:101EF0000400D0600122206801F03EFC20680168E7
:101F000041F001010160002010BDD06840F00800E0
:101F1000EFE7D06840F01000EBE770B504460068CA
:101F200001694FF00005C943890715D4C168C94349
:101F3000890711D4E91E016101202077206880699A
:101F40008007204602D0FFF7DBFE04E000F098F89F
:101F5000204600F096F8257720680169C9434907B3
:101F600017D4C168C943490713D46FF00401016154
:101F7000022020772068806910F4407F204602D03C
:101F8000FFF7BEFE04E000F07BF8204600F079F891
:101F9000257720680169C943090716D4C168C94378
:101FA000090712D46FF0080101610420207720682E
:101FB000C0698007204602D0FFF7A2FE04E000F0CF
:101FC0005FF8204600F05DF8257720680169C94375
:101FD000C90617D4C168C943C90613D46FF01001EC
:101FE0000161082020772068C06910F4407F2046F6
:101FF00002D0FFF785FE04E000F042F8204600F032
:1020000040F8257720680169C943C90708D1C1682C
:10201000C943C90704D1891E0161204600F032F886
:1020200020680169C943090609D4C168C943090682
:1020300005D46FF0800101612046FFF757FD20684D
:102040000169C943490609D4C168C943490605D491
:102050006FF040010161204600F070F820680169CE
:10206000C94389060BD4C168C943890607D46FF0F8
:10207000200101612046BDE87040FFF738BD70BD0A
:102080007047704710B5164A0168914203D1154A4E
:102090009188491C91800068134988421ED1114CD7
:1020A0001C3C2078002819D0A068401CA060B0F526
:1020B0007A7F13D12169A069FEF778F8A061E06802
:1020C0000021401CE06010F1060F00D9E160A16022
:1020D000E168BDE8104005A001F070BD10BD000032
:1020E000000C004024000020001000400D0A54693C
:1020F0006D653D25640A000090F83C300022012BFC
:102100000AD0012380F83C3041B1042909D00829C4
:102110000AD00C290DD10AE00220704701684A6BF1
:1021200007E001688A6B04E00168CA6B01E001689E
:102130000A6C002180F83C101046704770477047C9
:1021400070B5026804461068D168536910F00F0F2B
:1021500051D003F0010501F4907635435DD0C207FC
:1021600005D0CA0503D5E26B42F00102E2634207E3
:1021700005D5DA0703D0E26B42F00202E263820780
:1021800005D5DA0703D0E26B42F00402E2630207EE
:1021900005D5DA0703D0E26B42F00802E263E26B96
:1021A000002A34D0800604D5880602D5204601F0E6
:1021B0008AFB20684069E16BC0F3801001F00801E0
:1021C0000143204624D001F070FB20684169490694
:1021D0001AD5416921F040014161606BA0B11B49F2
:1021E0004163606BFEF7C6FB002810D0606B416B4B
:1021F000BDE87040084783060FD58B060DD52046F5
:10220000BDE8704001F05FBB2046FFF798FF70BD4E
:10221000FFF795FF0020E06370BD030606D50B06AF
:1022200004D52046BDE8704001F050BC4006F3D50F
:102230004806F1D5D168204621F04001D160202127
:1022400084F8391000F051FA70BD00009B38000886
:1022500070B5040004D094F83900002510B106E0F0
:10226000012070BD84F83850204600F023F8242067
:1022700084F839002068C16821F40051C16020460B
:1022800001F06CFB2068016921F490410161206834
:10229000416921F02A0141612068C16841F400517F
:1022A000C160E563202084F8390084F83A000020FA
:1022B00070BD0000F0B50368374F02200024374995
:1022C0000322374D460285B0BB421DD18B6943F4D2
:1022D00080438B618969039201F48041049101027A
:1022E000CDE9001069462846FEF7EEFBCDE9006413
:1022F000694628460294FEF7E7FB00221146252096
:10230000FEF778FD252020E0264FBB4221D1CB6986
:1023100043F40033CB61C969039201F400310491A5
:102320000421CDE9001069462846FEF7CDFB0820C0
:10233000CDE90004694628460294FEF7C5FB002259
:1023400011462620FEF756FD2620FEF747FD05B074
:10235000F0BD154DAB42FAD1CB6943F48023CB617C
:10236000C969124D01F48021CDE90321CDE9006056
:1023700069462846FEF7A8FBE814CDE90004694643
:1023800028460294FEF7A0FB002211462720FEF704
:1023900031FD2720D9E7000000380140001002403D
:1023A000000801400044004000480040000C01408B
:1023B00090F83A30202B22D1F9B1F2B190F83830B0
:1023C000012B1CD081628285C2850021C16322223B
:1023D00080F83A2080F838100168CA6842F48072A8
:1023E000CA6001684A6942F001024A610068C16836
:1023F00041F02001C1600020704701207047022099
:10240000704700002DE9F05F81466D48C18CC18D99
:1024100090F8391090F83A10C06B6A49D9F800006A
:10242000012600254FF6FF7B884264D1664C207858
:10243000FF280BD3257089156448FDF7ACFE5B4679
:10244000142263495E4800F0F3F84EE06149DFF87A
:102450007CA1614F0A780AF80020401CC0B22070AD
:102460005044DFF8788110F8010C662805D13E70E1
:1024700088F800605AA001F0A1FB21780AEB010066
:1024800010F8010C672806D10220387088F8006027
:1024900057A001F093FB21780AEB010010F8010C22
:1024A000682806D10320387088F8005054A001F045
:1024B00085FB2178564A0AEB010010F8011C5548AB
:1024C000702904D0712905D0722908D00DE016704A
:1024D00005700AE01670017839B1491E04E01670E3
:1024E0000178092901D2491C017025704FF48071CF
:1024F0003648FDF750FE012236493148FFF758FFB4
:102500004549D9F80000884257D144480178FF294D
:102510000DD305704FF480714148FDF73CFE28480B
:102520005B4614222A49403000F082F83DE03D48E5
:10253000274C02782248A41F8030592A02D1592101
:102540000170667061784254491C6170017842786C
:102550008678C3781144F2181144027990F806C0C5
:102560008F1841790F44674490F807C06744A780EB
:10257000007AFFB2B84218D12B4806EB032606803A
:1025800002EB012060800E48657009218030FDF764
:1025900002FE2649207821F81060401CC0B220704D
:1025A000052802D9257002F023F8BDE8F05F044841
:1025B00001221C494030FFF7FBBEBDE8F09F000040
:1025C000FC8400200044004003000020780000202C
:1025D00036000020090000202C0000200800002008
:1025E0000D0ACED2CAC7B4AEBFDAB6FE36360A007E
:1025F0000D0ACED2CAC7B4AEBFDAB6FE36370A006D
:102600000D0ACED2CAC7B4AEBFDAB6FE36380A005B
:102610002E0000202F000020004800400400002071
:10262000780100200A0000202A000020600000201D
:102630002DE9F843044690F839001F4616460D462A
:10264000202850D1A5B19EB194F8380001284AD075
:10265000012084F838004FF00008C4F83C802120A5
:1026600084F83900FEF732FBA6848146E68426E032
:102670000120BDE8F883E08C401EE084A0684B4652
:10268000B0F5805F4FF000024FF0800120460097C8
:1026900003D001F04CFAE8B90DE001F048FAC8B9EE
:1026A00028882168C0F308004860206908B16D1CC3
:1026B00005E0AD1C03E0216815F8010B4860E08CD3
:1026C0000028D8D14B46002240212046009701F037
:1026D0002EFA08B10320CCE7202084F8390084F8D2
:1026E00038800020C5E70220C3E77047FEE70000FE
:1026F0002DE9F043384885B0816941F0400181619E
:10270000816901F040010491816941F00401816116
:10271000816901F004010491816941F0080181613E
:10272000816901F008010491816941F01001816122
:10273000816901F010010491816941F020018161FA
:102740008069264F00F020000490012220213846A5
:10275000FEF7B7FADFF88880012241F2F011404617
:10276000FEF7AFFADFF87C90012220214846FEF701
:10277000A8FA01242026CDE90064032569463846DD
:10278000CDE90245FEF7A0F94FF4F870CDE9000459
:1027900069464046CDE90245FEF796F9E002009011
:1027A00000200227CDE9010769464046FEF78CF973
:1027B000200303958DE8910069464046FEF784F9B1
:1027C000CDE9006469464846CDE90245FEF77CF94B
:1027D00005B0BDE8F0830000001002400018014081
:1027E00000080140000C0140114810B50F4901607C
:1027F000002141608160C16001614161042181610A
:10280000FEF737FF18B141210AA001F0D6F94FF4C5
:1028100000610748FEF7A8FD002805D0BDE810407C
:10282000462104A001F0C9B910BD0000008001409C
:10283000B88300202E2E2F5372632F7364696F2E7E
:102840006300000010B523488AB021490160472188
:102850000024C0E901144FF6FF71C0E9031484613C
:10286000FFF76EF918B143211BA001F0A6F94FF450
:102870008050049004A91748FFF7C8F918B14921FE
:1028800015A001F09AF91348FFF705FB18B14E2186
:1028900011A001F092F9089408A90E480994FFF7D5
:1028A00027F918B155210CA001F087F90120CDE9D5
:1028B000004002940022694606480394FFF75EFA3E
:1028C000002803D05E2104A001F077F90AB010BD02
:1028D000000C00403C8400202E2E2F5372632F7476
:1028E000696D2E63000000001CB510480E490024DD
:1028F00001604721C0E9011440F2E7318461C16001
:10290000FFF71EF918B16E2109A001F056F90094E5
:10291000694606480194FFF7EBF8002803D07521BB
:1029200003A001F04AF91CBD001000407C84002087
:102930002E2E2F5372632F74696D2E6300000000DA
:102940000D4810B50B4901604FF4E13141600021A1
:1029500081600C22C160C0E904128161C161FFF78E
:1029600077FC002805D0BDE81040452103A001F008
:1029700024B910BD00380140BC8400202E2E2F53F6
:1029800072632F75736172742E6300000D4810B569
:102990000B4901604FF4E1314160002181600C225C
:1029A000C160C0E904128161C161FFF751FC0028D8
:1029B00005D0BDE81040582103A001F0FEB810BDBD
:1029C00000440040FC8400202E2E2F5372632F758C
:1029D000736172742E6300000D4810B50B490160DD
:1029E0004FF4E1314160002181600C22C160C0E9F7
:1029F00004128161C161FFF72BFC002805D0BDE8FE
:102A000010406B2103A001F0D8B810BD0048004071
:102A10003C8500202E2E2F5372632F7573617274C4
:102A20002E630000FEE770470907090E002806DA4A
:102A300000F00F0000F1E02080F8141D704700F155
:102A4000E02080F80014704770470A6842624A68C4
:102A50008262D1E902231A43D1E904310B43C16AEE
:102A60001A4321F0F7011143C1620020704700684A
:102A700000F00300704708B5084414300090006867
:102A800008BD70B50DF1100C11439CE87000234394
:102A9000194329434268314347F6FF639A430A4387
:102AA0004260002070BD0321016000207047D0F813
:102AB000800070470A688260D1E901231A43D1E996
:102AC00003310B43C1681A436FF30B011143C1601B
:102AD000002070470968C0F880100020704710B5CA
:102AE00086B004463720CDE9001040200290002037
:102AF00003904FF48060049069462046FFF7DAFFA8
:102B000041F288323721204600F0E8F906B010BDC6
:102B100010B504460A4886B001432920CDE90010CB
:102B200040200290002003904FF48060049069469A
:102B30002046FFF7BFFF204600F086FA06B010BD22
:102B40000000108010B586B004461020CDE90010BA
:102B500040200290002003904FF48060049069466A
:102B60002046FFF7A7FF41F288321021204600F0EF
:102B7000B5F906B010BD10B586B004460620CDE903
:102B8000001040200290002003904FF480600490D9
:102B900069462046FFF78EFF41F288320621204623
:102BA00000F09CF906B010BD10B586B004460021B7
:102BB0002620CDE900104020CDE90201000104905B
:102BC00069462046FFF776FF4FF21862262120461D
:102BD00000F084F906B010BD30B585B0002405467C
:102BE000009401944FF480600294CDE9034069465B
:102BF0002846FFF75FFF0B484FF4FA510068B0FB1F
:102C0000F1F041F288314843401E03D24FF00040BA
:102C100005B030BD696B0906F6D540F2FF50A863D8
:102C20002046F5E75800002070B585B004464FF403
:102C3000D570009008204026CDE901060025C0018E
:102C4000CDE9035069462046FFF734FF0F484FF4A3
:102C5000FA510068B0FBF1F041F288314843401E60
:102C600002D24FF000450DE0616B11F0450FF6D038
:102C7000606B400702D5A663042503E0606B400645
:102C800000D5A66305B0284670BD0000580000209E
:102C900010B586B004461220CDE900104020029005
:102CA000002003904FF48060049069462046FFF7AF
:102CB00001FF41F288321221204600F00FF906B0E0
:102CC00010BD10B586B004461120CDE9001040209B
:102CD0000290002003904FF48060049069462046E3
:102CE000FFF7E8FE41F288321121204600F0F6F8A5
:102CF00006B010BD10B586B004462120CDE9001005
:102D000040200290002003904FF4806004906946B8
:102D10002046FFF7CFFE41F288322121204600F005
:102D2000DDF806B010BD10B586B004462020CDE910
:102D3000001040200290002003904FF48060049027
:102D400069462046FFF7B6FE41F288322021204630
:102D500000F0C4F806B010BD10B586B004460720D8
:102D6000CDE9002040200290002003904FF48060C5
:102D7000049069462046FFF79DFE41F28832072104
:102D8000204600F0ABF806B010BD10B586B0044682
:102D900000210220CDE90010C020CDE902014FF44E
:102DA0008060049069462046FFF784FE204600F0CC
:102DB00023F906B010BD10B586B004460920CDE950
:102DC0000010C0200290002003904FF48060049017
:102DD00069462046FFF76EFE204600F00DF906B06A
:102DE00010BD10B586B0044600213320CDE9001097
:102DF0004020CDE902010001049069462046FFF71A
:102E000059FE41F288323321204600F067F806B0BF
:102E100010BD30B585B00C46054600210320CDE934
:102E200000104020CDE902010001049069462846C7
:102E3000FFF740FE22460321284600F025F905B0A1
:102E400030BD000010B586B0044600210C20CDE94D
:102E500000104020CDE9020100010490694620469F
:102E6000FFF728FE034A0C21204600F037F806B091
:102E700010BD000000E1F50510B586B0044619202C
:102E8000CDE9001040200290002003904FF48060B4
:102E9000049069462046FFF70DFE41F28832192161
:102EA000204600F01BF806B010BD10B586B00446F1
:102EB0001820CDE9001040200290002003904FF42C
:102EC0008060049069462046FFF7F4FD41F28832A5
:102ED0001821204600F002F806B010BD444B10B592
:102EE0001B684FF4FA54B3FBF4F353435B1E02D256
:102EF0004FF0004010BD426B12F0450FF6D0426B10
:102F0000520703D504218163084610BD426BD207E6
:102F100002D00121816303E00269D2B28A4201D06A
:102F2000012010BD40F2FF5181630021FFF7A3FD96
:102F30003049084201D1002010BD002802DA4FF0CC
:102F4000007010BD410001D5402010BD810001D5A9
:102F5000802010BDC10002D54FF4807010BD01016A
:102F600002D54FF4007010BD410102D54FF48060CE
:102F700010BDC10102D54FF4006010BD010202D5A1
:102F80004FF4805010BD410202D54FF4005010BDE7
:102F9000810202D54FF4804010BDC10202D54FF42A
:102FA000004010BD410302D54FF4003010BD810335
:102FB00002D54FF4802010BDC10302D54FF400208C
:102FC00010BD010402D54FF4801010BD410402D59C
:102FD0004FF4001010BD810402D54FF4800010BDE5
:102FE000000702D54FF4000010BD4FF4803010BD33
:102FF0005800002008E0FFFD12494FF4FA5209681A
:10300000B1FBF2F141F288325143491E02D24FF036
:1030100000407047426B12F0450FF6D0416B4907F4
:1030200003D50421816308467047416BC90703D06B
:10303000012181630846704740F2FF5181630020FF
:1030400070470000580000200E494FF4FA520968FA
:10305000B1FBF2F141F288325143491E02D24FF0E6
:1030600000407047426B12F0450FF6D0416B4907A4
:1030700003D5042181630846704740F2FF51816304
:1030800000207047580000201F4B10B51B684FF4FC
:10309000FA54B3FBF4F341F2883463435B1E02D26B
:1030A0004FF0004010BD446B14F0450FF6D0436B59
:1030B0005B0703D504218163084610BD436BDB0722
:1030C00002D00121816303E00369DBB28B4201D0AE
:1030D000012010BD40F2FF5181630021FFF7CBFCBE
:1030E00010F4604F04D0410406D54FF4005010BDD9
:1030F000000C1080002010BD000402D54FF4805059
:1031000010BD4FF4803010BD5800002038B54FF48A
:10311000005542F2200229461648FEF761F9164C86
:103120000146E07015A000F049FD4FF4FA70FDF77C
:10313000B9FCE07808B116A016E04FF6FF700090D9
:1031400008232A4621490B48FEF704FBE07001469C
:103150001FA000F033FD4FF480511C4801F01CFA11
:103160002071012804D020A0BDE8384000F026BD21
:1031700024A0F9E7B883002008000020657261737D
:1031800065207374617475733A25640D0A0000003C
:10319000A1B7B2C1B3FDB2E2CAD4CAA7B0DCA3A141
:1031A000B2BFB7D65344B2BBD6A7B3D6B2C1B3FDF4
:1031B000A3ACD6BBD2AAB6C1D0B4B2E2CAD4CDA811
:1031C000B9FDBCB4BFC90D0A00000000B84300201F
:1031D00065726173652072656164207374617475D2
:1031E000733A25640D0A0000A1B7B2C1B3FDB2BBAA
:1031F000B3C9B9A6A3ACCAFDBEDDB3F6B4EDA3A1B5
:103200000D0A0000A1B7B2C1B3FDB2E2CAD4B3C97E
:10321000B9A6A3A10D0A00002DE9F04F89B00E4612
:103220000446FDF753FD00258346009501952F4682
:1032300008212068FFF786FC002834D1B4F850003C
:1032400001042068FFF74BFC00282CD1401E4FF0F2
:103250000808CDE9020830204FF00209CDE9040941
:103260000120CDE9067002A92068FFF7EEFB206877
:10327000FFF7B7FD002816D1EA4640F22A4720683A
:10328000416B394212D1416B890204D5FFF70FFC23
:103290004AF825006D1CFDF719FDA0EB0B00401C42
:1032A000EDD14FF0004009B0BDE8F08F416B090748
:1032B00003D5C0F838800820F5E7416B890703D5AE
:1032C000C0F838900220EEE7416B890603D5202133
:1032D00081630846E7E740F2FF518163009800BA36
:1032E0007060019800BA30600020DCE710B590B043
:1032F00004460120ADF838002068FFF7B8FB00282D
:1033000064D0606C032842D02068FFF73EFD00289F
:103310005AD100212068FFF7AEFB606704212068C6
:10332000FFF7A9FBA06708212068FFF7A4FBE0676F
:103330000C212068FFF79FFBC4F88000606C032815
:1033400025D00EA92068FFF764FD00283CD1606CF1
:1033500003281CD0BDF83800206501042068FFF761
:103360002AFD002830D100212068FFF784FB606629
:1033700004212068FFF77FFBA06608212068FFF783
:103380007AFBE0660C212068FFF775FB20670421BB
:103390002068FFF770FB000DE06403A92046FEF7EC
:1033A0007BF8B4F85000002302042068FFF7D4FC37
:1033B000002809D104F1100007C88DE8070094E83F
:1033C0000F00FFF75EFB002010B010BD4FF08060D3
:1033D000FAE72DE9F8430025044600950068FFF759
:1033E000FBFB00281AD12068FFF71EFC4FF0807805
:1033F0004FF6FF76D8B14FF08057A5640098411C76
:103400000091B0421AD000212068FFF768FB20B974
:1034100000212068FFF77CFB10B13846BDE8F88337
:1034200000212068FFF727FBC00FE7D01FE001272E
:10343000A7640098411C0091B04201D14046EDE7DD
:1034400000212068FFF74BFB0028E7D14FF08041B7
:103450002068FFF75DFB0028E0D100212068FFF71E
:103460000AFBC10FE5D0400001D5676400E0656448
:103470000020D3E71CB504460020009001900021F5
:103480002068FFF7F8FA800102D54FF400601CBDF8
:1034900069462046FFF7C0FE0028F8D10198C00316
:1034A0000CD5B4F8500001042068FFF718FB002881
:1034B000EDD100212068FFF75EFB1CBD4FF080605E
:1034C0001CBD1CB50446002000900190002120681E
:1034D000FFF7D1FA800102D54FF400601CBD6946A8
:1034E0002046FFF799FE0028F8D1019840030CD53B
:1034F000B4F8500001042068FFF7F1FA0028EDD17C
:1035000002212068FFF737FB1CBD4FF080601CBD17
:10351000F8B5002446F266624FF480512348FDF767
:103520001FFA08234FF6FF769F023A461F492048AC
:103530000096FEF7E9F91F4D0146E8701EA000F065
:103540003DFB4FF4FA70FDF7ADFA08233A461F49E8
:1035500017480096FEF7FEF8E87001461CA000F040
:103560002DFBFE10324619491048FDF7CBF92871A2
:10357000012801D01BA015E01FA000F01FFB0025B3
:10358000124F05E0082C03D11FA000F017FB002408
:1035900057F825101DA000F011FB641C6D1CB542EE
:1035A000F0DB19A0BDE8F84000F008BBB80300202C
:1035B000B883002008000020777269746520737456
:1035C000617475733A25640D0A000000B843002049
:1035D00072656164207374617475733A25640D0AB1
:1035E00000000000A1B7B6C1D0B4B2E2CAD4CAA7E5
:1035F000B0DCA3A10D0A2000A1B7B6C1D0B4B2E2DD
:10360000CAD4B3C9B9A6A3A10D0A000025303878E1
:1036100020202000704710B5FDF75EFBBDE810408C
:10362000FEF760BA30B58FB001210804CDE9001073
:103630000024029402250491CDE907504FF4E010D4
:1036400009906846FDF70EFD00B1FEE70F20CDE9B9
:103650000A054FF48060CDE90C4002210AA80E94BF
:10366000FDF7FAFB00B1FEE7FDF7A0FC4FF47A711D
:10367000B0FBF1F0FEF722FA0420FEF712FA002266
:103680001146501EFDF7B6FB0FB030BD0D48016866
:1036900041F00101016041680B4A1140416001683D
:1036A0000A4A11400160016821F4802101604168EB
:1036B00021F4FE0141604FF41F0181600449C00301
:1036C00008607047001002400000FFF8FFFFF6FEA0
:1036D00008ED00E00148FEF720BC00003C8400201B
:1036E0000148FEF71ABC00007C840020F0B5026897
:1036F0001C4B1D4D1D4E1E4F1E4C4FF0804C9842D2
:1037000009D0A04207D0604505D0A84203D0B042FE
:1037100001D0B84204D122F0700E4A6842EA0E028B
:10372000984209D0A04207D0604505D0A84203D0F6
:10373000B04201D0B84203D122F44075CA682A438E
:1037400022F080054A692A4302608A68C2620A68D8
:103750008262984201D0A04201D10969016301212E
:103760004161F0BD002C0140000400400008004011
:10377000000C00400034014010B50123046A8B4066
:103780009C430462036A8A401343036210BD10B570
:10379000846842EA032224F47F440A43224382607D
:1037A00010BD826822F070020A4342F00701816076
:1037B000704710B5036A046A24F001040462846946
:1037C00024F0F00444EA021423F00A020A4384615C
:1037D000026210BD70B5046A24F0010404628469B9
:1037E000056A124EB0420ED0114EB0420BD0B0F16D
:1037F000804F08D00F4EB04205D00F4EB04202D0DD
:103800000E4EB04203D124F00304144301E044F00F
:1038100001041A0724F0F00444EA126225F00A03B6
:1038200001F00A0119438261016270BD002C014060
:10383000003401400004004000080040000C00403B
:1038400010B5036A23F0100303628369046A23F44A
:10385000704343EA023224F0A00343EA011182617B
:10386000016210BD30B5046A24F01004046284695A
:10387000056A24F4407444EA022222F470444FF6AC
:10388000FF7202EA03322243A02425F0A00304EAD7
:10389000011119438261016230BD10B5406A0021F7
:1038A000C185C184FEF74BFC10BD0168CA6822F4D3
:1038B0009072CA6001684A6922F001024A612021BF
:1038C00080F83A10704710B590F83A10222901D0CC
:1038D000022010BD8168B1F5805F11D00169002917
:1038E00001681FD0496801F07F03816A4A1C826227
:1038F0000B70C18D491E0904090CC18518D02BE03D
:103900000269816A002A0268526805D0D2B20A8030
:10391000816A491C8162ECE7C2F308020A80816A6D
:10392000891CF7E74A68816A4B1C83620A70E0E7EA
:103930000168CA6822F02002CA600168CA6822F4DD
:103940008072CA6001684A6922F001024A6120213E
:1039500080F83A10FEF756FD002010BD2DE9F04129
:10396000044600680169E26821F440511143016195
:103970002169A0680843616908432168CA6841F267
:103980000C639A430243CA6020684169A26921F42A
:103990004071114341614C492068642532268842B8
:1039A0003CD1FDF719FB00EBC00101EB0010616891
:1039B0008900B0FBF1F7FDF70FFB00EBC00101EB55
:1039C00000106168B0468900B0FBF1F0B0FBF5F083
:1039D0006FF01801484307EB800106EB0110B0FBC4
:1039E000F5F000F0F006FDF7F7FA00EBC00101EB8F
:1039F000001061688900B0FBF1F0B0FBF5F006EB58
:103A00000016FDF7E9FA00EBC00101EB0010616858
:103A10008900B0FBF1F7FDF7DFFA3BE0FDF7CCFAE8
:103A200000EBC00101EB001061688900B0FBF1F709
:103A3000FDF7C2FA00EBC00101EB00106168B0466F
:103A40008900B0FBF1F0B0FBF5F06FF018014843CE
:103A500007EB800106EB0110B0FBF5F000F0F0067B
:103A6000FDF7AAFA00EBC00101EB001061688900C4
:103A7000B0FBF1F0B0FBF5F006EB0016FDF79CFA99
:103A800000EBC00101EB001061688900B0FBF1F7A9
:103A9000FDF792FA00EBC00101EB001061688900AC
:103AA000B0FBF1F0B0FBF5F06FF01801484307EB05
:103AB000800108EB0110B0FBF5F0216800F00F0069
:103AC00030448860BDE8F0810038014090F839103A
:103AD000212901D0022070478168B1F5805F016A19
:103AE0000BD04A1C0262026809785160C18C491EE1
:103AF0000904090CC1840ED017E009880268C1F3DB
:103B00000801516001690029016A02D0491C016263
:103B1000ECE7891CFBE70168CA6822F08002CA60F2
:103B20000068C16841F04001C160002070472DE984
:103B3000F041984617460E460446069D1DE0681C57
:103B40001BD02DB1FDF7C2F8A0EB0800A84214D994
:103B50002068C16821F4D071C1602068416921F0FA
:103B600001014161202084F8390084F83A000020E6
:103B700084F838000320BDE8F0812068006836EA48
:103B8000000004D00020B842D9D00020F3E7012083
:103B9000F9E700000148FEF7D3BA0000BC8400201A
:103BA0000148FEF7CDBA0000FC8400200148FEF772
:103BB000C7BA00003C850020FEE7FEE70FB4054BC6
:103BC00010B503A9044A029800F0CAF810BC5DF8C9
:103BD00014FB0000D94500085C00002002E008C882
:103BE000121F08C1002AFAD170477047002001E077
:103BF00001C1121F002AFBD1704700002DE9FF5FB1
:103C0000DDE90220010DDDF838B0024318D044F69A
:103C10001050A1F2FF3141430D140F98012820D01C
:103C2000A5EB0B00401C5FEA000A4FF00004474E72
:103C3000DFF81C91A046504616D5CAF1000728E0CF
:103C40000F98012443A2012808D0002100980F9B5F
:103C5000C0E90021C0E90243BDE8FF9F6FEA0B0104
:103C6000F4E7CBF10000DEE7074612E0F80707D0E3
:103C70002246334640464946FCF790FD8046894639
:103C80002246334610461946FCF788FD04460E4688
:103C90007F10002FEAD1DDE90201BAF1000F4246A0
:103CA0004B4602DAFCF77AFD01E0FCF7BCFB044668
:103CB0000E460022284BFCF7FBFD03D84FF0FF30E7
:103CC000014607E00022254B20463146FCF704FB65
:103CD000FCF7D6FD102409E0002C0ADB0A220023A1
:103CE000FCF776FC019B30321A55641E50EA010243
:103CF000F2D1641C019AC4F1110314440F9A012AF1
:103D000003D0012208430DD10AE0084304D000206B
:103D10004FF0110B0F9080E7A3EB0B056D1E0DE02C
:103D20005B4504DD4FF0000205F1010504E003DA14
:103D30004FF00002A5F10105002AECD000980F9980
:103D4000C0E90231C0E9004586E7000000002440D8
:103D50000000F03F300000000000F0430000E03FB2
:103D60002DE9FF4F95B09B468946064600250FE298
:103D7000252877D100242746F84A0121059400E040
:103D8000044316F8013F203B01FA03F01042F7D13B
:103D900030782A2811D06FF02F033078A0F130024C
:103DA000092A16D8059A44F0020402EB820203EBBA
:103DB00042021044761C0590EFE759F8042B059257
:103DC000002A03DA504244F40054059044F00204FF
:103DD000761C30782E2816D116F8010F44F0040412
:103DE0002A280DD06FF02F023078A0F13003092B74
:103DF00009D807EB870302EB4303C718761CF3E7E8
:103E000059F8047B761C30786C280FD006DC4C28DF
:103E100017D068280DD06A2814D104E0742810D077
:103E20007A280FD10DE044F400140AE044F4801421
:103E300001E044F440147278824202D104F5801407
:103E4000761C761C307866280BD013DC582877D087
:103E500009DC002875D04528F6D04628F4D047283C
:103E60001AD19DE118E0632835D0642879D06528FF
:103E700012D195E1702873D008DC6728F1D0692849
:103E80006FD06E280DD06F2806D1B5E073282CD0E6
:103E9000752875D0782874D05A46179990476D1CAC
:103EA00075E1C4F30250022809D003280DD0D9F8D7
:103EB000001004280DD00D6009F1040967E1D9F85C
:103EC0000010EA17C1E90052F6E7D9F800100D809A
:103ED000F2E70D70F0E719F8041B8DF800100020D0
:103EE0008DF80100EA46012003E059F804AB4FF0D9
:103EF000FF3061074FF0000102D40DE008F101012D
:103F00008846B9420FDA8045F8DB1AF80810002914
:103F1000F4D108E008F1010188468142FADB1AF881
:103F200008100029F6D105985B46A0EB080721464A
:103F30003846179A00F094FA284400EB080507E089
:103F40004DE029E10DE01AF8010B5A461799904708
:103F5000B8F10108F7D25B4621463846179A13E1BB
:103F600042E00A220092C4F302524FF0000A022AF1
:103F700008D059F804CB032A4FEAEC710AD00DE0BF
:103F800029E02AE009F1070121F00702F2E802C165
:103F9000914609E00FFA8CFC4FEAEC71042A03D138
:103FA0004FFA8CFC4FEAEC71002907DA0A4600212F
:103FB000DCF1000C61EB02012D2202E0220504D5A8
:103FC0002B228DF80420012203E0E20701D02022F9
:103FD000F7E7904659E00A2102E010220DE0102197
:103FE0004FF0000A00910BE010224FF0000A44F05D
:103FF00004040827009203E008224FF0000A009210
:10400000C4F30252022A05D059F804CB0021032A36
:1040100008D009E009F1070121F00702F2E802C126
:10402000914605E01FFA8CFC042A01D10CF0FF0C2C
:104030004FF00008220728D5702806D0009B83F097
:10404000100353EA0A0305D00EE040228DF8042045
:10405000012208E05CEA010206D030228DF804203B
:104060008DF8050002229046009B83F0080353EA76
:104070000A030AD15CEA010201D1620705D53022A8
:104080008DF804204FF001087F1E582804D034A07A
:1040900003900EA802900DE036A0F9E75346604663
:1040A000009AFCF795FA84460398825C0298401EB9
:1040B000029002705CEA0100F0D1029806A9081A89
:1040C00000F1200A600702D524F4803400E00127C3
:1040D000574502DDA7EB0A0000E0002000EB0A01D3
:1040E000009005984144401A0590E00306D45B46D1
:1040F0002146179A059800F0B3F90544002706E019
:1041000001A85A46C05D179990476D1C7F1C474512
:10411000F6DBE0030CD55B462146179A059800F0C4
:104120009FF9054404E030205A46179990476D1CCA
:104130000099481E00900029F5DC08E002980299D9
:104140005A460078491C0291179990476D1CBAF1A4
:104150000001AAF1010AF1DC65E100000928010073
:1041600030313233343536373839616263646566ED
:1041700000000000303132333435363738394142AF
:10418000434445460000000000F058F90544761C01
:10419000307800287FF4ECAD19B02846BDE8F08FE8
:1041A000620700D4062709F1070222F0070CFCE899
:1041B0000223E14603F000485FEA080C02D00FF248
:1041C000702C0DE05FEA045C02D50FF2682C07E06A
:1041D0005FEAC47C02D00FF2602C01E0AFF2700CF9
:1041E0004FF0FF3823F00043CDF850C065280CD0C5
:1041F00006DC452809D046281DD047283DD13DE0A2
:10420000662818D067287ED138E00021112F01DB05
:10421000112000E0781CCDE9000106A90EA8FFF7E7
:10422000EDFCDDE90F010E9A03910021009207F1E8
:10423000010A04914DE04FF000400097CDE90110D4
:1042400006A90EA8FFF7DAFCDDE90F0203920E9B28
:1042500011990022DDF80CA00093049211B9791C89
:1042600000EB010AB7EB0A0004D4C0F1FF3007F1FC
:10427000010A0490AAEB0700019044E0012F00DA44
:1042800001270021112F01DD112000E03846CDE982
:10429000000106A90EA8FFF7B1FCDDE90F010E9A97
:1042A0000391002104910092BA4621070CD403998E
:1042B000514500DA8A46BAF1010F05DD009AAAF1EC
:1042C0000101515C302908D0B84202DA10F1040F24
:1042D00006DA0121CDE9011015E0AAF10101E9E7B3
:1042E000002805DC049901440491AAEB000102E0D6
:1042F000411C514500DD8A460499401A401C01903A
:104300004FF000400290200704D40198504501DB93
:10431000CDF8048000208DF84F0002980DF14F0772
:10432000B0F1004F25D02B200E9002984FF00208DC
:1043300000280CDA404202902D200E9007E00A215E
:104340000298FCF72FF93031029007F8011DB8F1FF
:104350000001A8F10108F2DC02980028EFD1791ED3
:104360000E980870307800F0200040F0450007F803
:10437000020D12A8C01B00F107081498007800B1C4
:10438000012000EB0A01019801EBE071059841441E
:10439000401A401E0590E00306D45B462146179A5A
:1043A000059800F05DF805441498007818B15A4655
:1043B000179990476D1CE00324D55B462146179A58
:1043C000059800F04DF805441CE00498002807DB30
:1043D000DDE90301884203DD0098405C179901E0A4
:1043E000179930205A469047049805F10105401C62
:1043F00004900198401E019004D12E205A4617992E
:1044000090476D1CBAF10001AAF1010ADDDC05E05C
:1044100017F8010B5A46179990476D1CB8F1000127
:10442000A8F10108F4DC5B462146179A0598ABE633
:104430002D0000002B000000200000002DE9F041BD
:10444000044600251E461746880404D405E0394674
:104450002020B0476D1C641EF9D52846BDE8F081C8
:104460002DE9F041044600251E469046C80301D5BB
:10447000302700E02027880404D505E0414638466F
:10448000B0476D1C641EF9D52846BDE8F0810000D8
:104490002DE9F0412C4D4FF4006631462846FCF7DB
:1044A00007FC2A4CAF15002834D01420FCF7FAFA88
:1044B00031462846FCF7FCFB20B301202070002287
:1044C00010212846FCF7FDFB002239462846FCF760
:1044D000F8FB00F0ABF91EA0FFF770FB00F0A6F9A7
:1044E0001FA0FFF76BFB00F0A1F9214F3C78A02C37
:1044F00006D220480068FCF712F81F4921F8140082
:10450000641C3C7031462846FCF7D2FB0028F9D1E8
:10451000BDE8F08100F08AF918A0FFF74FFB00F02A
:1045200085F919A0FFF74AFB00F080F90020207000
:10453000012210212846FCF7C4FB39462846BDE875
:10454000F0410122FCF7BDBB000801402D00002016
:1045500074352E70636F3D363334383800000000F8
:1045600074352E7478743D22D3D0D5CFB0AD2200EF
:1045700000000020200000207802002074352E70FA
:10458000636F3D323031360074352E7478743D22BD
:10459000CEDED5CFB0AD220006E00268531C02D0BB
:1045A0000AB100207047001D491EF6D20120704755
:1045B000084B10B500210A469970D2B230F812406B
:1045C000521CD2B221449A70052AF6D30520B1FBC1
:1045D000F0F010BD0000002013B54FF6FF7301226C
:1045E00069460248FEF724F800981CBDBC840020F0
:1045F00010B51548FFF7DCFF82B21448144C4FF495
:104600008051C82A0AD90122FCF75BFB11A0FFF7F1
:10461000D5FA6078012816D0012009E00022FCF7C5
:1046200050FB0FA0FFF7CAFA607802280BD00220D7
:10463000607000F0FBF861780CA0FFF7BFFABDE8EE
:10464000104000F0F3B810BD6000002000080140E9
:10465000000000200D0ACBEDB5C0CDE20000000047
:104660000D0ACBEDB5C0C4DA0000000070616765CB
:104670002025640008B5FCF737FBFEF7D3FFFEF7F3
:1046800037F8FEF731F9FEF75BF9FEF77FF9FEF731
:10469000A3F9FEF7D7F8FEF7A7F8012247494848E3
:1046A000FDF786FE45490122491C4648FDF780FE7C
:1046B0004548FDF79FFAFCF779FC4721B0FBF1F57F
:1046C0004248FDF797FA00214048FDF700FC40A062
:1046D000FFF774FA00F0AAF841A0FFF76FFA00F0B4
:1046E000A5F8FEF713FDFEF713FFDFF8D080DFF823
:1046F000F8B008F11B084FF0804AA8F11C0998F89F
:104700000010404601294CD18188B8F80200C1EB65
:1047100001410C18B4FBF5F0B4FBF5F105FB1042B8
:1047200032A0FFF74BFAB4FBF5F005FB1040FBF7A6
:10473000E9FE0022354BFBF776FE0646B4FBF5F0AA
:104740000F46FBF7DFFE32463B46FBF7C5FD024650
:104750000B4600202E49FBF766FEFBF707FF4C4691
:104760002C49FBF77BFD2061616906460091FBF750
:104770006FFD5746B84207DC31460098FBF768FDED
:10478000B84201DC206901E0009820616061FBF71C
:10479000DAFE02460B4620A0FFF710FA002188F847
:1047A0000010FFF775FE00F053F820215846FCF783
:1047B00084FAC820FCF776F9A1E700000900002080
:1047C000FC8400203C8500207C8400203C84002068
:1047D00053797374656D206973204F6B210A000053
:1047E0007061676520300000000C01403E3EB2E27F
:1047F000B5C3B8DFB5E7C6BDC2F6BFEDCAB1BCE40C
:10480000A3BA25642E256420730A000080842E41FB
:10481000000034400000C8423E3EB2E2B5C3D0A121
:10482000B3B5CBD9B6C8A3BA25660A0010B5FF2127
:1048300006A0FFF7C3F9FF2104A0FFF7BFF9BDE809
:104840001040FF2101A0FFF7B9B900002563000067
:1048500070B5FFF7EBFF8948016889A0FFF7AEF953
:10486000FFF7E4FF8A4801888AA0FFF7A7F9FFF75E
:10487000DDFF8C480068FBF766FE02460B468AA007
:10488000FFF79CF9FFF7D2FF8B480068FBF75BFE50
:1048900002460B4689A0FFF791F9FFF7C7FF8B4C43
:1048A000207830B9FFF7C2FF89A0FFF787F9FFF73B
:1048B000BDFF20788A4C012804D0022810D003289C
:1048C00021D036E0FFF7B2FF86A0FFF777F9FFF7B8
:1048D000ADFF012280212046FCF7F3F900221FE002
:1048E000FFF7A4FF83A0FFF769F9FFF79FFF0122FD
:1048F00080212046FCF7E5F9012220212046FCF723
:10490000E0F9002211E0FFF791FF7EA0FFF756F9D2
:10491000FFF78CFF002280212046FCF7D2F901220C
:1049200020212046FCF7CDF9012240212046FCF74A
:10493000C8F97848017801297DD100210170FFF77D
:1049400075FF754C75A02178FFF738F9FFF76EFFFA
:10495000774D207805EB4010018876A0FFF72EF9FF
:10496000FFF764FF207805EB4010418876A0FFF741
:1049700025F9FFF75BFF207805EB4010818877A0D1
:10498000FFF71CF9FFF752FF207805EB4010C188B4
:1049900077A0FFF713F9FFF749FF207805EB4010E8
:1049A000018978A0FFF70AF9FFF740FF207805EBAF
:1049B0004010418978A0FFF701F9FFF737FF207811
:1049C00005EB4010818979A0FFF7F8F8FFF72EFF7B
:1049D000207805EB4010C18979A0FFF7EFF8FFF7C9
:1049E00025FF207805EB4010018A7AA0FFF7E6F852
:1049F000FFF71CFF207805EB4010418A7AA0FFF7F3
:104A0000DDF8FFF713FF207805EB4010818A7BA0CB
:104A1000FFF7D4F8FFF70AFF207805EB4010C18AB2
:104A20007BA0FFF7CBF8FFF701FF207805EB4010E4
:104A3000018B7CA000E020E0FFF7C0F8FFF7F6FE56
:104A4000207805EB4010418B7BA0FFF7B7F8FFF70C
:104A5000EDFE207805EB4010818B7CA0FFF7AEF8CF
:104A6000FFF7E4FE207805EB4010C18B7CA0FFF738
:104A7000A5F8BDE87040FFF7D9BE70BD1400002056
:104A80007431372E7478743D2225642200000000B2
:104A90002A0000207431342E7478743D222564225B
:104AA000000000001800002074372E7478743D2236
:104AB000252E3266220000002000002074392E745A
:104AC00078743D22252E3266220000002C00002042
:104AD00074322E7478743D22CDA3D6B92200000022
:104AE0000008014074322E7478743D22C7B0BDF8BE
:104AF0002200000074322E7478743D22BAF3CDCBBC
:104B00002200000074322E7478743D22C9B2B3B50D
:104B1000220000002E0000202F00002074333030CF
:104B20002E7478743D2225642F313022000000005D
:104B300078020020743230302E7478743D22313A7D
:104B40002025642200000000743230312E74787405
:104B50003D22323A202564220000000074323032B7
:104B60002E7478743D22333A202564220000000020
:104B7000743230332E7478743D22343A2025642206
:104B800000000000743230342E7478743D22353ABF
:104B90002025642200000000743230352E747874B1
:104BA0003D22363A2025642200000000743230365F
:104BB0002E7478743D22373A2025642200000000CC
:104BC000743230372E7478743D22383A20256422AE
:104BD00000000000743230382E7478743D22393A67
:104BE0002025642200000000743230392E7478745D
:104BF0003D2231303A2025642200000074323130E9
:104C00002E7478743D2231313A2025642200000050
:104C1000743231312E7478743D2231323A20256459
:104C200022000000743231322E7478743D22313308
:104C30003A20256422000000743231332E747874D7
:104C40003D2231343A202564220000007432313490
:104C50002E7478743D2231353A20256422000000FC
:104C6000743231352E7478743D2231363A20256401
:104C70002200000000000000000000000102030408
:104C8000060708090000000001020304AC4C0008FC
:104C90000000002060000000DC3B00080C4D000814
:104CA0006000002028890000EC3B000800000000A4
:104CB00000000000000000000000000000000000F4
:104CC00000000000000000000000000000000000E4
:104CD00000000000000000000000000000000000D4
:104CE0000000CAFDBEDDD2E7B3F628B4F3D3DA3252
:104CF0003536290D0A0000000100000010000000F8
:0C4D00000000000000A24A0400000000B7
:0400000508000131BD
:00000001FF
