:020000040800F2
:10000000A09A002045010008E7300008A12D000853
:10001000E5300008A7090008A14100080000000021
:10002000000000000000000000000000093C000883
:10003000B509000800000000093100080B3C000869
:100040005F0100085F0100085F0100085F01000810
:100050005F0100085F0100085F0100085F01000800
:100060005F0100085F0100085F0100085F010008F0
:100070005F0100085F0100085F0100085F010008E0
:100080005F0100085F0100085F0100085F010008D0
:100090005F0100085F0100085F0100085F010008C0
:1000A0005F0100085F0100085F0100085F010008B0
:1000B0005F0100085F0100085F0100085F010008A0
:1000C0005F0100085F0100085F0100085F01000890
:1000D0005F0100085F0100088941000895410008A0
:1000E0005F0100085F0100085F0100085F01000870
:1000F0005F0100085F0100085F0100085F01000860
:100100005F01000845310008C93C00085F01000894
:100110005F0100085F010008D53C00085F0100088E
:100120005F0100085F0100085F010008A9090008DD
:10013000DFF80CD000F0D4FB00480047E56200086F
:10014000A09A00200648804706480047FEE7FEE7E1
:10015000FEE7FEE7FEE7FEE7FEE7FEE7FEE7FEE777
:10016000813C000831010008202A04DB203A21FAF2
:1001700002F00021704721FA02F3D040C2F12002C0
:100180009140084319467047D2B201E000F8012BB4
:10019000491EFBD270470022F6E710B513460A4607
:1001A00004461946FFF7F0FF204610BDF0B480EA80
:1001B0000102D40F4200B2EB410F02D202460846C0
:1001C00011464A0042D0C30DDDB2C1F3C752AD1A89
:1001D000202D35DAC1F3160141F4000204B1524278
:1001E000C5F1200602FA06F12A411044B3EBD05FB4
:1001F00023D0C4B1012DA0EBC35009DCF0BC4FF0FB
:10020000004202EAC352DBB200F5000000F03BBA44
:10021000400000F1807000EBC350A0F1807040EA14
:10022000D170490009E0490841EAC071A0EBC35010
:1002300000F50000400800EBC350F0BC00F01ABA13
:100240006142012202EB4101001BF6E7F0BC70475E
:1002500081F00041AAE780F00040A7E730B480EACF
:10026000010202F0004530F0004221F0004013D0BE
:1002700090B1C30DD40DC2F31601C0F31600E41AF9
:1002800041F4000140F400027D34914201D3641C2A
:1002900000E04900002C02DA30BC002070474FF427
:1002A00000000023914201D3891A034340084FEA1A
:1002B0004101F7D151B1914202D14FF0004105E027
:1002C00002D24FF0010101E06FF0010103EBC450D5
:1002D000284430BC00F0CEB92DE9FE4F804681EABB
:1002E0000300C00F0C46009021F0004123F00045B0
:1002F000B8EB0200A94105D24046214690461C4673
:100300000B46024623F00040104347D0270DC7F3A9
:100310000A00C3F30A510290401A019040286BDA98
:10032000C3F3130040F4801B0098924620B10023D1
:10033000D2EB030A63EB0B0B01985946C0F1400264
:10034000504600F076F906460D4650465946019A49
:1003500000F07EF910EB08006141002487EA115299
:1003600084EAE7731A4340D0009A62B3019A012AE3
:100370004FEA075215DC001B61EB02014FF000420F
:1003800002EA0752CDE90042001C41F580113246D5
:100390002B4600F0B5F903B0BDE8F08F404621468A
:1003A000F9E7001B61EB0201001C41F58013001806
:1003B0005B412018A2F5001747EB030140EAD57016
:1003C000B6196D4111E06D084FEA360645EAC07571
:1003D0004FEA0752001B61EB0201001C41F580113E
:1003E00049084FEA30000019514132462B4603B00C
:1003F000BDE8F04F00F075B90098012240000023DD
:10040000D0EB020263EBE073009821464FEAE07400
:10041000B8EB000061EB0401E9E783F000435BE720
:1004200081F0004158E72DE9F04D81EA030404F022
:10043000004B21F0004514464FF0000A23F0004124
:1004400050EA050220D054EA01021DD0C5F30A5734
:100450000246C5F31303C1F31300C1F30A5640F477
:10046000801543F48013A7EB0608101BD64608F24C
:10047000FD3873EB050002D308F1010801E0921882
:100480005B41B8F1000F03DA00200146BDE8F08DB2
:1004900000204FF48011064684460EE0171B73EBD4
:1004A000050705D3121B63EB050306434CEA010C59
:1004B00049084FEA300092185B4150EA0107EDD13C
:1004C00052EA030012D082EA040083EA05010843DD
:1004D00005D0101BAB4106D20122002306E000220A
:1004E0004FF0004302E06FF0010253101AEB0600D8
:1004F0004CEB085110EB0A0041EB0B01BDE8F04D4D
:1005000000F0EFB80EB540F2334102910021CDE981
:1005100000110A460B4600F0F3F803B000BD20F0CE
:100520000040C10DC0F3160040F400007F2901DA3D
:1005300000207047962903DCC1F19601C84070473E
:1005400096398840704700F0004230F000400AD0F1
:10055000C10D01F56071C0F3160042EA0151C208F5
:1005600040071143704700200146704701F00043E7
:1005700030B421F0004150EA010206D00A0DA2F584
:100580006072C1F31301002A02DC30BC0020704706
:10059000440F44EAC104C100E01830BC00EBC25073
:1005A00000F068B830B50B46014600202022012437
:1005B00009E021FA02F59D4205D303FA02F5491B31
:1005C00004FA02F52844151EA2F10102F1DC30BD47
:1005D0002DE9F05F0546002092469B468846064678
:1005E000814640241BE02846414647462246FFF705
:1005F000BBFD53465A46C01A914110D311461846C6
:10060000224600F016F82D1A67EB01084F462246E5
:100610000120002100F00DF817EB00094E41201ECB
:10062000A4F10104DFDC484631462A464346BDE8D2
:10063000F09F202A04DB203A00FA02F100207047E4
:100640009140C2F1200320FA03F319439040704710
:10065000202A06DBCB17203A41FA02F043EAE07386
:1006600006E041FA02F3D040C2F120029140084373
:10067000194670470029A8BF7047401C490008BFB1
:1006800020F00100704710B4B0FA80FC00FA0CF0C2
:1006900050EA010404BF10BC704749B1CCF12004FA
:1006A00021FA04F411FA0CF118BF01212143084387
:1006B000A3EB0C01CB1D4FEA00614FEA102042BFB3
:1006C000002010BC704700EBC35010440029A4BFA9
:1006D00010BC7047401C490008BF20F0010010BC4E
:1006E000704710B5141E73F1000408DA401C41F184
:1006F000000192185B411A4301D120F0010010BDA6
:100700002DE9F04D92469B4611B1B1FA81F202E01B
:10071000B0FA80F220329046FFF78BFF04460F4676
:1007200040EA0A0041EA0B0153465A46084313D0F7
:10073000114653EA010019D0C8F140025046FFF7B4
:1007400013FD05460E46504659464246FFF771FFD7
:10075000084305D0012004E020463946BDE8F08D6D
:100760000020054346EAE0762C4337430A986305A8
:10077000E40AA0EB08000022FD0A44EA47540A30CC
:1007800002D500200146E9E7010510196941DDE9BC
:10079000084500196941BDE8F04DA2E72DE9FE4F7B
:1007A00081EA030404F0004421F0004100944FF07A
:1007B000000B23F0004350EA01045ED052EA030428
:1007C0005BD0C3F30A54C1F30A552C44A4F2F334AA
:1007D0000194A0FB0254C1F3130141F48011C3F34F
:1007E000130343F4801301FB024400FB034E840A0D
:1007F000970A44EA815447EA8357A4FB07680295A5
:100800008D0A05FB07854FEA932C04FB0C54270542
:10081000029D4FEA065847EA1637B5EB08056EEB1E
:10082000070C870E920E47EA811742EA8312A7FB54
:100830000201B6EB0B0164EB00042B0D43EA0C3311
:100840005E1844EB1C50DA465146E7FB0201C5F343
:1008500013044FEA0B3343EA14534FEA0432019C6A
:1008600043EA0603A4F10C040294009CCDE900B411
:10087000FFF746FF03B0BDE8F08F00200146F9E71F
:10088000C1F30A52C1F3130140F2FF3341F4801166
:100890009A4202DA00200146704740F233439A42FE
:1008A000A2F2334202DC5242FFF75EBCFFF7C1BE48
:1008B00030B5041E71F1000404DB4FF000444042E7
:1008C00064EB0101141E73F1000405DB1C464FF0BC
:1008D0000043524263EB0403994208BF904230BD8B
:1008E000064C074D06E0E06840F0010394E807007D
:1008F00098471034AC42F6D3FFF71EFC3C1B0308AC
:100900005C1B0308704700000146014801F0D0B8A5
:100910006888002010B5044801F0DCF8042801D0F4
:10092000012010BD002010BD6888002038B50120CE
:100930008DF800009DF80000012801D0012038BD8D
:10094000064801F0BDF9040006D14FF400610348E8
:1009500000F084FF00B10124204638BD68880020E3
:1009600038B50024009313460A460146034801F0B7
:1009700049FA00B10124204638BD000068880020F3
:100980007047000038B50024009313460A4601461C
:10099000034801F019FB00B10124204638BD0000D6
:1009A000688800207047FEE7014800F08BB900001E
:1009B000EC88002070470022AFF3008030B50E4B6A
:1009C000054601205C7A012C15D8587A00241C5465
:1009D000587A03EB800045605D7A03F108002A54E1
:1009E000587A421C5A72303008703A2048702F20D2
:1009F0008870CC70002030BD948A002010B523A0F0
:100A000003F0D0FB01222AA12A4804F0FDFE2A4C63
:100A10000100207003D029A003F0C4FBFEE72DA045
:100A200003F0C0FB0A223049304804F01BFF20705D
:100A3000010003D02EA003F0B5FB02E032A003F0CA
:100A4000B1FB294B1322313B03F10A01274805F082
:100A50003BF82070010001D031A005E037A003F081
:100A6000A1FB21493CA0273903F09CFB1F4804F05F
:100A700073FD2070010004D0BDE810403BA003F0DE
:100A800091BBBDE810403EA003F08CBB0D0A202AAC
:100A90002A2A2A2A2A204661744673204578616DE5
:100AA000706C65202A2A2A2A2A2A0D0A0D0A0000BB
:100AB000000000000C84002078000020206D6F757D
:100AC0006E74206572726F72203A202564200D0AC0
:100AD00000000000206D6F756E7420737563657380
:100AE00073212121200D0A00550000203C860020A2
:100AF000206F70656E2066696C65206572726F721A
:100B0000203A2025640D0A00206F70656E2066690A
:100B10006C6520737563657373212121200D0A00B4
:100B20002077726974652066696C65206572726FE2
:100B300072203A2025640D0A0000000020777269B7
:100B400074652066696C6520737563657373212114
:100B500021200D0A0000000020777269746520448E
:100B6000617461203A2025730D0A000020636C6FC8
:100B70007365206572726F72203A2025640D0A0039
:100B800020636C6F73652073756365737321212116
:100B9000200D0A002DE9F05F90F8211000240229B1
:100BA00003D004218163012485E001680A6822F0F2
:100BB0000E020A6001680A6822F001020A603F4ED4
:100BC0003E4FB215DFF8F4C0DFF8F090DFF8ECA08C
:100BD000DFF8E8B0DFF8E4E00168783F13011502C0
:100BE000ACF1640CA9F15009AAF13C0AABF1280B55
:100BF000AEF1140E4FF48018B14227D9B9420ED08D
:100C0000614512D049451DD0514518D0594518D0DD
:100C1000714501D1424615E0294EB14201D1012270
:100C200010E0274E1436B14201D110220AE0244EC2
:100C30002836B14206D0224A3C32914201D11A46AE
:100C400000E02A461E49091F0A602BE0B94213D072
:100C5000614517D0494522D051451DD059451DD079
:100C6000714501D142461AE0B14202D14FF0807283
:100C700015E0134EB14201D1012210E0104E14369E
:100C8000B14201D110220AE00D4E2836B14206D001
:100C90000B4A3C32914201D11A4600E02A460749EC
:100CA00080394A60012180F82110002180F820104D
:100CB000416B01B188472046BDE8F09F80000240AB
:100CC000080402402DE9F05FC16B0A6801680B68F7
:100CD000046C4FF0040808FA04F8844D844E854FE4
:100CE000DFF814C2DFF81492DFF814A2DFF814B2B0
:100CF000DFF814E218EA020F65D05FEA437862D5A4
:100D00000A68920603D40A6822F004020A60DFF837
:100D1000F0814FF48062016808F114081301140295
:100D2000414524D9A9420DD0B1420FD0B9421AD0C1
:100D3000614515D0494515D0514501D1120312E046
:100D4000594501D104220EE0714501D140220AE04B
:100D50006D4D1435A94206D06B4A2832914201D11B
:100D60001A4600E022466749091F0A6029E0A942A5
:100D700013D0B14215D0B94220D061451BD04945AE
:100D80001BD0514502D14FF4800217E0414502D1FA
:100D90004FF0806212E0594501D104220EE0714506
:100DA00001D140220AE0584D1435A94206D0564AD6
:100DB0002832914201D11A4600E022464B490839B7
:100DC0004A60C16A71E04FF0020808FA04F818EAB4
:100DD000020F70D05FEA83786DD50A68920606D458
:100DE0000A6822F00A020A60012180F82110DFF867
:100DF00010814FF40072016808F114081301140205
:100E0000414524D9A9420DD0B1420FD0B9421AD0E0
:100E1000614515D0494515D0514501D1120312E065
:100E2000594501D102220EE0714501D120220AE08C
:100E3000354D1435A94206D0334A2832914201D1AA
:100E40001A4600E022462F49091F0A6029E0A942FC
:100E500013D0B14215D0B94220D061451BD04945CD
:100E60001BD0514502D14FF4001217E0414502D189
:100E70004FF0007212E0594501D102220EE0714597
:100E800001D120220AE0204D1435A94206D01E4A85
:100E90002832914201D11A4600E02246134908390E
:100EA0004A60002180F82010816A00291CD0BDE82A
:100EB000F05F0847FFE70825A540154214D01A0740
:100EC00012D50A6822F00E020A6090F84020C36B27
:100ED000012101FA02F25A60816380F82110002199
:100EE00080F82010016BE0E7BDE8F09F08000240A9
:100EF0001C00024030000240440002405800024002
:100F00006C000240080402401C04024030B560B18D
:100F10001C4A03681421934209D21B4A1A44B2FBAB
:100F2000F1F18900016419490AE0012030BD154A38
:100F300052421A44B2FBF1F18900016411490839A7
:100F4000C163022180F821101A6843F6F0718A43C8
:100F5000F0E901142143D0E902452C4321430469FF
:100F600021434469214384692143114319600021CD
:100F700041628162C162016341630122427701776C
:100F8000084630BD08040240F8FFFDBF00000240E3
:100F900070B5044600F010F90546601C02D0044804
:100FA0000078044400F008F9401BA042FAD370BD59
:100FB000980000202DE9F84FDFF8B8A100220AF1CF
:100FC000040B144601274FF00F090BF1040E00BF6C
:100FD0000B6807FA04F52B40AB4274D1DFF898C1D7
:100FE0004E68A6EB0C0866452BD00DDC032E34D0E2
:100FF00005DC36B3012E19D0022E2FD11BE0112EA5
:1010000016D0122E2AD119E0B8F5881F19D006DCA7
:10101000B8F5803F15D0B8F5801F1FD111E0B8F5A5
:10102000001F0ED0B8F5041F18D10AE0CA6815E0F9
:10103000CA68121D12E0CA6808320FE0CA680C3292
:101040000CE08A682AB1012A4FF0080203D04561FA
:1010500004E0042202E0056100E00022FF2B01D839
:10106000064601E000F104064FEA840501D9A5F126
:101070002005D6F800C009FA05F82CEA080C02FA97
:1010800005F54CEA050CC6F800C04D68ED006AD5C0
:101090003A4DAE6946F00106AE61AD6924F0030633
:1010A00005F001050095364D06EB050CDCF80850FF
:1010B000A6074FEA167809FA08F6B543314EB04252
:1010C00002D100261AE04EE02F4EB04201D1012697
:1010D00014E02E4EB04201D102260FE02C4EB04259
:1010E00001D103260AE02B4EB04201D1042605E0CF
:1010F000294EB04201D1052600E0062606FA08F680
:101100002E43CCF808604D68DAF80060ED035546D0
:1011100001D51E4300E09E432E604D68AD0305D50A
:10112000DBF800601E43CBF8006004E0DBF8005001
:101130009D43CBF800504D68DEF80060ED02754627
:1011400001D51E4300E09E432E604D68AD0205D5DB
:10115000084D0C352E681E432E6004E0054E0C36FB
:1011600035689D433560641C102CFFF431AFBDE839
:10117000F88F000000040140000011100010024030
:101180000000014000080140000C01400010014037
:101190000014014000180140001C01408068084014
:1011A00000D001207047C2684A40C26070470AB14F
:1011B000016170470904FBE701488068704700003F
:1011C00098000020024881680278114481607047CD
:1011D00098000020074810B5016841F01001016037
:1011E000032000F09DF8002000F006F800F024F83D
:1011F000002010BD0020024070B50D4D04464FF494
:101200007A712878B1FBF0F00A490968B1FBF0F077
:1012100000F0B4FF48B9102C07D200222146501E1E
:1012200000F05EF800206C6070BD012070BD000011
:1012300098000020A4000020214808B5816941F0F1
:1012400001018161816901F001010091C16941F0F1
:101250008051C161C06900F080500090032000F00F
:101260005FF8002211466FF00B0000F039F8002201
:1012700011466FF00A0000F033F8002211466FF0BB
:10128000090000F02DF800221146501F00F028F848
:1012900000221146101F00F023F800221146901E74
:1012A00000F01EF800221146501E00F019F8054803
:1012B000416821F0E06141F08061416008BD0000BB
:1012C000001002400000014000F01F020121914087
:1012D0004009800000F1E020C0F8001170470000D4
:1012E000F0B40E4B1B680C46C3F30223C3F1070591
:1012F000042D00D90425191D072901D2002300E07F
:10130000DB1E012606FA05F1491E214099409E4048
:10131000761E16403143F0BC01F0E6BE0CED00E055
:10132000064900F0070208684FF6FF03184040EA3C
:101330000220034A10430860704700000CED00E0F3
:101340000000FA052DE9F047DFF83C8105460E461E
:10135000D8F8000000F00700B0420CD2D8F8001016
:1013600021F007013143C8F80010D8F8000000F060
:101370000700B04263D12878444C800705D56068E7
:10138000A96820F0F000084360602878C00745D0C5
:101390006868012816D02168022816D0890700291C
:1013A0004DDA616821F0030101436160FFF704FF3A
:1013B0006968074641F2883001290FD00229814629
:1013C00019D027E021688903E9E78901E7E700BF31
:1013D000FFF7F2FEC11B494501D918E0814660685C
:1013E000C0F381000128F3D118E000BFFFF7E4FE4D
:1013F000C11B49450BD86068C0F381000228F5D1B4
:101400000CE000BFFFF7D8FEC11B494502D90320FD
:10141000BDE8F087606810F00C0FF3D1D8F8001029
:10142000404601F00701B1420BD9016821F00701E4
:1014300031430160006800F00700B04201D0012094
:10144000E6E72878400705D56068E96820F4E060A1
:10145000084360602878000706D56068296920F491
:10146000605040EAC100606000F03CF86168084AE2
:10147000C1F30311515CC840064908600020FFF722
:10148000BBFE0020C4E70000002002400010024024
:101490000C6E0008A400002001480068704700009E
:1014A000A40000200448054900684968044AC1F3C3
:1014B0000221515CC8407047A40000200010024087
:1014C0001C6E00080448054900684968044AC1F3D5
:1014D000C221515CC8407047A400002000100240A7
:1014E0001C6E000812A185B00FC98DE80F0014A072
:1014F000144A006804905168134801F00C03042B4F
:1015000010D0082B0ED1C1F38343C9031DF803008B
:101510000AD5516804AAC1F34041515C0A4A5043BC
:10152000B0FBF1F005B0704708494843FAE7000006
:1015300002030405060708090A0B0C0D0E0F101014
:10154000010200000010024000127A0000093D0074
:101550002DE9F84F04460078B94DC00748D06868B7
:10156000C0F38100012807D06868C0F38100022819
:1015700009D16868C00306D52868800338D560683B
:1015800000286FD034E06068B0F5803F0BD010B118
:10159000B0F5A02F11D0286820F48030286028688A
:1015A00020F4802002E0286840F4803028606068E1
:1015B00088B1FFF701FE064609E0286840F4802064
:1015C0002860F0E7FFF7F8FD801B642875D82868CD
:1015D0008003F7D50CE0FFF7EFFD064605E000BFFE
:1015E000FFF7EAFD801B6428F0D828688003F7D451
:1015F0002078944E80074FF001094FF000083BD54A
:10160000686810F00C0F07D06868C0F381000228EA
:1016100009D16868C00306D42868800714D52069FA
:1016200001281FD110E02069B0B1C6F80090FFF783
:10163000C3FD074605E000BFFFF7BEFDC01B022843
:10164000C4D828688007F7D52868616920F0F800B9
:1016500040EAC10028600FE0C6F80080FFF7ACFD4B
:10166000074606E0E9E000BFFFF7A6FDC01B022821
:1016700023D828688007F7D4207800072CD5724833
:10168000A169D9B1C0F80090FFF796FD074604E0C4
:10169000FFF792FDC01B02280FD8686A8007F7D5B4
:1016A0006A484FF4FA510068B0FBF1F0009000BFB7
:1016B0000098411E0091FAD20EE080E0C0F8008050
:1016C000FFF77AFD074604E0FFF776FDC01B02280E
:1016D00075D8686A8007F7D42078400760D5E86934
:1016E0000027C00008D4E86940F08050E861E8694C
:1016F000012700F08050009055480168C90513D4B7
:101700000168834641F480710160FFF755FD824610
:1017100006E000BFFFF750FDA0EB0A0064284ED89A
:10172000DBF80000C005F5D5E06801280AD008B153
:10173000052813D0286A20F001002862286A20F0CA
:10174000040002E0286A40F001002862E06841F2EB
:10175000883B98B1FFF730FD82460BE0286A40F0E5
:1017600004002862EEE700BFFFF726FDA0EB0A01A8
:1017700059455AD8286A8007F6D50CE0FFF71CFDBA
:10178000824605E0FFF718FDA0EB0A0159454CD849
:10179000286A8007F6D41FB1E86920F08050E8611C
:1017A000E06988B36968C1F38101022945D0022844
:1017B000C6F8608004D0FFF7FFFC044638E034E050
:1017C000FFF7FAFC074604E0FFF7F6FCC01B02280F
:1017D0002BD828688001F7D4206AB0F5803F05D166
:1017E0006868A16820F4003008436860D4E9080103
:1017F0000843696821F4741108436860C6F8609072
:10180000FFF7DAFC044606E015E000BFFFF7D4FC62
:10181000001B022809D828688001F7D50BE000BF1B
:10182000FFF7CAFC001B022802D90320BDE8F88F8D
:1018300028688001F4D40020F8E70120F6E70000D2
:10184000001002400000424280044242A4000020F6
:101850000070004010B5FFF755F810BDFEB5044606
:1018600003200D4684F83400606C032820D0B5F5C1
:10187000805F1DD0B5F5006F05D045B1A06B40F07D
:101880000060A06309E0204602F013F902E0204660
:1018900002F0E8F8A16B0143A163A06B012658B1E7
:1018A000216840F2FF50886384F834600120FEBD57
:1018B000A06B40F08050E4E7211DD4E905700EC90B
:1018C0000095CDE90170206801F042FC84F8346095
:1018D0000020FEBD7047F0B5426E120E93090B70EA
:1018E000C2F383034B7002F003028A70426E120C43
:1018F000CA70B0F86420120A0A7190F864204A7124
:10190000826E4FF6FF73120E03EA0212CA80826ED5
:10191000CB88C2F3074243EA1213CB8002F00F02D6
:101920000A72B0F86820C2F30722D3094B72C2F3DF
:1019300080138B72C2F34013CB72C2F300130B738C
:1019400000264E73446C4FF4007701236CB1012CD8
:1019500043D0026840F2FF519163816B41F08051A6
:10196000816380F834300120F0BD9207120D0A61C6
:1019700090F868200C6944EA82020A61C26E0C6920
:10198000120E44EA92140C61C2F3C2040C7502F008
:1019900007024A75C26EC2F3074254098C75C2F33E
:1019A0008204CC759207520F0A76B0F86C20C2F30D
:1019B00007240A7E42EAD4120A760A69521C42655A
:1019C0000D7EAD1CAA4042650D7A03FA05F58565CA
:1019D0006D0A6A43C0E917271CE090F86820920658
:1019E000920A0A61C26E0C69120E44EA02220A616E
:1019F000C26E0C69C2F3074214430C61B0F86C204C
:101A0000C2F307240A69521C4FEA82224265C0E9E8
:101A100016720766C4F3801201F8192F4FEA846228
:101A20004FEA52624A7010F86C2F4C7844EAD21494
:101A30004C7002F07F028A7042684FEA12624FEAED
:101A4000D214CC70C2F341140C71C2F382044C71F5
:101A50004FEA82724FEA12728A7142688C79C2F33D
:101A6000074244EA92148C71C2F34014CC710E7296
:101A700002F001024A728288C2F307224FEAD214AE
:101A80008C72C2F38014CC72C2F340140C73C2F394
:101A900000144C73C2F381048C7302F00302CA7306
:101AA00000794FEA500008744B744FF00000F0BD0D
:101AB000426C0A60826C4A60C26C8A60026DCA60C5
:101AC000426D0A61826D4A61C26D8A61006EC861B1
:101AD0000020704770B50446B0F85000002501049E
:101AE000206801F0B4FC18B1A16B0143A16304E0CC
:101AF0000021206801F01FFB0546C5F3432070BD9F
:101B000070B504460068416B4FF00105CA0540F20C
:101B10003A3149D52A0282632068C26B8A43C26384
:101B2000206B0007206B22D5800702D4206B800633
:101B300009D5206801F0BCFC28B1A16B0143A16369
:101B40002046FFF7C7FE216840F2FF50886384F803
:101B50003450206BC00702D1206B800703D520468C
:101B600000F029FA70BD204600F029FA70BD000689
:101B7000FCD5206B800609D5206801F099FC28B1BE
:101B8000A16B0143A1632046FFF7A4FE206BC007B1
:101B9000ECD1206B8007E9D42068C16A21F00801EC
:101BA000C16284F83450DEE7426B520410D54FF422
:101BB00080418163266A002506EB8501206801F0DB
:101BC000F0FA6D1C082DF7D3206A2030206270BD1A
:101BD000426B120410D54FF400418163A66A0025C0
:101BE000206801F0CBFA46F825006D1C082DF7D3CC
:101BF000A06A2030A06270BD426B40F23A231A42C4
:101C0000F9D0426B920703D5A26B42F00202A263A5
:101C1000426B120703D5A26B42F00802A263426B2B
:101C2000920603D5A26B42F02002A263426BD20659
:101C300003D5A26B42F01002A263426B920503D55A
:101C4000A26B42F00802A26340F2FF728263206836
:101C5000C26B8A43C263206B000623D5206C58B147
:101C600015494163206CFEF795FF0028C3D0206C16
:101C7000BDE8704001F0A4BDE06B58B10F4941636D
:101C8000E06BFEF787FF0028B5D0E06BBDE8704041
:101C900001F072BD0020A06384F834502046FFF7A5
:101CA000D9FD70BD206B0007FBD584F83450204669
:101CB000FFF710FE70BD0000C1370008793700083B
:101CC00070B5040004D094F83400002510B105E08C
:101CD000012070BD2577204600F038F8032084F8F5
:101CE0003400204600F008F8A5632563012084F83D
:101CF0003400002070BD0000FEB500250446C3205E
:101D00000095CDE901502B462A462946206801F06E
:101D10001FFA0D4E46F8A05F206801F02BFA01254E
:101D200035600220FFF734F9204601F04AFE20B961
:101D3000204601F0D3FD002805D084F83450A16B73
:101D40000143A1630120FEBD0000304270B505468D
:101D50000068224986B088423ED12148416941F459
:101D6000806141614069022400F4806004904FF476
:101D7000F850CDE900040326694603961948FFF799
:101D800019F90420CDE90004694603961648FFF7C7
:101D900011F9174C15488021206010206060002048
:101DA000C4E90201890021618900C4E905103003FA
:101DB000E0612046FFF7AAF818B179210DA002F0E2
:101DC000F0F9EC632C640022012131206562FFF7F9
:101DD00087FA3120FFF778FA06B070BD0080014025
:101DE0000010024000100140001401404404024071
:101DF000EC8800202E2E2F5372632F7364696F2E90
:101E0000630000002DE9F04F87B09A4617460E4652
:101E10000446DDF840B0FFF7CFF900903EB194F8EA
:101E20003400012807D0A06B40F000500FE0A06BF9
:101E300040F000600BE04FF00008C4F83880E06D1F
:101E400007EB0A01814204D9A06B40F00070A06347
:101E50007DE0032084F834002068C0F82C80606C9A
:101E6000012800D07F024FF40071206801F0D2F900
:101E700040F2FF59012530B12268C2F83890A16BB9
:101E80000143A16361E04FF0FF3001904FEA4A2027
:101E90000290902003900220CDE90408069501A944
:101EA000206801F032F9BAF1010F06D9022020634F
:101EB0003946206801F03CFA04E025633946206881
:101EC00001F04FFA0028D7D140F22A382068416B40
:101ED00011EA080F22D1406B000409D500272068C1
:101EE00001F04CF946F827007F1C082FF7D3203665
:101EF000BBF1000F05D0FFF75FF90099411A594572
:101F0000E4D32168C1F83890A06B40F00040A06392
:101F100084F83450032007B0BDE8F08F416BC90549
:101F200009D5BAF1010F06D9616C032903D001F07C
:101F3000BFFA0028A0D12068416B090709D5C0F875
:101F40003890A06B40F0080028E084F8345001205D
:101F5000E1E7416B890705D5C0F83890A06B40F0E8
:101F600002001BE0416B89061AD5C0F83890A06BBF
:101F700040F0200012E000BF01F000F901C6BBF103
:101F8000000F05D0FFF718F90099411A594507D3FA
:101F90002168C1F83890A06B40F00040A063D4E7FE
:101FA0002068416B8902E7D42168C1F8389084F831
:101FB00034500020AFE710B5FEF7E2FC10BD10B5BD
:101FC000FEF7F0FC10BD00002DE9F04F87B09A46F7
:101FD00016460D460446FFF7EFF806903DB194F81B
:101FE0003400012807D0A06B40F000500DE0A06B3A
:101FF00040F0006009E00020A063E26D06EB0A01FA
:10200000914204D9A06B40F00070A06390E00321DE
:1020100084F8341021688146C862606C012800D0C1
:1020200076024FF40071206801F0F4F840F2FF5896
:10203000012730B12268C2F83880A16B0143A16347
:1020400017E0BAF1010F06D920202063314620683D
:1020500001F048FA05E0102020633146206801F0C5
:102060005AFA060008D02168C1F83880A06B3043C6
:10207000A06384F834705BE04FF0FF3000904FEACB
:102080004A200190902002904846CDE90407CDF8FF
:102090000C90B9466946206801F037F840F21A3BC7
:1020A00022E0406B40040AD55FF0000705EB870192
:1020B000206801F076F87F1C082FF7D320351098A0
:1020C00030B1FFF779F80699411A109881420BD385
:1020D0002168C1F83880A06B3043A06384F8349045
:1020E000032007B0BDE8F08F2068416B11EA0B0FA9
:1020F000D7D0416BC9050FD5BAF1010F0CD9616C6E
:10210000032909D001F0D4F930B12268C2F838802F
:10211000A16B0143A16309E02068416B090709D560
:10212000C0F83880A06B40F0080014E084F83490C8
:102130000120D6E7416B890705D5C0F83880A06B30
:1021400040F0020007E0416BC0F83880C90604D5B2
:10215000A06B40F01000A063E8E784F83490002002
:10216000BFE74FF0E0210428086903D020F0040005
:102170000861704740F00400FAE7704710B5401E50
:10218000B0F1807F01D3012010BD4FF0E0246061E9
:102190000F21601700F0A8FF0020A0610720206138
:1021A000002010BD10B5FFF7E8FF10BD7047704765
:1021B00030B590F83C20012A20D0012280F83C2044
:1021C000022380F83D3003685C6824F070045C6092
:1021D00003685C680D682C435C6003689C6824F0AD
:1021E00080049C6003689C6849680C439C6080F88C
:1021F0003D20002180F83C10084630BD022030BD53
:1022000010B5040003D094F83D0010B107E00120A0
:1022100010BD002084F83C00204600F00DF802209C
:1022200084F83D00211D206801F05AFD012084F84A
:102230003D00002010BD000000B51A4A01681A4890
:1022400085B0914218D1C16941F00801C161C069EE
:10225000694600F0080004900120009000200190E1
:10226000022002901148FEF7A5FE002211463220FE
:10227000FFF736F8322010E00D4A91420FD1C169C4
:1022800041F01001C161C069002200F0100004900B
:1022900011463620FFF724F83620FFF715F805B071
:1022A00000BD0000000C004000100240000801408A
:1022B000001000400168CA6842F00102CA6000686C
:1022C000016841F0010101600020704770B50446CB
:1022D00090F83C00012817D0012584F83C500220DA
:1022E00084F83D002068826822F0770222F47F4261
:1022F00082600868502837D00DDC202859D005DCD2
:1023000088B3102841D151E0022070BD302853D04D
:1023100040283AD13FE060282ED070280BD0B0F58D
:10232000805F03D0B0F5005F2FD110E02068816896
:1023300021F0070115E0CB68D1E90121206801F007
:1023400020FD2168886840F0770088601DE0CB6838
:10235000D1E90121206801F014FD2068816841F471
:102360008041816011E01EE0CA684968206801F080
:102370001AFD5021206806E0CA684968206801F00B
:1023800059FD6021206801F006FD84F83D500020D1
:1023900084F83C0070BDCA684968206801F003FDFC
:1023A00040212068EFE700212068ECE71021206839
:1023B000E9E720212068E6E730212068E3E7000014
:1023C0002DE9FF411B4D07460024687801266FF078
:1023D0000208C0B10021184800F0EEF96880CDE98C
:1023E00000460294002269461348039400F026F840
:1023F0003968C1F8108000210F4800F0C8F86C70EF
:102400002E70BDE8FF8138684462AC806C80CDE9F5
:1024100000460294002269460748039400F00EF833
:102420003968C1F810800021034800F0B0F86E70E0
:10243000E7E7000028000020308900202DE9F04166
:10244000044690F83C000D4601283BD0012684F854
:102450003C60022084F83D009AB3042A44D02068EE
:10246000082A53D0D5E90027E968036A23F480538A
:102470000362D0F81CC0036A2CF4407C4CEA0727A6
:102480004FF6FF7C27F470470CEA0131394377039C
:1024900023F4005307EA02321A43C1610262206842
:1024A000C16921F44061C1612068C169AA6841EA3B
:1024B0000221C16184F83D60002084F83C00BDE841
:1024C000F08101E00220FAE7D5E90012EB6820680C
:1024D00001F07AFC2068816921F00C01816120689B
:1024E0008169AA6811430FE0D5E90012EB68206802
:1024F00001F0B2FC2068816921F4406181612068AB
:102500008169AA6841EA02218161D3E7D5E9002CFB
:102510002F7B016A21F480710162C169036A21F095
:10252000030141EA0C0121F0F00C39074FF4206758
:102530004CEA116123F4206307EA02221A43C161C5
:1025400002622068C16921F00C01C1612068C16983
:10255000AA681143ADE710B5040003D094F83D001C
:1025600010B107E0012010BD002084F83C00204697
:1025700000F00CF8022084F83D00211D206801F0D5
:10258000AFFB012084F83D00002010BD704710B55E
:102590000268044631B1042908D0082915D00C2955
:1025A00008D116E0D06840F0020002E0D06840F0A8
:1025B0000400D0600122206801F0D8FB2068016887
:1025C00041F001010160002010BDD06840F008001A
:1025D000EFE7D06840F01000EBE770B50446006804
:1025E00001694FF00005C943890715D4C168C94383
:1025F000890711D4E91E01610120207720688069D4
:102600008007204602D0FFF7DBFE04E000F098F8D8
:10261000204600F096F8257720680169C9434907EC
:1026200017D4C168C943490713D46FF0040101618D
:10263000022020772068806910F4407F204602D075
:10264000FFF7BEFE04E000F07BF8204600F079F8CA
:10265000257720680169C943090716D4C168C943B1
:10266000090712D46FF00801016104202077206867
:10267000C0698007204602D0FFF7A2FE04E000F008
:102680005FF8204600F05DF8257720680169C943AE
:10269000C90617D4C168C943C90613D46FF0100125
:1026A0000161082020772068C06910F4407F20462F
:1026B00002D0FFF785FE04E000F042F8204600F06B
:1026C00040F8257720680169C943C90708D1C16866
:1026D000C943C90704D1891E0161204600F032F8C0
:1026E00020680169C943090609D4C168C9430906BC
:1026F00005D46FF0800101612046FFF757FD206887
:102700000169C943490609D4C168C943490605D4CA
:102710006FF040010161204600F070F82068016907
:10272000C94389060BD4C168C943890607D46FF031
:10273000200101612046BDE87040FFF738BD70BD43
:102740007047704710B5164A0168914203D1154A87
:102750009188491C91800068134988421ED1114C10
:10276000203C2078002819D0A068401CA060B0F55B
:102770007A7F13D12169A069FDF718FDA061E06897
:102780000021401CE06010F1060F00D9E160A1605B
:10279000E168BDE8104005A001F004BD10BD0000D7
:1027A000000C004028000020001000400D0A546971
:1027B0006D653D25640A000090F83C300022012B35
:1027C0000AD0012380F83C3041B1042909D00829FE
:1027D0000AD00C290DD10AE00220704701684A6B2B
:1027E00007E001688A6B04E00168CA6B01E00168D8
:1027F0000A6C002180F83C10104670477047704703
:1028000070B5026804461068D168536910F00F0F64
:1028100051D003F0010501F4907635435DD0C20735
:1028200005D0CA0503D5E26B42F00102E26342071C
:1028300005D5DA0703D0E26B42F00202E2638207B9
:1028400005D5DA0703D0E26B42F00402E263020727
:1028500005D5DA0703D0E26B42F00802E263E26BCF
:10286000002A34D0800604D5880602D5204601F01F
:1028700024FB20684069E16BC0F3801001F008017F
:102880000143204624D001F00AFB20684169490633
:102890001AD5416921F040014161606BA0B11B492B
:1028A0004163606BFEF776F9002810D0606B416BD6
:1028B000BDE87040084783060FD58B060DD520462E
:1028C000BDE8704001F0F9BA2046FFF798FF70BDEF
:1028D000FFF795FF0020E06370BD030606D50B06E9
:1028E00004D52046BDE8704001F0EABB4006F3D5B0
:1028F0004806F1D5D168204621F04001D160202161
:1029000084F8391000F04BFA70BD00008F3E0008CB
:1029100070B5040004D094F83900002510B106E029
:10292000012070BD84F83850204600F023F82420A0
:1029300084F839002068C16821F40051C160204644
:1029400001F006FB2068016921F4904101612068D3
:10295000416921F02A0141612068C16841F40051B8
:10296000C160E563202084F8390084F83A00002033
:1029700070BD0000F0B50368344F022000243449D4
:102980000322344D460285B0BB4218D18B6943F413
:1029900080438B618969039201F4804104910102B3
:1029A000CDE9001069462846FEF704FBCDE9006436
:1029B000694628460294FEF7FDFA05B0F0BD264FA1
:1029C000BB421ED1CB6943F40033CB61C96903928A
:1029D00001F4003104910421CDE900106946284634
:1029E000FEF7E8FA0820CDE900046946284602947B
:1029F000FEF7E0FA002211462620FEF771FC2620A1
:102A000020E0164DAB42D8D1CB6943F48023CB6193
:102A1000C969134D01F48021CDE90321CDE900609E
:102A200069462846FEF7C6FAE814CDE9000469466F
:102A300028460294FEF7BEFA002211462720FEF730
:102A40004FFC2720FEF740FCB7E7000000380140AC
:102A500000100240000801400044004000480040CF
:102A6000000C014090F83A30202B22D1F9B1F2B19C
:102A700090F83830012B1CD081628285C2850021FC
:102A8000C163222280F83A2080F838100168CA68B1
:102A900042F48072CA6001684A6942F001024A61E8
:102AA0000068C16841F02001C1600020704701202A
:102AB00070470220704700002DE9F05F81466D48A5
:102AC000C18CC18D90F8391090F83A10C06B6A49EA
:102AD000D9F80000012600254FF6FF7B884264D11B
:102AE000664C2078FF280BD3257089156448FDF7C4
:102AF00052FB5B46142263495E4800F0F3F84EE057
:102B00006149DFF87CA1614F0A780AF80020401C77
:102B1000C0B220705044DFF8788110F8010C6628AC
:102B200005D13E7088F800605AA001F03BFB217887
:102B30000AEB010010F8010C672806D1022038705A
:102B400088F8006057A001F02DFB21780AEB010006
:102B500010F8010C682806D10320387088F800505E
:102B600054A001F01FFB2178564A0AEB010010F82F
:102B7000011C5548702904D0712905D0722908D04C
:102B80000DE0167005700AE01670017839B1491E23
:102B900004E016700178092901D2491C01702570E2
:102BA0004FF480713648FDF7F6FA01223649314874
:102BB000FFF758FF4549D9F80000884257D14448EB
:102BC0000178FF290DD305704FF480714148FDF75E
:102BD000E2FA28485B4614222A49403000F082F885
:102BE0003DE03D48274C02782248A41F8030592AF6
:102BF00002D159210170667061784254491C61709C
:102C0000017842788678C3781144F2181144027929
:102C100090F806C08F1841790F44674490F807C0B8
:102C20006744A780007AFFB2B84218D12B4806EB60
:102C30000326068002EB012060800E4865700921A2
:102C40008030FDF7A8FA2649207821F81060401C52
:102C5000C0B22070052802D9257003F0A7FABDE89C
:102C6000F05F044801221C494030FFF7FBBEBDE87D
:102C7000F09F0000F0890020004400400300002085
:102C8000CC00002084000020090000206E000020FD
:102C9000080000200D0ACED2CAC7B4AEBFDAB6FE15
:102CA00036360A000D0ACED2CAC7B4AEBFDAB6FEB7
:102CB00036370A000D0ACED2CAC7B4AEBFDAB6FEA6
:102CC00036380A00700000207100002000480040E3
:102CD00004000020CC0100200A0000206C0000202D
:102CE000B40000202DE9F843044690F839001F464F
:102CF00016460D46202850D1A5B19EB194F8380053
:102D000001284AD0012084F838004FF00008C4F8A8
:102D10003C80212084F83900FEF74EFAA6848146D3
:102D2000E68426E00120BDE8F883E08C401EE084C4
:102D3000A0684B46B0F5805F4FF000024FF0800175
:102D40002046009703D001F0ECF9E8B90DE001F05E
:102D5000E8F9C8B928882168C0F3080048602069EC
:102D600008B16D1C05E0AD1C03E0216815F8010BEE
:102D70004860E08C0028D8D14B46002240212046F4
:102D8000009701F0CEF908B10320CCE7202084F8A9
:102D9000390084F838800020C5E70220C3E7704777
:102DA000FEE70000094808B5416941F002014161B0
:102DB0004069002200F00200009003213B20FEF752
:102DC0008FFABDE808403B20FEF77EBA00100240B3
:102DD00010B504490448FDF7EEFD0249491E08708C
:102DE00010BD000079000020EC1A03082DE9F04323
:102DF000384885B0816941F040018161816901F005
:102E000040010491816941F004018161816901F00F
:102E100004010491816941F008018161816901F037
:102E200008010491816941F010018161816901F01B
:102E300010010491816941F0200181618069264F70
:102E400000F020000490012220213846FEF7AFF95F
:102E5000DFF88880012241F2F0114046FEF7A7F921
:102E6000DFF87C90012220214846FEF7A0F90124DA
:102E70002026CDE90064032569463846CDE90245A0
:102E8000FEF798F84FF4F870CDE900046946404623
:102E9000CDE90245FEF78EF8E002009000200227FF
:102EA000CDE9010769464046FEF784F82003039503
:102EB0008DE8910069464046FEF77CF8CDE9006454
:102EC00069464846CDE90245FEF774F805B0BDE80D
:102ED000F08300000010024000180140000801408B
:102EE000000C0140064805490160002141608160F5
:102EF000C16001614161042181617047008001402E
:102F00006888002010B523488AB021490160472114
:102F10000024C0E901144FF6FF71C0E90314846175
:102F2000FFF76EF918B14D211BA001F03AF94FF4EB
:102F30008050049004A91748FFF7C8F918B153212D
:102F400015A001F02EF91348FFF705FB18B1582121
:102F500011A001F026F9089408A90E480994FFF77A
:102F600027F918B15F210CA001F01BF90120CDE970
:102F7000004002940022694606480394FFF75EFA77
:102F8000002803D0682104A001F00BF90AB010BD9D
:102F9000000C0040308900202E2E2F5372632F74B6
:102FA000696D2E63000000001CB510480E49002416
:102FB00001604721C0E9011440F2E7318461C1603A
:102FC000FFF71EF918B1782109A001F0EAF8009482
:102FD000694606480194FFF7EBF8002803D07F21EB
:102FE00003A001F0DEF81CBD001000407089002035
:102FF0002E2E2F5372632F74696D2E630000000014
:103000000D4810B50B4901604FF4E13141600021DA
:1030100081600C22C160C0E904128161C161FFF7C7
:1030200077FC002805D0BDE810404F2103A001F037
:10303000B8B810BD00380140B08900202E2E2F53A3
:1030400072632F75736172742E6300000D4810B5A2
:103050000B4901604FF4E1314160002181600C2295
:10306000C160C0E904128161C161FFF751FC002811
:1030700005D0BDE81040622103A001F092B810BD58
:1030800000440040F08900202E2E2F5372632F75CC
:10309000736172742E6300000D4810B50B49016016
:1030A0004FF4E1314160002181600C22C160C0E930
:1030B00004128161C161FFF72BFC002805D0BDE837
:1030C0001040752103A001F06CB810BD004800400D
:1030D000308A00202E2E2F5372632F757361727405
:1030E0002E630000FEE770470907090E002806DA84
:1030F00000F00F0000F1E02080F8141D704700F18F
:10310000E02080F80014704770470A6842624A68FD
:103110008262D1E902231A43D1E904310B43C16A27
:103120001A4321F0F7011143C16200207047006883
:1031300000F00300704708B50844143000900068A0
:1031400008BD00000148FEF7DBBC000068880020D5
:1031500070B50DF1100C11439CE870002343194326
:1031600029434268314347F6FF639A430A4342606A
:10317000002070BD0321016000207047D0F880005E
:1031800070470A688260D1E901231A43D1E903310B
:103190000B43C1681A436FF30B011143C160002058
:1031A00070470968C0F880100020704710B586B0DD
:1031B00004463720CDE90010402002900020039003
:1031C0004FF48060049069462046FFF7DAFF41F231
:1031D00088323721204600F0B7F906B010BD000054
:1031E00010B504460A4886B001432920CDE90010F5
:1031F00040200290002003904FF4806004906946C4
:103200002046FFF7BEFF204600F054FA06B010BD7E
:103210000000108010B586B004461020CDE90010E3
:1032200040200290002003904FF480600490694693
:103230002046FFF7A6FF41F288321021204600F019
:1032400083F906B010BD10B586B004460620CDE95E
:10325000001040200290002003904FF48060049002
:1032600069462046FFF78DFF41F28832062120464D
:1032700000F06AF906B010BD30B585B000240546EF
:10328000009401944FF480600294CDE903406946B4
:103290002846FFF776FF0B484FF4FA510068B0FB61
:1032A000F1F041F288314843401E03D24FF0004014
:1032B00005B030BD696B0906F6D540F2FF50A86332
:1032C0002046F5E7A400002070B585B004464FF411
:1032D000D570009008204026CDE901060025C001E8
:1032E000CDE9035069462046FFF74BFF0F484FF4E6
:1032F000FA510068B0FBF1F041F288314843401EBA
:1033000002D24FF000450DE0616B11F0450FF6D091
:10331000606B400702D5A663042503E0606B40069E
:1033200000D5A66305B0284670BD0000A4000020AB
:1033300010B586B004461220CDE90010402002905E
:10334000002003904FF48060049069462046FFF708
:1033500018FF41F288321221204600F0F5F806B03D
:1033600010BD10B586B004461120CDE900104020F4
:103370000290002003904FF480600490694620463C
:10338000FFF7FFFE41F288321121204600F0DCF801
:1033900006B010BD10B586B004460720CDE9002068
:1033A00040200290002003904FF480600490694612
:1033B0002046FFF7E6FE41F288320721204600F062
:1033C000C3F806B010BD10B586B004460021022037
:1033D000CDE90010C020CDE902014FF480600490D7
:1033E00069462046FFF7CDFE204600F03BF906B0C7
:1033F00010BD10B586B004460920CDE90010C020EC
:103400000290002003904FF48060049069462046AB
:10341000FFF7B7FE204600F025F906B010BD10B545
:1034200086B0044600213320CDE900104020CDE9CC
:1034300002010001049069462046FFF7A2FE41F216
:1034400088323321204600F07FF806B010BD10B559
:1034500086B004460D20CDE90010402002900020E7
:1034600003904FF48060049069462046FFF789FE80
:1034700041F288320D21204600F066F806B010BDFA
:1034800030B585B00C46054600210320CDE900107B
:103490004020CDE902010001049069462846FFF76B
:1034A00070FE22460321284600F024F905B030BD05
:1034B00010B586B0044600210C20CDE90010402054
:1034C000CDE902010001049069462046FFF759FE4C
:1034D000034A0C21204600F037F806B010BD00006A
:1034E00000E1F50510B586B004461920CDE90010BD
:1034F00040200290002003904FF4806004906946C1
:103500002046FFF73EFE41F288321921204600F0A6
:103510001BF806B010BD10B586B004461820CDE9E2
:10352000001040200290002003904FF4806004902F
:1035300069462046FFF725FE41F2883218212046D1
:1035400000F002F806B010BD444B10B51B684FF4F4
:10355000FA54B3FBF4F353435B1E02D24FF0004026
:1035600010BD426B12F0450FF6D0426B520703D5E7
:1035700004218163084610BD426BD20702D00121AD
:10358000816303E00269D2B28A4201D0012010BDFA
:1035900040F2FF5181630021FFF7CDFD3049084221
:1035A00001D1002010BD002802DA4FF0007010BDDC
:1035B000410001D5402010BD810001D5802010BD03
:1035C000C10002D54FF4807010BD010102D54FF447
:1035D000007010BD410102D54FF4806010BDC101E3
:1035E00002D54FF4006010BD010202D54FF48050A7
:1035F00010BD410202D54FF4005010BD810202D52A
:103600004FF4804010BDC10202D54FF4004010BD00
:10361000410302D54FF4003010BD810302D54FF4B1
:10362000802010BDC10302D54FF4002010BD01045D
:1036300002D54FF4801010BD410402D54FF40010A4
:1036400010BD810402D54FF4800010BD000702D5E3
:103650004FF4000010BD4FF4803010BDA4000020D6
:1036600008E0FFFD12494FF4FA520968B1FBF2F18C
:1036700041F288325143491E02D24FF00040704758
:10368000426B12F0450FF6D0416B490703D5042178
:10369000816308467047416BC90703D001218163EC
:1036A0000846704740F2FF518163002070470000D8
:1036B000A40000200E494FF4FA520968B1FBF2F160
:1036C00041F288325143491E02D24FF00040704708
:1036D000426B12F0450FF6D0416B490703D5042128
:1036E00081630846704740F2FF51816300207047B4
:1036F000A40000201F4B10B51B684FF4FA54B3FB15
:10370000F4F341F2883463435B1E02D24FF0004071
:1037100010BD446B14F0450FF6D0436B5B0703D527
:1037200004218163084610BD436BDB0702D00121F1
:10373000816303E00369DBB28B4201D0012010BD3D
:1037400040F2FF5181630021FFF7F5FC10F4604F58
:1037500004D0410406D54FF4005010BD000C108079
:10376000002010BD000402D54FF4805010BD4FF46E
:10377000803010BDA400002070B5446A0025E06BC5
:1037800000B1E563206C002816D12046FEF7A2F9AF
:10379000A563012184F83410062801D005280BD137
:1037A0002068FFF785FEA16B0843A063A06B00288B
:1037B000204602D0FEF74EF870BDFEF78BF870BDC4
:1037C00070B5446A0025206C00B12564E06B0028C8
:1037D00016D12046FEF77EF9A563012184F8341046
:1037E000062801D005280BD12068FFF761FEA16BE8
:1037F0000843A063A06B0028204602D0FEF72AF8F9
:1038000070BDFEF767F870BD2DE9F04F89B00E4628
:103810000446FDF7D1FC00258346009501952F460F
:1038200008212068FFF7F6FC002834D1B4F85000D6
:1038300001042068FFF7BAFC00282CD1401E4FF08D
:103840000808CDE9020830204FF00209CDE904094B
:103850000120CDE9067002A92068FFF756FC206818
:10386000FFF7DDFD002816D1EA4640F22A4720681E
:10387000416B394212D1416B890204D5FFF77EFCBE
:103880004AF825006D1CFDF797FCA0EB0B00401CCF
:10389000EDD14FF0004009B0BDE8F08F416B090752
:1038A00003D5C0F838800820F5E7416B890703D5B8
:1038B000C0F838900220EEE7416B890603D520213D
:1038C00081630846E7E740F2FF518163009800BA40
:1038D0007060019800BA30600020DCE710B590B04D
:1038E00004460120ADF838002068FFF720FC0028CE
:1038F00064D0606C032842D02068FFF764FD002884
:103900005AD100212068FFF716FC60670421206867
:10391000FFF711FCA06708212068FFF70CFCE067A7
:103920000C212068FFF707FCC4F88000606C0328B6
:1039300025D00EA92068FFF7A3FD00283CD1606CBC
:1039400003281CD0BDF83800206501042068FFF76B
:1039500050FD002830D100212068FFF7ECFB6066A5
:1039600004212068FFF7E7FBA06608212068FFF725
:10397000E2FBE0660C212068FFF7DDFB20670421F5
:103980002068FFF7D8FB000DE06403A92046FDF78F
:10399000A2FFB4F85000002302042068FFF7FAFCED
:1039A000002809D104F1100007C88DE8070094E849
:1039B0000F00FFF7CDFB002010B010BD4FF080606E
:1039C000FAE72DE9F8430025044600950068FFF763
:1039D00053FC00281AD12068FFF776FC4FF080785E
:1039E0004FF6FF76D8B14FF08057A5640098411C80
:1039F0000091B0421AD000212068FFF7D7FB20B910
:103A000000212068FFF7ECFB10B13846BDE8F883D1
:103A100000212068FFF78FFBC00FE7D01FE00127D0
:103A2000A7640098411C0091B04201D14046EDE7E7
:103A300000212068FFF7BAFB0028E7D14FF0804152
:103A40002068FFF7CDFB0028E0D100212068FFF7B8
:103A500072FBC10FE5D0400001D5676400E06564EA
:103A60000020D3E71CB504460020009001900021FF
:103A70002068FFF760FB800102D54FF400601CBD99
:103A800069462046FFF7C0FE0028F8D10198C00320
:103A90000CD5B4F8500001042068FFF787FB00281C
:103AA000EDD100212068FFF7CEFB1CBD4FF08060F8
:103AB0001CBD1CB504460020009001900021206828
:103AC000FFF739FB800102D54FF400601CBD694649
:103AD0002046FFF799FE0028F8D1019840030CD545
:103AE000B4F8500001042068FFF760FB0028EDD116
:103AF00002212068FFF7A7FB1CBD4FF080601CBDB2
:103B000010B5064C01202070FCF710FF18B9207882
:103B100020F001002070207810BD0000A8000020D7
:103B200010B5124888B014460078C00702D00320B0
:103B300008B010BDB9B1012905D0022908D0032968
:103B40000CD00420F4E76846FCF7DEFE069809E096
:103B50006846FCF7D9FE0798208004E06846FCF729
:103B6000D3FE079820600020E2E70000A8000020B4
:103B70002DE9F0411E46174608460125094C0A4B1F
:103B800032463946FCF7ECFE28B109E0641E02D249
:103B90000120BDE8F081FCF7BDFE0028F6D100252C
:103BA0002846F6E7A086010000E1F50510B5064CB1
:103BB00001202070FCF7AEFE18B9207820F001003B
:103BC0002070207810BD0000A80000202DE9F041F1
:103BD0001E46174608460125094C0A4B324639460F
:103BE000FCF7D0FE28B109E0641E02D20120BDE836
:103BF000F081FCF78FFE0028F6D100252846F6E775
:103C0000A086010000E1F505704710B5FDF7DAFA6E
:103C1000BDE81040FEF7C6BA30B58FB001210804E8
:103C2000CDE900100024029402250491CDE907504B
:103C30004FF4E01009906846FDF78AFC00B1FEE7FA
:103C40000F20CDE90A054FF48060CDE90C40022138
:103C50000AA80E94FDF776FB00B1FEE7FDF71CFC09
:103C60004FF47A71B0FBF1F0FEF788FA0420FEF70A
:103C700078FA00221146501EFDF732FB0FB030BD1E
:103C80000D48016841F00101016041680B4A114093
:103C9000416001680A4A11400160016821F48021F5
:103CA0000160416821F4FE0141604FF41F01816011
:103CB0000449C00308607047001002400000FFF88C
:103CC000FFFFF6FE08ED00E00148FEF786BC0000AD
:103CD000308900200148FEF780BC00007089002078
:103CE000F0B502681C4B1D4D1D4E1E4F1E4C4FF073
:103CF000804C984209D0A04207D0604505D0A84228
:103D000003D0B04201D0B84204D122F0700E4A680C
:103D100042EA0E02984209D0A04207D0604505D081
:103D2000A84203D0B04201D0B84203D122F440757A
:103D3000CA682A4322F080054A692A4302608A68D9
:103D4000C2620A688262984201D0A04201D1096928
:103D5000016301214161F0BD002C014000040040DD
:103D600000080040000C00400034014010B5012361
:103D7000046A8B409C430462036A8A4013430362D3
:103D800010BD10B5846842EA032224F47F440A433C
:103D90002243826010BD826822F070020A4342F022
:103DA00007018160704710B5036A046A24F00104BA
:103DB0000462846924F0F00444EA021423F00A0245
:103DC0000A438461026210BD70B5046A24F00104E4
:103DD00004628469056A124EB0420ED0114EB042A0
:103DE0000BD0B0F1804F08D00F4EB04205D00F4E2F
:103DF000B04202D00E4EB04203D124F0030414436B
:103E000001E044F001041A0724F0F00444EA1262CD
:103E100025F00A0301F00A0119438261016270BDB5
:103E2000002C014000340140000400400008004024
:103E3000000C004010B5036A23F01003036283698D
:103E4000046A23F4704343EA023224F0A00343EAF5
:103E500001118261016210BD30B5046A24F01004C2
:103E600004628469056A24F4407444EA022222F45C
:103E700070444FF6FF7202EA03322243A02425F079
:103E8000A00304EA011119438261016230BD10B53B
:103E9000406A0021C185C184FEF7B1FC10BD0168F4
:103EA000CA6822F49072CA6001684A6922F001026D
:103EB0004A61202180F83A10704710B590F83A1006
:103EC000222901D0022010BD8168B1F5805F11D098
:103ED0000169002901681FD0496801F07F03816AE8
:103EE0004A1C82620B70C18D491E0904090CC185F0
:103EF00018D02BE00269816A002A0268526805D056
:103F0000D2B20A80816A491C8162ECE7C2F30802DE
:103F10000A80816A891CF7E74A68816A4B1C8362C0
:103F20000A70E0E70168CA6822F02002CA600168EE
:103F3000CA6822F48072CA6001684A6922F00102EC
:103F40004A61202180F83A10FEF7B6FD002010BD2E
:103F50002DE9F041044600680169E26821F440510E
:103F6000114301612169A068084361690843216820
:103F7000CA6841F20C639A430243CA6020684169EF
:103F8000A26921F44071114341614C4920686425C4
:103F9000322688423CD1FDF795FA00EBC00101EBD7
:103FA000001061688900B0FBF1F7FDF78BFA00EBB8
:103FB000C00101EB00106168B0468900B0FBF1F070
:103FC000B0FBF5F06FF01801484307EB800106EBFA
:103FD0000110B0FBF5F000F0F006FDF773FA00EB0E
:103FE000C00101EB001061688900B0FBF1F0B0FB8B
:103FF000F5F006EB0016FDF765FA00EBC00101EBEA
:10400000001061688900B0FBF1F7FDF75BFA3BE057
:10401000FDF748FA00EBC00101EB00106168890070
:10402000B0FBF1F7FDF73EFA00EBC00101EB001029
:104030006168B0468900B0FBF1F0B0FBF5F06FF0BD
:104040001801484307EB800106EB0110B0FBF5F0C7
:1040500000F0F006FDF726FA00EBC00101EB0010BE
:1040600061688900B0FBF1F0B0FBF5F006EB0016DB
:10407000FDF718FA00EBC00101EB00106168890040
:10408000B0FBF1F7FDF70EFA00EBC00101EB0010F9
:1040900061688900B0FBF1F0B0FBF5F06FF018013A
:1040A000484307EB800108EB0110B0FBF5F02168F5
:1040B00000F00F0030448860BDE8F0810038014016
:1040C00090F83910212901D0022070478168B1F59C
:1040D000805F016A0BD04A1C026202680978516055
:1040E000C18C491E0904090CC1840ED017E009884F
:1040F0000268C1F30801516001690029016A02D018
:10410000491C0162ECE7891CFBE70168CA6822F0E0
:104110008002CA600068C16841F04001C1600020AF
:1041200070472DE9F041984617460E460446069D15
:104130001DE0681C1BD02DB1FDF73EF8A0EB080078
:10414000A84214D92068C16821F4D071C1602068E8
:10415000416921F001014161202084F8390084F88F
:104160003A00002084F838000320BDE8F081206880
:10417000006836EA000004D00020B842D9D0002000
:10418000F3E70120F9E700000148FEF739BB000022
:10419000F08900200148FEF733BB0000308A002080
:1041A000FEE7FEE70FB4054B10B503A9044A0298D9
:1041B00000F0CAF810BC5DF814FB000005600008B0
:1041C0007400002002E008C8121F08C1002AFAD1BA
:1041D00070477047002001E001C1121F002AFBD187
:1041E000704700002DE9FF5FDDE90220010DDDF8D9
:1041F00038B0024318D044F61050A1F2FF314143C9
:104200000D140F98012820D0A5EB0B00401C5FEA8D
:10421000000A4FF00004474EDFF81C91A0465046BC
:1042200016D5CAF1000728E00F98012443A20128FF
:1042300008D0002100980F9BC0E90021C0E902438B
:10424000BDE8FF9F6FEA0B01F4E7CBF10000DEE76A
:10425000074612E0F80707D0224633464046494653
:10426000FCF79CFA8046894622463346104619469A
:10427000FCF794FA04460E467F10002FEAD1DDE9E0
:104280000201BAF1000F42464B4602DAFCF786FA09
:1042900001E0FCF7C8F804460E460022284BFCF764
:1042A00007FB03D84FF0FF30014607E00022254B03
:1042B00020463146FCF710F8FCF7E2FA102409E03A
:1042C000002C0ADB0A220023FCF782F9019B303222
:1042D0001A55641E50EA0102F2D1641C019AC4F11D
:1042E000110314440F9A012A03D0012208430DD16F
:1042F0000AE0084304D000204FF0110B0F9080E734
:10430000A3EB0B056D1E0DE05B4504DD4FF00002D5
:1043100005F1010504E003DA4FF00002A5F1010503
:10432000002AECD000980F99C0E90231C0E900459D
:1043300086E70000000024400000F03F300000004D
:104340000000F0430000E03F2DE9FF4F95B09B4691
:104350008946064600250FE2252877D10024274606
:10436000F84A0121059400E0044316F8013F203B80
:1043700001FA03F01042F7D130782A2811D06FF0FB
:104380002F033078A0F13002092A16D8059A44F09C
:10439000020402EB820203EB42021044761C0590F9
:1043A000EFE759F8042B0592002A03DA504244F44F
:1043B0000054059044F00204761C30782E2816D163
:1043C00016F8010F44F004042A280DD06FF02F02D4
:1043D0003078A0F13003092B09D807EB870302EBF3
:1043E0004303C718761CF3E759F8047B761C307832
:1043F0006C280FD006DC4C2817D068280DD06A280E
:1044000014D104E0742810D07A280FD10DE044F4C0
:1044100000140AE044F4801401E044F4401472787B
:10442000824202D104F58014761C761C307866280E
:104430000BD013DC582877D009DC002875D045282C
:10444000F6D04628F4D047281AD19DE118E0632819
:1044500035D0642879D0652812D195E1702873D0C1
:1044600008DC6728F1D069286FD06E280DD06F283E
:1044700006D1B5E073282CD0752875D0782874D073
:104480005A46179990476D1C75E1C4F302500228F3
:1044900009D003280DD0D9F8001004280DD00D60E4
:1044A00009F1040967E1D9F80010EA17C1E90052DF
:1044B000F6E7D9F800100D80F2E70D70F0E719F873
:1044C000041B8DF8001000208DF80100EA46012041
:1044D00003E059F804AB4FF0FF3061074FF00001E3
:1044E00002D40DE008F101018846B9420FDA804597
:1044F000F8DB1AF808100029F4D108E008F10101EE
:1045000088468142FADB1AF808100029F6D105988E
:104510005B46A0EB080721463846179A00F094FA4C
:10452000284400EB080507E04DE029E10DE01AF80A
:10453000010B5A4617999047B8F10108F7D25B462C
:1045400021463846179A13E142E00A220092C4F34A
:1045500002524FF0000A022A08D059F804CB032A6D
:104560004FEAEC710AD00DE029E02AE009F10701D9
:1045700021F00702F2E802C1914609E00FFA8CFC33
:104580004FEAEC71042A03D14FFA8CFC4FEAEC712C
:10459000002907DA0A460021DCF1000C61EB020178
:1045A0002D2202E0220504D52B228DF804200122C1
:1045B00003E0E20701D02022F7E7904659E00A2104
:1045C00002E010220DE010214FF0000A00910BE0F4
:1045D00010224FF0000A44F004040827009203E080
:1045E00008224FF0000A0092C4F30252022A05D0BA
:1045F00059F804CB0021032A08D009E009F107018A
:1046000021F00702F2E802C1914605E01FFA8CFC96
:10461000042A01D10CF0FF0C4FF00008220728D526
:10462000702806D0009B83F0100353EA0A0305D0DC
:104630000EE040228DF80420012208E05CEA01022D
:1046400006D030228DF804208DF805000222904615
:10465000009B83F0080353EA0A030AD15CEA0102D3
:1046600001D1620705D530228DF804204FF00108F2
:104670007F1E582804D034A003900EA802900DE0AD
:1046800036A0F9E753466046009AFBF7A1FF84463F
:104690000398825C0298401E029002705CEA01005E
:1046A000F0D1029806A9081A00F1200A600702D585
:1046B00024F4803400E00127574502DDA7EB0A000F
:1046C00000E0002000EB0A01009005984144401AE8
:1046D0000590E00306D45B462146179A059800F042
:1046E000B3F90544002706E001A85A46C05D1799B2
:1046F00090476D1C7F1C4745F6DBE0030CD55B46FD
:104700002146179A059800F09FF9054404E03020EF
:104710005A46179990476D1C0099481E0090002931
:10472000F5DC08E0029802995A460078491C02918B
:10473000179990476D1CBAF10001AAF1010AF1DC4A
:1047400065E1000009280100303132333435363755
:1047500038396162636465660000000030313233CD
:10476000343536373839414243444546000000006D
:1047700000F058F90544761C307800287FF4ECAD41
:1047800019B02846BDE8F08F620700D4062709F16A
:10479000070222F0070CFCE80223E14603F0004880
:1047A0005FEA080C02D00FF2702C0DE05FEA045CA7
:1047B00002D50FF2682C07E05FEAC47C02D00FF24A
:1047C000602C01E0AFF2700C4FF0FF3823F0004393
:1047D000CDF850C065280CD006DC452809D0462805
:1047E0001DD047283DD13DE0662818D067287ED1EE
:1047F00038E00021112F01DB112000E0781CCDE909
:10480000000106A90EA8FFF7EDFCDDE90F010E9AE5
:1048100003910021009207F1010A04914DE04FF04D
:1048200000400097CDE9011006A90EA8FFF7DAFCB9
:10483000DDE90F0203920E9B11990022DDF80CA016
:104840000093049211B9791C00EB010AB7EB0A003E
:1048500004D4C0F1FF3007F1010A0490AAEB07006D
:10486000019044E0012F00DA01270021112F01DD22
:10487000112000E03846CDE9000106A90EA8FFF797
:10488000B1FCDDE90F010E9A039100210491009221
:10489000BA4621070CD40399514500DA8A46BAF189
:1048A000010F05DD009AAAF10101515C302908D001
:1048B000B84202DA10F1040F06DA0121CDE9011045
:1048C00015E0AAF10101E9E7002805DC049901449B
:1048D0000491AAEB000102E0411C514500DD8A462B
:1048E0000499401A401C01904FF0004002902007AC
:1048F00004D40198504501DBCDF8048000208DF8E8
:104900004F0002980DF14F07B0F1004F25D02B203A
:104910000E9002984FF0020800280CDA40420290F4
:104920002D200E9007E00A210298FBF73BFE303164
:10493000029007F8011DB8F10001A8F10108F2DCAE
:1049400002980028EFD1791E0E980870307800F098
:10495000200040F0450007F8020D12A8C01B00F12E
:1049600007081498007800B1012000EB0A010198B3
:1049700001EBE07105984144401A401E0590E003A8
:1049800006D45B462146179A059800F05DF8054469
:104990001498007818B15A46179990476D1CE00397
:1049A00024D55B462146179A059800F04DF805443A
:1049B0001CE00498002807DBDDE90301884203DDE1
:1049C0000098405C179901E0179930205A469047AB
:1049D000049805F10105401C04900198401E0190C7
:1049E00004D12E205A46179990476D1CBAF1000148
:1049F000AAF1010ADDDC05E017F8010B5A46179908
:104A000090476D1CB8F10001A8F10108F4DC5B4689
:104A10002146179A0598ABE62D0000002B000000F8
:104A2000200000002DE9F041044600251E461746EF
:104A3000880404D405E039462020B0476D1C641E6C
:104A4000F9D52846BDE8F0812DE9F041044600255E
:104A50001E469046C80301D5302700E02027880471
:104A600004D505E041463846B0476D1C641EF9D5B3
:104A70002846BDE8F08100002DE9F0412C4D4FF4AF
:104A8000006631462846FCF789FB2A4CAF15002802
:104A900034D01420FCF77CFA31462846FCF77EFB24
:104AA00020B301202070002210212846FCF77FFB54
:104AB000002239462846FCF77AFB01F0D3FD1EA000
:104AC000FFF770FB01F0CEFD1FA0FFF76BFB01F0BD
:104AD000C9FD214F3C78A02C06D220480068FBF786
:104AE0001EFD1F4921F81400641C3C703146284605
:104AF000FCF754FB0028F9D1BDE8F08101F0B2FDCC
:104B000018A0FFF74FFB01F0ADFD19A0FFF74AFB1E
:104B100001F0A8FD00202070012210212846FCF79A
:104B200046FB39462846BDE8F0410122FCF73FBB71
:104B3000000801406F00002074352E70636F3D3611
:104B4000333438380000000074352E7478743D22F8
:104B5000D3D0D5CFB0AD220000000020200000202F
:104B6000CC02002074352E70636F3D323031360038
:104B700074352E7478743D22CEDED5CFB0AD2200D0
:104B800010B50446002084F80402401EC4F82C022C
:104B9000204601F099FC08B1032010BDB4F8FE01D5
:104BA000A0F52A41553901D0022010BD94F83600F5
:104BB000B4F8371040EA01210848B0EB012F08D0C3
:104BC00094F85210B4F8532041EA0221B0EB012FBF
:104BD00001D1002010BD012010BD0000004641544D
:104BE00000E0401C02780AB18A42FAD1D0B2704784
:104BF000F0B50022184B144602EB420653F826503B
:104C000085B1D0F80072BD420DD103EB8605D0F816
:104C100008626F68B74206D12D89B0F80662B542C6
:104C200004D000E00124521C022AE5D3022A01D05C
:104C300079B904E05CB9022909D01220F0BD02EB79
:104C4000420003EB80004089B0F5807F01D0002056
:104C5000F0BD1020F0BD00007C8A002030B500219E
:104C6000064A0C4601EB410352F82350854201D11C
:104C700042F82340491C0229F4D330BD7C8A00202D
:104C8000D0F82422D0F80002490A90F80202B1FBC1
:104C9000F0F0121D02CA19B1884203D3401AF8E796
:104CA00000207047116808447047D0F81422891E0C
:104CB000921E8A4201D800207047D0F8282290F82E
:104CC000020201FB002070472DE9F0410F0005466C
:104CD00006D001F0E9F902280BD20120BDE8F081ED
:104CE000D5F80C621EB1D5F81402B04208D80126DE
:104CF00006E0411CF2D0D5F814128142EED83E46AF
:104D00003446D5F81402641CA04202D80224022EB4
:104D10000AD32146284601F0C7F938B1411CDDD03D
:104D20000128DBD0B442ECD10020D7E76FF070420D
:104D30002146284601F0E3FB30B957B122463946F7
:104D4000284601F0DCFB20B1012812D001242046C6
:104D5000C4E7C5F80C42D5F81002411CF7D0401E3C
:104D6000C5F8100295F8050240F0010085F805022B
:104D7000EDE74FF0FF34EAE72DE9F84F8846824629
:104D80000F6800E07F1C38782F28FBD05C28F9D012
:104D90000024DAF820622546785D6D1C202827D390
:104DA0002F2825D05C2823D0FF2C42D2A0F18101EE
:104DB0007D290BD8795D6D1C01EB0020A1F140022B
:104DC00080B23F2A02D380397F2932D2012100F0FC
:104DD00067FF5FEA00092CD0B9F1800F04D20146C9
:104DE00071A0FFF7FDFE20BB26F81490641CD3E7EA
:104DF0007A19C8F80020202801D2042517E00025E0
:104E000015E000BF06EB440030F8020C20280DD05E
:104E10002E280BD06CB1002026F814000B22202184
:104E2000DAF8180201F049FB002706E0641E002CA6
:104E3000E8D10620BDE8F88F7F1C36F8170020283F
:104E4000FAD02E28F8D01FB145F0030500E0641E0B
:104E50002CB106EB440030F8020C2E28F7D10020CC
:104E600081464FF0080B009036F8170007F1010754
:104E70005FEA000824D0B8F1200F04D0B8F12E0F5B
:104E800004D1A74202D045F00305EDE7009959454A
:104E900001D2A7421AD1BBF10B0F0FD0A74201D00C
:104EA00045F003050CD84FF0080000904FEA8960E8
:104EB00027464FF00B0B4FEA1069D5E745F0030585
:104EC000DAF818020178E52949D04AE04046B8F1FD
:104ED000800F07D300F00AFF002100F0E1FE8046BA
:104EE00045F00205B8F1FF0F13D90099ABF10100AD
:104EF000814204D345F00305CDF800B0B4E7DAF8F9
:104F0000182200984FEA182111540098401C009074
:104F10001CE0B8F1000F04D0014626A0FFF760FEA8
:104F200020B14FF05F0845F003050FE0A8F1410004
:104F3000192802D849F0020908E0A8F161001928EF
:104F400004D8413049F001091FFA80F8DAF8182234
:104F5000009902F801800098401C009084E7052128
:104F60000170BBF1080F03D14FEA89604FEA106965
:104F7000C9F38100032803D06FEA0901890701D131
:104F800045F00205A90709D409F00301012901D15F
:104F900045F01005012801D145F00805DAF818029E
:104FA000C572002046E70000222A3A3C3E3F7C7F43
:104FB000000000002B2C3B3D5B5D0000401E0228E2
:104FC00015D20C4B00EB400203EB82014889B0F58F
:104FD000807F05D008B1401E80B2488110B104E046
:104FE0000020FAE7002043F822000020704702204A
:104FF000704700007C8A00202DE9FC5F05460021F7
:1050000000F014FA00286ED1FF204FF6FF7A0090CE
:105010008146A5F824A200BFD5F81012D5F80002E9
:1050200001F052FA06000ED1D5F81442207848B1AA
:10503000E17AE52801F03F0170D00A0704D50F2975
:105040006CD107E0042674E00F2903D0B9F1000FFA
:105050004DD052E0D5F8201291B3420608D5627BBC
:10506000009220F04000B5F806228146A5F82422DF
:10507000484534D1627B0098824230D1019120783A
:10508000A04620F04000401E00EB80010027DFF822
:10509000A8B001EBC00601241BF8071001EB0800C3
:1050A000008874B100F022FE0446FF2E17D201984A
:1050B00030F81600761C00F019FEA0420FD102E075
:1050C00030E050450BD17F1C0D2FE5D398F8000040
:1050D000400609D544B1019830F8160020B1FF20F0
:1050E00000F0FF091EE025E0A9F10100F8E72046E5
:1050F00001F0D2FA009988421BD0D5F81802C17A83
:10510000C9070BD10A2101E0491E06D314F8012B6F
:1051100010F8013BD21AF7D000E052B14FF0FF096E
:10512000A5F824A20021284600F008F806003FF464
:1051300073AF3046BDE8FC9F001B03082DE9F0412A
:10514000B0F806620446761C30040F46000C37D0D7
:10515000D4F8100298B3310773D1401CC4F8100280
:10516000D4F80C12D4F8000231B190F80222521E89
:1051700012EA161F05D064E0B0F80802B0421FD949
:105180005FE000F091FF054601281ED9681C3AD067
:10519000D4F80002D0F81412A94249D87FB1D4F84B
:1051A0000C12FFF791FD05000DD0012D0DD0681CEC
:1051B00029D0D4F8000201F0D7FA20BB07E0FFE7BE
:1051C0000420BDE8F0810720FBE70220F9E74FF457
:1051D00000720021D4F8000201F06FF92946D4F8DA
:1051E0000002FFF762FDD4F8001200274FF001081B
:1051F000C1F82C0211E000BF80F80482D4F800024C
:1052000001F0B2FA08B10120DBE7D4F80002D0F8CF
:105210002C12491C7F1CC0F82C12D4F8000290F804
:105220000212B942E8D8D0F82C12C91BC0F82C12CF
:10523000C4F80C522946D4F80002FFF736FDC4F832
:105240001002A4F80662D4F8000206F00F0100EB89
:105250004110C4F814020020B3E700002DE9FF5FFD
:10526000D0F818720446D0F820620C2239466846FD
:1052700001F01AF99DF80B00C0071AD00020F8724F
:105280000125C4F820022B4632466946384600F014
:10529000C5FE2046FFF7B0FE10B96D1C642DF2D399
:1052A000642D0CD004280BD19DF80B00F872C4F8C3
:1052B00020629DF80B0080070FD5002004E0072036
:1052C00004B0BDE8F09F401C36F810100029FAD158
:1052D0000D211930B0FBF1F600E001260021204637
:1052E00000F0A4F8A0B90027D4F81012D4F80002F6
:1052F00001F0EAF860B9D4F814020078E5280AD081
:1053000048B1002701212046FFF718FF0028EBD005
:10531000042812D012E07F1C3046B742F2D1461E5C
:105320005FEA060A5FD0B4F806122046A1EB0A0134
:1053300000F07CF8050003D074E00720054671E01A
:10534000D4F8180201F0A8F9CDF80C00D4F8101226
:10535000D4F8000201F0B8F8050063D1D4F81412B3
:10536000D4F82092039848730F20C8720020087365
:1053700088760AF0FF0BC876ABF1010000EB8002E3
:1053800002EBC00500234FF6FF7E274E4A1C01E0CA
:10539000604503D039F81500F4466D1CF75CC8551C
:1053A00016F80380070A08F8027000B960465B1C13
:1053B0000D2BEDD3704502D039F8150008B94BF02C
:1053C000400B81F800B0D4F80012012081F80402EB
:1053D00000212046FFF7B2FE050023D1AAF101000B
:1053E0005FEA000AB2D1D4F81012D4F8000201F03A
:1053F0006BF8050016D1D4F814022022002104F520
:10540000007401F05AF8D4E905010B2201F04CF8C0
:10541000A0696169C07A00F0180008732168012052
:1054200081F8040228464BE7001B030870B5A0F87A
:105430000612D0F808320D460446012B40D0D4F8AD
:105440000002D0F8141299423AD933B990F80012F8
:10545000032906D1D0F824321BB190F802020601CC
:1054600014E0B0F80812A9422AD9D0F8240214E0B6
:1054700000F01AFE0346401C20D0022B20D3D4F8A3
:105480000002D0F8140298421AD9AD1BD4F80002D9
:10549000B5421946ECD2FFF708FCC4F80C3278B1DB
:1054A00000EB1510C4F81002D4F8000205F00F014B
:1054B00000EB4110C4F81402002070BD012070BD43
:1054C000022070BD084910B50B5C002253B90122BF
:1054D0000A540A1801EB8000127A406801681046ED
:1054E00088470246104610BD948A002030B4054C0F
:1054F000231804EB80001B7A406804691846A44610
:1055000030BC6047948A002030B4054D2C1805EB60
:105510008000247A406885682046AC4630BC6047ED
:10552000948A0020044A111802EB8000097A40682E
:105530004268084610470000948A002030B4054DA8
:105540002C1805EB8000247A4068C5682046AC46DC
:1055500030BC6047948A002010B5044600F058FA29
:1055600000280DD1204601F041FB002808D1D4F8D5
:105570002802FFF723FD002802D10021C4F8001201
:1055800010BD00002DE9FC5F0D46044601F02EFB26
:105590005FEA000973D194F8070200286FD1D4F8AC
:1055A000240201274FF0020A002869D0691C33D079
:1055B000D4F80C02A84200D20546C4F80852002DC7
:1055C0005CD02046691EFFF75BFB0146C4F814025D
:1055D000D4F80002FFF769FB00287CD0D4F8001251
:1055E0006D1E91F80222521E02EA55221518B4F8D7
:1055F0000802C005E4D0D4F81822AA42E0D094F8FA
:105600000602400646D591F8010201232146FFF724
:1056100095FF002874D137E002C80091D4F8101229
:105620008346022509B30026AD1C01918846761CED
:10563000D4F8000200F038FD014601284BD9481C7F
:105640005ED008F101008142F0D00098854206D872
:10565000CBF800600BF10400019A04C08346D4F833
:105660000002D0F814028842DDD8D4F82402056084
:105670000098854205D80021CBF80010C2E09DE0DB
:1056800016E04FF01109BDE094F8060220F040004A
:1056900084F80602D4F8000201232A4690F8010299
:1056A0002146FFF731FF00282AD1C4F81852A9E09B
:1056B000D4F80C02A84204D294F80612890700D448
:1056C00005464FF00008D4F80802C4F808824DB32C
:1056D000D4F8002200E06EE092F802124E0280B18F
:1056E000691E401EB1FBF6F1B0FBF6F3994208D3F8
:1056F000711E8843C4F808022D1AD4F8141210E061
:105700006EE0D4F8101251B900211046FFF7DCFA10
:10571000014601284FD0481C62D0C4F81012C4F8CA
:10572000141211BB31E000BF94F806028007D4F8D0
:10573000000205D5FFF7C8FA010004D1354616E08E
:1057400000F0B2FC0146481C4AD0012933D9D4F8F4
:105750000002D0F8140288422DD9C4F81412D4F8EB
:105760000802AD1B3044C4F80802B542DCD8D4F8B6
:1057700008022844C4F80802E80506D0D4F800025C
:10578000FFF793FAB8B100EB5528B4F80802C0054A
:105790002CD0D4F81822424528D094F806024006AE
:1057A00014D5D4F800020123214690F80102FFF736
:1057B000C5FEA8B904E084F807A20220BDE8FC9F5A
:1057C00094F8060220F0400084F80602D4F80002A3
:1057D0000123424690F801022146FFF795FE18B1D9
:1057E00084F807720120E9E7C4F81882D4E982013D
:1057F000884207D9C4F80C0294F8060240F0200051
:1058000084F806024846D9E72DE9F74181B0904671
:1058100002980090684600F0AAFC040003D50B2013
:1058200004B0BDE8F0810E4E002756F8245025B193
:105830002846FFF713FA85F800720198002801D076
:1058400080F8007246F8240002D0B8F1010F01D0B0
:105850000020E5E7002202A901A800F06DFADFE7C9
:10586000B00000202DE9F747ADF2344D06000FD00F
:105870004FF0000802F01F0727F001020DF58761C5
:1058800080A8C6F8008200F057FA040005D0B8E0FE
:1058900009200DF5886DBDE8F0870DF585608690CF
:1058A0008AA888906846DDF8381400F071FB859D61
:1058B00004000BD11DB1780803D0012102E00624B9
:1058C00004E000216846FFF793F9044617F01C0F27
:1058D0005FD04FF0010AD4B1042C13D100204B4902
:1058E00002E0401C022805D200EB400251F82220C1
:1058F000002AF6D1022804D06846FFF7AFFC044620
:1059000000E01224859D47F0080754B179E0E87A59
:1059100010F0110F01D0072473E0780701D5082497
:105920006FE0380743D500F020FCA873010AE97343
:10593000010C2974000E687485F80B8085F81C80B2
:1059400085F81D8085F81E8085F81F80294680987F
:1059500000F0BEFC81460021284600F095FE8099AB
:10596000B9F1000F81F804A21FD080984946D0F801
:105970002CA200F040FE040043D18099A9F101005F
:10598000C1F80C025146809800F09EFD04000AD038
:1059900037E0B4BBE87AC10601D5042431E0B90789
:1059A00001D5C007B7D1380701D547F02007809847
:1059B000D0F82C02C6E98705780801D0012100E063
:1059C0000021684600F034FCC6F82802D8B186F8F9
:1059D000067286F807824746294606F500768098C3
:1059E00000F076FC3061287FD5F81D1040EA0120D8
:1059F000C6E90270B761776280983060B0F806023D
:105A0000B080204645E70224FBE700007C8A0020A6
:105A100070B5044601F0EAF8002811D194F8061296
:105A20008A060DD5480612D5D4F800020123214676
:105A300090F80102D4F81822FFF780FD08B1012088
:105A400070BD94F8060220F0400084F80602D4F8F5
:105A50001C12D4F8000200F037FD0028F0D1D4F871
:105A60002052E87A40F02000E87294F80C0228777F
:105A7000B4F80C02000A6877D4F80C02000CA8777E
:105A8000D4F80C02000EE877D4F81012284604F57A
:105A9000007400F0F9FD00F068FBA875010AE975D3
:105AA000010C2976000E68760020A874E874A079AD
:105AB00020F02000A0712168012081F804022068F4
:105AC000BDE8704000F0F5BD2DE9F84F8846002193
:105AD000994615460446196001F088F8002808D157
